{
  "address": "0x4852A15fcd0650812258ec0eF99678652eC193F7",
  "abi": [
    {
      "inputs": [
        {
          "internalType": "string",
          "name": "name_",
          "type": "string"
        },
        {
          "internalType": "string",
          "name": "symbol_",
          "type": "string"
        },
        {
          "internalType": "address",
          "name": "owner_",
          "type": "address"
        },
        {
          "internalType": "address",
          "name": "factory_",
          "type": "address"
        },
        {
          "internalType": "address",
          "name": "linkedNFT_",
          "type": "address"
        },
        {
          "internalType": "uint256",
          "name": "linkedNFTId_",
          "type": "uint256"
        },
        {
          "internalType": "address[]",
          "name": "membersToFund",
          "type": "address[]"
        },
        {
          "internalType": "uint256[]",
          "name": "amountsToFund",
          "type": "uint256[]"
        }
      ],
      "stateMutability": "nonpayable",
      "type": "constructor"
    },
    {
      "anonymous": false,
      "inputs": [
        {
          "indexed": true,
          "internalType": "address",
          "name": "owner",
          "type": "address"
        },
        {
          "indexed": true,
          "internalType": "address",
          "name": "spender",
          "type": "address"
        },
        {
          "indexed": false,
          "internalType": "uint256",
          "name": "value",
          "type": "uint256"
        }
      ],
      "name": "Approval",
      "type": "event"
    },
    {
      "anonymous": false,
      "inputs": [],
      "name": "Locked",
      "type": "event"
    },
    {
      "anonymous": false,
      "inputs": [
        {
          "indexed": true,
          "internalType": "address",
          "name": "newAddress",
          "type": "address"
        },
        {
          "indexed": false,
          "internalType": "uint256",
          "name": "id",
          "type": "uint256"
        }
      ],
      "name": "NFTDataUpdated",
      "type": "event"
    },
    {
      "anonymous": false,
      "inputs": [
        {
          "indexed": false,
          "internalType": "string",
          "name": "newName",
          "type": "string"
        }
      ],
      "name": "NameChanged",
      "type": "event"
    },
    {
      "anonymous": false,
      "inputs": [
        {
          "indexed": true,
          "internalType": "address",
          "name": "previousOwner",
          "type": "address"
        },
        {
          "indexed": true,
          "internalType": "address",
          "name": "newOwner",
          "type": "address"
        }
      ],
      "name": "OwnershipTransferred",
      "type": "event"
    },
    {
      "anonymous": false,
      "inputs": [
        {
          "indexed": false,
          "internalType": "address",
          "name": "account",
          "type": "address"
        }
      ],
      "name": "Paused",
      "type": "event"
    },
    {
      "anonymous": false,
      "inputs": [
        {
          "indexed": false,
          "internalType": "string",
          "name": "newStatus",
          "type": "string"
        }
      ],
      "name": "StatusChanged",
      "type": "event"
    },
    {
      "anonymous": false,
      "inputs": [
        {
          "indexed": false,
          "internalType": "string",
          "name": "newSymbol",
          "type": "string"
        }
      ],
      "name": "SymbolChanged",
      "type": "event"
    },
    {
      "anonymous": false,
      "inputs": [
        {
          "indexed": true,
          "internalType": "address",
          "name": "from",
          "type": "address"
        },
        {
          "indexed": false,
          "internalType": "uint256",
          "name": "amount",
          "type": "uint256"
        }
      ],
      "name": "TokensBurned",
      "type": "event"
    },
    {
      "anonymous": false,
      "inputs": [
        {
          "indexed": true,
          "internalType": "address",
          "name": "to",
          "type": "address"
        },
        {
          "indexed": false,
          "internalType": "uint256",
          "name": "amount",
          "type": "uint256"
        }
      ],
      "name": "TokensMinted",
      "type": "event"
    },
    {
      "anonymous": false,
      "inputs": [
        {
          "indexed": true,
          "internalType": "address",
          "name": "from",
          "type": "address"
        },
        {
          "indexed": true,
          "internalType": "address",
          "name": "to",
          "type": "address"
        },
        {
          "indexed": false,
          "internalType": "uint256",
          "name": "value",
          "type": "uint256"
        }
      ],
      "name": "Transfer",
      "type": "event"
    },
    {
      "anonymous": false,
      "inputs": [],
      "name": "Unlocked",
      "type": "event"
    },
    {
      "anonymous": false,
      "inputs": [
        {
          "indexed": false,
          "internalType": "address",
          "name": "account",
          "type": "address"
        }
      ],
      "name": "Unpaused",
      "type": "event"
    },
    {
      "inputs": [
        {
          "internalType": "address",
          "name": "owner",
          "type": "address"
        },
        {
          "internalType": "address",
          "name": "spender",
          "type": "address"
        }
      ],
      "name": "allowance",
      "outputs": [
        {
          "internalType": "uint256",
          "name": "",
          "type": "uint256"
        }
      ],
      "stateMutability": "view",
      "type": "function"
    },
    {
      "inputs": [
        {
          "internalType": "address",
          "name": "spender",
          "type": "address"
        },
        {
          "internalType": "uint256",
          "name": "amount",
          "type": "uint256"
        }
      ],
      "name": "approve",
      "outputs": [
        {
          "internalType": "bool",
          "name": "",
          "type": "bool"
        }
      ],
      "stateMutability": "nonpayable",
      "type": "function"
    },
    {
      "inputs": [
        {
          "internalType": "address",
          "name": "account",
          "type": "address"
        }
      ],
      "name": "balanceOf",
      "outputs": [
        {
          "internalType": "uint256",
          "name": "",
          "type": "uint256"
        }
      ],
      "stateMutability": "view",
      "type": "function"
    },
    {
      "inputs": [
        {
          "internalType": "address",
          "name": "from",
          "type": "address"
        },
        {
          "internalType": "uint256",
          "name": "amount",
          "type": "uint256"
        }
      ],
      "name": "burn",
      "outputs": [],
      "stateMutability": "nonpayable",
      "type": "function"
    },
    {
      "inputs": [
        {
          "internalType": "string",
          "name": "newName",
          "type": "string"
        }
      ],
      "name": "changeName",
      "outputs": [],
      "stateMutability": "nonpayable",
      "type": "function"
    },
    {
      "inputs": [
        {
          "internalType": "string",
          "name": "newStatus",
          "type": "string"
        }
      ],
      "name": "changeStatus",
      "outputs": [],
      "stateMutability": "nonpayable",
      "type": "function"
    },
    {
      "inputs": [
        {
          "internalType": "string",
          "name": "newSymbol",
          "type": "string"
        }
      ],
      "name": "changeSymbol",
      "outputs": [],
      "stateMutability": "nonpayable",
      "type": "function"
    },
    {
      "inputs": [],
      "name": "decimals",
      "outputs": [
        {
          "internalType": "uint8",
          "name": "",
          "type": "uint8"
        }
      ],
      "stateMutability": "view",
      "type": "function"
    },
    {
      "inputs": [
        {
          "internalType": "address",
          "name": "spender",
          "type": "address"
        },
        {
          "internalType": "uint256",
          "name": "subtractedValue",
          "type": "uint256"
        }
      ],
      "name": "decreaseAllowance",
      "outputs": [
        {
          "internalType": "bool",
          "name": "",
          "type": "bool"
        }
      ],
      "stateMutability": "nonpayable",
      "type": "function"
    },
    {
      "inputs": [],
      "name": "factory",
      "outputs": [
        {
          "internalType": "address",
          "name": "",
          "type": "address"
        }
      ],
      "stateMutability": "view",
      "type": "function"
    },
    {
      "inputs": [
        {
          "internalType": "address",
          "name": "spender",
          "type": "address"
        },
        {
          "internalType": "uint256",
          "name": "addedValue",
          "type": "uint256"
        }
      ],
      "name": "increaseAllowance",
      "outputs": [
        {
          "internalType": "bool",
          "name": "",
          "type": "bool"
        }
      ],
      "stateMutability": "nonpayable",
      "type": "function"
    },
    {
      "inputs": [],
      "name": "linkedNFT",
      "outputs": [
        {
          "internalType": "address",
          "name": "",
          "type": "address"
        }
      ],
      "stateMutability": "view",
      "type": "function"
    },
    {
      "inputs": [],
      "name": "linkedNFTId",
      "outputs": [
        {
          "internalType": "uint256",
          "name": "",
          "type": "uint256"
        }
      ],
      "stateMutability": "view",
      "type": "function"
    },
    {
      "inputs": [],
      "name": "lock",
      "outputs": [],
      "stateMutability": "nonpayable",
      "type": "function"
    },
    {
      "inputs": [],
      "name": "locked",
      "outputs": [
        {
          "internalType": "bool",
          "name": "",
          "type": "bool"
        }
      ],
      "stateMutability": "view",
      "type": "function"
    },
    {
      "inputs": [
        {
          "internalType": "address",
          "name": "to",
          "type": "address"
        },
        {
          "internalType": "uint256",
          "name": "amount",
          "type": "uint256"
        }
      ],
      "name": "mint",
      "outputs": [],
      "stateMutability": "nonpayable",
      "type": "function"
    },
    {
      "inputs": [],
      "name": "name",
      "outputs": [
        {
          "internalType": "string",
          "name": "",
          "type": "string"
        }
      ],
      "stateMutability": "view",
      "type": "function"
    },
    {
      "inputs": [],
      "name": "owner",
      "outputs": [
        {
          "internalType": "address",
          "name": "",
          "type": "address"
        }
      ],
      "stateMutability": "view",
      "type": "function"
    },
    {
      "inputs": [],
      "name": "paused",
      "outputs": [
        {
          "internalType": "bool",
          "name": "",
          "type": "bool"
        }
      ],
      "stateMutability": "view",
      "type": "function"
    },
    {
      "inputs": [],
      "name": "renounceOwnership",
      "outputs": [],
      "stateMutability": "nonpayable",
      "type": "function"
    },
    {
      "inputs": [],
      "name": "status",
      "outputs": [
        {
          "internalType": "string",
          "name": "",
          "type": "string"
        }
      ],
      "stateMutability": "view",
      "type": "function"
    },
    {
      "inputs": [],
      "name": "symbol",
      "outputs": [
        {
          "internalType": "string",
          "name": "",
          "type": "string"
        }
      ],
      "stateMutability": "view",
      "type": "function"
    },
    {
      "inputs": [],
      "name": "totalSupply",
      "outputs": [
        {
          "internalType": "uint256",
          "name": "",
          "type": "uint256"
        }
      ],
      "stateMutability": "view",
      "type": "function"
    },
    {
      "inputs": [
        {
          "internalType": "address",
          "name": "to",
          "type": "address"
        },
        {
          "internalType": "uint256",
          "name": "amount",
          "type": "uint256"
        }
      ],
      "name": "transfer",
      "outputs": [
        {
          "internalType": "bool",
          "name": "",
          "type": "bool"
        }
      ],
      "stateMutability": "nonpayable",
      "type": "function"
    },
    {
      "inputs": [
        {
          "internalType": "address",
          "name": "from",
          "type": "address"
        },
        {
          "internalType": "address",
          "name": "to",
          "type": "address"
        },
        {
          "internalType": "uint256",
          "name": "amount",
          "type": "uint256"
        }
      ],
      "name": "transferFrom",
      "outputs": [
        {
          "internalType": "bool",
          "name": "",
          "type": "bool"
        }
      ],
      "stateMutability": "nonpayable",
      "type": "function"
    },
    {
      "inputs": [
        {
          "internalType": "address",
          "name": "newOwner",
          "type": "address"
        }
      ],
      "name": "transferOwnership",
      "outputs": [],
      "stateMutability": "nonpayable",
      "type": "function"
    },
    {
      "inputs": [],
      "name": "unlock",
      "outputs": [],
      "stateMutability": "nonpayable",
      "type": "function"
    },
    {
      "inputs": [
        {
          "internalType": "address",
          "name": "linkedNFT_",
          "type": "address"
        },
        {
          "internalType": "uint256",
          "name": "linkedNFTId_",
          "type": "uint256"
        }
      ],
      "name": "updateNFTData",
      "outputs": [],
      "stateMutability": "nonpayable",
      "type": "function"
    }
  ],
  "transactionHash": "0x38ab40e7a1103e9d3a625573aac2511dd06ef4e0f7ba254a2e8984d7c9250c7a",
  "args": [
    "Deposit Token",
    "DPT",
    "0x1DEA6076bC003a957B1E4774A93a8D9aB0CBC1C1",
    "0x0000000000000000000000000000000000000000",
    "0x0000000000000000000000000000000000000000",
    0,
    [
      "0x1DEA6076bC003a957B1E4774A93a8D9aB0CBC1C1"
    ],
    [
      "100000000000000000000"
    ]
  ],
  "numDeployments": 1,
  "solcInputHash": "bcbee152721b6562bc1a3c5f22698cb7",
  "bytecode": "0x6080604052600a805460ff191690553480156200001b57600080fd5b5060405162001e9238038062001e928339810160408190526200003e9162000696565b878760036200004e83826200081f565b5060046200005d82826200081f565b5050506200007a62000074620001e460201b60201c565b620001e8565b6005805460ff60a01b191690556200009286620002b9565b8051825114620000e95760405162461bcd60e51b815260206004820152601860248201527f4d69736d61746368656420696e707574206c656e67746873000000000000000060448201526064015b60405180910390fd5b60408051808201909152600681526561637469766560d01b60208201526009906200011590826200081f565b50600680546001600160a01b038088166001600160a01b03199283161790925560078054928716929091169190911790556008839055600b6200015989826200081f565b50600c6200016888826200081f565b5060005b8251811015620001d557620001c08382815181106200018f576200018f620008eb565b6020026020010151838381518110620001ac57620001ac620008eb565b60200260200101516200033860201b60201c565b80620001cc8162000917565b9150506200016c565b5050505050505050506200094f565b3390565b6000620001fd6005546001600160a01b031690565b90506200020a82620003fb565b6006546001600160a01b0316156200028657600654604051636f35f0b360e11b81526001600160a01b03838116600483015284811660248301529091169063de6be16690604401600060405180830381600087803b1580156200026c57600080fd5b505af115801562000281573d6000803e3d6000fd5b505050505b816001600160a01b0316816001600160a01b031660008051602062001e7283398151915260405160405180910390a35050565b620002c36200043c565b6001600160a01b0381166200032a5760405162461bcd60e51b815260206004820152602660248201527f4f776e61626c653a206e6577206f776e657220697320746865207a65726f206160448201526564647265737360d01b6064820152608401620000e0565b6200033581620001e8565b50565b6001600160a01b038216620003905760405162461bcd60e51b815260206004820152601f60248201527f45524332303a206d696e7420746f20746865207a65726f2061646472657373006044820152606401620000e0565b8060026000828254620003a4919062000933565b90915550506001600160a01b038216600081815260208181526040808320805486019055518481527fddf252ad1be2c89b69c2b068fc378daa952ba7f163c4a11628f55a4df523b3ef910160405180910390a35050565b600580546001600160a01b038381166001600160a01b03198316811790935560405191169190829060008051602062001e7283398151915290600090a35050565b6005546001600160a01b03163314620004985760405162461bcd60e51b815260206004820181905260248201527f4f776e61626c653a2063616c6c6572206973206e6f7420746865206f776e65726044820152606401620000e0565b565b505050565b634e487b7160e01b600052604160045260246000fd5b604051601f8201601f191681016001600160401b0381118282101715620004e057620004e06200049f565b604052919050565b600082601f830112620004fa57600080fd5b81516001600160401b038111156200051657620005166200049f565b60206200052c601f8301601f19168201620004b5565b82815285828487010111156200054157600080fd5b60005b838110156200056157858101830151828201840152820162000544565b506000928101909101919091529392505050565b80516001600160a01b03811681146200058d57600080fd5b919050565b60006001600160401b03821115620005ae57620005ae6200049f565b5060051b60200190565b600082601f830112620005ca57600080fd5b81516020620005e3620005dd8362000592565b620004b5565b82815260059290921b840181019181810190868411156200060357600080fd5b8286015b8481101562000629576200061b8162000575565b835291830191830162000607565b509695505050505050565b600082601f8301126200064657600080fd5b8151602062000659620005dd8362000592565b82815260059290921b840181019181810190868411156200067957600080fd5b8286015b848110156200062957805183529183019183016200067d565b600080600080600080600080610100898b031215620006b457600080fd5b88516001600160401b0380821115620006cc57600080fd5b620006da8c838d01620004e8565b995060208b0151915080821115620006f157600080fd5b620006ff8c838d01620004e8565b98506200070f60408c0162000575565b97506200071f60608c0162000575565b96506200072f60808c0162000575565b955060a08b0151945060c08b01519150808211156200074d57600080fd5b6200075b8c838d01620005b8565b935060e08b01519150808211156200077257600080fd5b50620007818b828c0162000634565b9150509295985092959890939650565b600181811c90821680620007a657607f821691505b602082108103620007c757634e487b7160e01b600052602260045260246000fd5b50919050565b601f8211156200049a57600081815260208120601f850160051c81016020861015620007f65750805b601f850160051c820191505b81811015620008175782815560010162000802565b505050505050565b81516001600160401b038111156200083b576200083b6200049f565b62000853816200084c845462000791565b84620007cd565b602080601f8311600181146200088b5760008415620008725750858301515b600019600386901b1c1916600185901b17855562000817565b600085815260208120601f198616915b82811015620008bc578886015182559484019460019091019084016200089b565b5085821015620008db5787850151600019600388901b60f8161c191681555b5050505050600190811b01905550565b634e487b7160e01b600052603260045260246000fd5b634e487b7160e01b600052601160045260246000fd5b6000600182016200092c576200092c62000901565b5060010190565b8082018082111562000949576200094962000901565b92915050565b611513806200095f6000396000f3fe608060405234801561001057600080fd5b50600436106101645760003560e01c806386a5ff97116100c957806386a5ff97146102765780638da5cb5b1461028957806395d89b41146102a95780639dc29fac146102b1578063a3895fff146102c4578063a457c2d7146102d7578063a69df4b5146102ea578063a9059cbb146102f2578063ab1ef54214610305578063c45a015514610318578063cf3090121461032b578063dd62ed3e14610338578063f2fde38b1461034b578063f83d08ba1461035e57600080fd5b806306fdde0314610169578063095ea7b31461018757806318160ddd146101aa578063200d2ed2146101bc57806323b872dd146101c45780632fefeaa5146101d7578063313ce567146101e057806339509351146101ef57806340c10f191461020257806340e0e9e2146102175780635353a2d81461022a5780635c975abb1461023d57806370a0823114610245578063715018a61461026e575b600080fd5b610171610366565b60405161017e919061113c565b60405180910390f35b61019a6101953660046111a6565b6103f8565b604051901515815260200161017e565b6002545b60405190815260200161017e565b610171610412565b61019a6101d23660046111d0565b6104a0565b6101ae60085481565b6040516012815260200161017e565b61019a6101fd3660046111a6565b6104c4565b6102156102103660046111a6565b6104e6565b005b6102156102253660046111a6565b610573565b610215610238366004611222565b6105f9565b61019a610673565b6101ae6102533660046112d3565b6001600160a01b031660009081526020819052604090205490565b610215610683565b610215610284366004611222565b610697565b610291610706565b6040516001600160a01b03909116815260200161017e565b610171610715565b6102156102bf3660046111a6565b610724565b6102156102d2366004611222565b61079c565b61019a6102e53660046111a6565b61080b565b610215610886565b61019a6103003660046111a6565b61090f565b600754610291906001600160a01b031681565b600654610291906001600160a01b031681565b600a5461019a9060ff1681565b6101ae6103463660046112f5565b61091d565b6102156103593660046112d3565b610948565b6102156109c1565b6060600b805461037590611328565b80601f01602080910402602001604051908101604052809291908181526020018280546103a190611328565b80156103ee5780601f106103c3576101008083540402835291602001916103ee565b820191906000526020600020905b8154815290600101906020018083116103d157829003601f168201915b5050505050905090565b600033610406818585610a76565b60019150505b92915050565b6009805461041f90611328565b80601f016020809104026020016040519081016040528092919081815260200182805461044b90611328565b80156104985780601f1061046d57610100808354040283529160200191610498565b820191906000526020600020905b81548152906001019060200180831161047b57829003601f168201915b505050505081565b6000336104ae858285610b9b565b6104b9858585610c15565b506001949350505050565b6000336104068185856104d7838361091d565b6104e19190611362565b610a76565b6104ee610da7565b600a5460ff161561051a5760405162461bcd60e51b815260040161051190611383565b60405180910390fd5b610522610e06565b61052c8282610e4e565b816001600160a01b03167f3f2c9d57c068687834f0de942a9babb9e5acab57d516d3480a3c16ee165a42738260405161056791815260200190565b60405180910390a25050565b61057b610da7565b600a5460ff161561059e5760405162461bcd60e51b815260040161051190611383565b6105a6610e06565b600780546001600160a01b0319166001600160a01b03841690811790915560088290556040518281527f1282c4517184314a9fefed3cc7aa634a069ae13636b3a5126d2ecdd66d912c3290602001610567565b610601610da7565b600a5460ff16156106245760405162461bcd60e51b815260040161051190611383565b61062c610e06565b600b61063882826113fd565b507f4737457377f528cc8afd815f73ecb8b05df80d047dbffc41c17750a4033592bc81604051610668919061113c565b60405180910390a150565b600554600160a01b900460ff1690565b61068b610da7565b6106956000610efb565b565b61069f610da7565b600a5460ff16156106c25760405162461bcd60e51b815260040161051190611383565b6106ca610e06565b60096106d682826113fd565b507fea6f92f49f3f6b3faa4cb02c9366b537e5c42ee43006fb8f18fb7a3ecb6c6a9281604051610668919061113c565b6005546001600160a01b031690565b6060600c805461037590611328565b61072c610da7565b600a5460ff161561074f5760405162461bcd60e51b815260040161051190611383565b610757610e06565b6107618282610fcd565b816001600160a01b03167ffd38818f5291bf0bb3a2a48aadc06ba8757865d1dabd804585338aab3009dcb68260405161056791815260200190565b6107a4610da7565b600a5460ff16156107c75760405162461bcd60e51b815260040161051190611383565b6107cf610e06565b600c6107db82826113fd565b507f57c940aa14b51ea5f96b7a2bea757ce355d996e2c5d7a3c68aff1c75a326269b81604051610668919061113c565b60003381610819828661091d565b9050838110156108795760405162461bcd60e51b815260206004820152602560248201527f45524332303a2064656372656173656420616c6c6f77616e63652062656c6f77604482015264207a65726f60d81b6064820152608401610511565b6104b98286868403610a76565b6006546001600160a01b031633146108da5760405162461bcd60e51b81526020600482015260176024820152764f6e6c7920666163746f72792063616e20756e6c6f636b60481b6044820152606401610511565b600a805460ff191690556040517f19aad37188a1d3921e29eb3c66acf43d81975e107cb650d58cca878627955fd690600090a1565b600033610406818585610c15565b6001600160a01b03918216600090815260016020908152604080832093909416825291909152205490565b610950610da7565b6001600160a01b0381166109b55760405162461bcd60e51b815260206004820152602660248201527f4f776e61626c653a206e6577206f776e657220697320746865207a65726f206160448201526564647265737360d01b6064820152608401610511565b6109be81610efb565b50565b6006546001600160a01b03163314806109f257506109dd610706565b6001600160a01b0316336001600160a01b0316145b610a3e5760405162461bcd60e51b815260206004820152601e60248201527f4f6e6c7920666163746f7279206f72206f776e65722063616e206c6f636b00006044820152606401610511565b600a805460ff191660011790556040517f0f2e5b6c72c6a4491efd919a9f9a409f324ef0708c11ee57d410c2cb06c0992b90600090a1565b6001600160a01b038316610ad85760405162461bcd60e51b8152602060048201526024808201527f45524332303a20617070726f76652066726f6d20746865207a65726f206164646044820152637265737360e01b6064820152608401610511565b6001600160a01b038216610b395760405162461bcd60e51b815260206004820152602260248201527f45524332303a20617070726f766520746f20746865207a65726f206164647265604482015261737360f01b6064820152608401610511565b6001600160a01b0383811660008181526001602090815260408083209487168084529482529182902085905590518481527f8c5be1e5ebec7d5bd14f71427d1e84f3dd0314c0f7b2291e5b200ac8c7c3b92591015b60405180910390a3505050565b6000610ba7848461091d565b90506000198114610c0f5781811015610c025760405162461bcd60e51b815260206004820152601d60248201527f45524332303a20696e73756666696369656e7420616c6c6f77616e63650000006044820152606401610511565b610c0f8484848403610a76565b50505050565b6001600160a01b038316610c795760405162461bcd60e51b815260206004820152602560248201527f45524332303a207472616e736665722066726f6d20746865207a65726f206164604482015264647265737360d81b6064820152608401610511565b6001600160a01b038216610cdb5760405162461bcd60e51b815260206004820152602360248201527f45524332303a207472616e7366657220746f20746865207a65726f206164647260448201526265737360e81b6064820152608401610511565b6001600160a01b03831660009081526020819052604090205481811015610d535760405162461bcd60e51b815260206004820152602660248201527f45524332303a207472616e7366657220616d6f756e7420657863656564732062604482015265616c616e636560d01b6064820152608401610511565b6001600160a01b03848116600081815260208181526040808320878703905593871680835291849020805487019055925185815290926000805160206114be833981519152910160405180910390a3610c0f565b33610db0610706565b6001600160a01b0316146106955760405162461bcd60e51b815260206004820181905260248201527f4f776e61626c653a2063616c6c6572206973206e6f7420746865206f776e65726044820152606401610511565b610e0e610673565b156106955760405162461bcd60e51b815260206004820152601060248201526f14185d5cd8589b194e881c185d5cd95960821b6044820152606401610511565b6001600160a01b038216610ea45760405162461bcd60e51b815260206004820152601f60248201527f45524332303a206d696e7420746f20746865207a65726f2061646472657373006044820152606401610511565b8060026000828254610eb69190611362565b90915550506001600160a01b038216600081815260208181526040808320805486019055518481526000805160206114be833981519152910160405180910390a35050565b6000610f05610706565b9050610f10826110ea565b6006546001600160a01b031615610f8957600654604051636f35f0b360e11b81526001600160a01b03838116600483015284811660248301529091169063de6be16690604401600060405180830381600087803b158015610f7057600080fd5b505af1158015610f84573d6000803e3d6000fd5b505050505b816001600160a01b0316816001600160a01b03167f8be0079c531659141344cd1fd0a4f28419497f9722a3daafe3b4186f6b6457e060405160405180910390a35050565b6001600160a01b03821661102d5760405162461bcd60e51b815260206004820152602160248201527f45524332303a206275726e2066726f6d20746865207a65726f206164647265736044820152607360f81b6064820152608401610511565b6001600160a01b038216600090815260208190526040902054818110156110a15760405162461bcd60e51b815260206004820152602260248201527f45524332303a206275726e20616d6f756e7420657863656564732062616c616e604482015261636560f01b6064820152608401610511565b6001600160a01b0383166000818152602081815260408083208686039055600280548790039055518581529192916000805160206114be8339815191529101610b8e565b505050565b600580546001600160a01b038381166001600160a01b0319831681179093556040519116919082907f8be0079c531659141344cd1fd0a4f28419497f9722a3daafe3b4186f6b6457e090600090a35050565b600060208083528351808285015260005b818110156111695785810183015185820160400152820161114d565b506000604082860101526040601f19601f8301168501019250505092915050565b80356001600160a01b03811681146111a157600080fd5b919050565b600080604083850312156111b957600080fd5b6111c28361118a565b946020939093013593505050565b6000806000606084860312156111e557600080fd5b6111ee8461118a565b92506111fc6020850161118a565b9150604084013590509250925092565b634e487b7160e01b600052604160045260246000fd5b60006020828403121561123457600080fd5b813567ffffffffffffffff8082111561124c57600080fd5b818401915084601f83011261126057600080fd5b8135818111156112725761127261120c565b604051601f8201601f19908116603f0116810190838211818310171561129a5761129a61120c565b816040528281528760208487010111156112b357600080fd5b826020860160208301376000928101602001929092525095945050505050565b6000602082840312156112e557600080fd5b6112ee8261118a565b9392505050565b6000806040838503121561130857600080fd5b6113118361118a565b915061131f6020840161118a565b90509250929050565b600181811c9082168061133c57607f821691505b60208210810361135c57634e487b7160e01b600052602260045260246000fd5b50919050565b8082018082111561040c57634e487b7160e01b600052601160045260246000fd5b60208082526012908201527110dbdb9d1c9858dd081a5cc81b1bd8dad95960721b604082015260600190565b601f8211156110e557600081815260208120601f850160051c810160208610156113d65750805b601f850160051c820191505b818110156113f5578281556001016113e2565b505050505050565b815167ffffffffffffffff8111156114175761141761120c565b61142b816114258454611328565b846113af565b602080601f83116001811461146057600084156114485750858301515b600019600386901b1c1916600185901b1785556113f5565b600085815260208120601f198616915b8281101561148f57888601518255948401946001909101908401611470565b50858210156114ad5787850151600019600388901b60f8161c191681555b5050505050600190811b0190555056feddf252ad1be2c89b69c2b068fc378daa952ba7f163c4a11628f55a4df523b3efa2646970667358221220b0568d5f6d6503a10090afb29c137db1365f980c6a931590baac349fcb71df2b64736f6c634300081300338be0079c531659141344cd1fd0a4f28419497f9722a3daafe3b4186f6b6457e0",
  "devdoc": {
    "events": {
      "Approval(address,address,uint256)": {
        "details": "Emitted when the allowance of a `spender` for an `owner` is set by a call to {approve}. `value` is the new allowance."
      },
      "Paused(address)": {
        "details": "Emitted when the pause is triggered by `account`."
      },
      "Transfer(address,address,uint256)": {
        "details": "Emitted when `value` tokens are moved from one account (`from`) to another (`to`). Note that `value` may be zero."
      },
      "Unpaused(address)": {
        "details": "Emitted when the pause is lifted by `account`."
      }
    },
    "kind": "dev",
    "methods": {
      "allowance(address,address)": {
        "details": "See {IERC20-allowance}."
      },
      "approve(address,uint256)": {
        "details": "See {IERC20-approve}. NOTE: If `amount` is the maximum `uint256`, the allowance is not updated on `transferFrom`. This is semantically equivalent to an infinite approval. Requirements: - `spender` cannot be the zero address."
      },
      "balanceOf(address)": {
        "details": "See {IERC20-balanceOf}."
      },
      "decimals()": {
        "details": "Returns the number of decimals used to get its user representation. For example, if `decimals` equals `2`, a balance of `505` tokens should be displayed to a user as `5.05` (`505 / 10 ** 2`). Tokens usually opt for a value of 18, imitating the relationship between Ether and Wei. This is the default value returned by this function, unless it's overridden. NOTE: This information is only used for _display_ purposes: it in no way affects any of the arithmetic of the contract, including {IERC20-balanceOf} and {IERC20-transfer}."
      },
      "decreaseAllowance(address,uint256)": {
        "details": "Atomically decreases the allowance granted to `spender` by the caller. This is an alternative to {approve} that can be used as a mitigation for problems described in {IERC20-approve}. Emits an {Approval} event indicating the updated allowance. Requirements: - `spender` cannot be the zero address. - `spender` must have allowance for the caller of at least `subtractedValue`."
      },
      "increaseAllowance(address,uint256)": {
        "details": "Atomically increases the allowance granted to `spender` by the caller. This is an alternative to {approve} that can be used as a mitigation for problems described in {IERC20-approve}. Emits an {Approval} event indicating the updated allowance. Requirements: - `spender` cannot be the zero address."
      },
      "name()": {
        "details": "Returns the name of the token."
      },
      "owner()": {
        "details": "Returns the address of the current owner."
      },
      "paused()": {
        "details": "Returns true if the contract is paused, and false otherwise."
      },
      "renounceOwnership()": {
        "details": "Leaves the contract without owner. It will not be possible to call `onlyOwner` functions. Can only be called by the current owner. NOTE: Renouncing ownership will leave the contract without an owner, thereby disabling any functionality that is only available to the owner."
      },
      "symbol()": {
        "details": "Returns the symbol of the token, usually a shorter version of the name."
      },
      "totalSupply()": {
        "details": "See {IERC20-totalSupply}."
      },
      "transfer(address,uint256)": {
        "details": "See {IERC20-transfer}. Requirements: - `to` cannot be the zero address. - the caller must have a balance of at least `amount`."
      },
      "transferFrom(address,address,uint256)": {
        "details": "See {IERC20-transferFrom}. Emits an {Approval} event indicating the updated allowance. This is not required by the EIP. See the note at the beginning of {ERC20}. NOTE: Does not update the allowance if the current allowance is the maximum `uint256`. Requirements: - `from` and `to` cannot be the zero address. - `from` must have a balance of at least `amount`. - the caller must have allowance for ``from``'s tokens of at least `amount`."
      },
      "transferOwnership(address)": {
        "details": "Transfers ownership of the contract to a new account (`newOwner`). Can only be called by the current owner."
      }
    },
    "version": 1
  },
  "userdoc": {
    "kind": "user",
    "methods": {},
    "version": 1
  },
  "storageLayout": {
    "storage": [
      {
        "astId": 264,
        "contract": "contracts/ERC20Ownable.sol:ERC20Ownable",
        "label": "_balances",
        "offset": 0,
        "slot": "0",
        "type": "t_mapping(t_address,t_uint256)"
      },
      {
        "astId": 270,
        "contract": "contracts/ERC20Ownable.sol:ERC20Ownable",
        "label": "_allowances",
        "offset": 0,
        "slot": "1",
        "type": "t_mapping(t_address,t_mapping(t_address,t_uint256))"
      },
      {
        "astId": 272,
        "contract": "contracts/ERC20Ownable.sol:ERC20Ownable",
        "label": "_totalSupply",
        "offset": 0,
        "slot": "2",
        "type": "t_uint256"
      },
      {
        "astId": 274,
        "contract": "contracts/ERC20Ownable.sol:ERC20Ownable",
        "label": "_name",
        "offset": 0,
        "slot": "3",
        "type": "t_string_storage"
      },
      {
        "astId": 276,
        "contract": "contracts/ERC20Ownable.sol:ERC20Ownable",
        "label": "_symbol",
        "offset": 0,
        "slot": "4",
        "type": "t_string_storage"
      },
      {
        "astId": 7,
        "contract": "contracts/ERC20Ownable.sol:ERC20Ownable",
        "label": "_owner",
        "offset": 0,
        "slot": "5",
        "type": "t_address"
      },
      {
        "astId": 158,
        "contract": "contracts/ERC20Ownable.sol:ERC20Ownable",
        "label": "_paused",
        "offset": 20,
        "slot": "5",
        "type": "t_bool"
      },
      {
        "astId": 4348,
        "contract": "contracts/ERC20Ownable.sol:ERC20Ownable",
        "label": "factory",
        "offset": 0,
        "slot": "6",
        "type": "t_address"
      },
      {
        "astId": 4350,
        "contract": "contracts/ERC20Ownable.sol:ERC20Ownable",
        "label": "linkedNFT",
        "offset": 0,
        "slot": "7",
        "type": "t_address"
      },
      {
        "astId": 4352,
        "contract": "contracts/ERC20Ownable.sol:ERC20Ownable",
        "label": "linkedNFTId",
        "offset": 0,
        "slot": "8",
        "type": "t_uint256"
      },
      {
        "astId": 4354,
        "contract": "contracts/ERC20Ownable.sol:ERC20Ownable",
        "label": "status",
        "offset": 0,
        "slot": "9",
        "type": "t_string_storage"
      },
      {
        "astId": 4357,
        "contract": "contracts/ERC20Ownable.sol:ERC20Ownable",
        "label": "locked",
        "offset": 0,
        "slot": "10",
        "type": "t_bool"
      },
      {
        "astId": 4359,
        "contract": "contracts/ERC20Ownable.sol:ERC20Ownable",
        "label": "_customName",
        "offset": 0,
        "slot": "11",
        "type": "t_string_storage"
      },
      {
        "astId": 4361,
        "contract": "contracts/ERC20Ownable.sol:ERC20Ownable",
        "label": "_customSymbol",
        "offset": 0,
        "slot": "12",
        "type": "t_string_storage"
      }
    ],
    "types": {
      "t_address": {
        "encoding": "inplace",
        "label": "address",
        "numberOfBytes": "20"
      },
      "t_bool": {
        "encoding": "inplace",
        "label": "bool",
        "numberOfBytes": "1"
      },
      "t_mapping(t_address,t_mapping(t_address,t_uint256))": {
        "encoding": "mapping",
        "key": "t_address",
        "label": "mapping(address => mapping(address => uint256))",
        "numberOfBytes": "32",
        "value": "t_mapping(t_address,t_uint256)"
      },
      "t_mapping(t_address,t_uint256)": {
        "encoding": "mapping",
        "key": "t_address",
        "label": "mapping(address => uint256)",
        "numberOfBytes": "32",
        "value": "t_uint256"
      },
      "t_string_storage": {
        "encoding": "bytes",
        "label": "string",
        "numberOfBytes": "32"
      },
      "t_uint256": {
        "encoding": "inplace",
        "label": "uint256",
        "numberOfBytes": "32"
      }
    }
  }
}