{
  "address": "0x4aa7c59d0B2CB2976A9610f17a784b8839C26505",
  "abi": [
    {
      "inputs": [
        {
          "internalType": "string",
          "name": "_name",
          "type": "string"
        }
      ],
      "stateMutability": "nonpayable",
      "type": "constructor"
    },
    {
      "anonymous": false,
      "inputs": [
        {
          "indexed": true,
          "internalType": "address",
          "name": "previousOwner",
          "type": "address"
        },
        {
          "indexed": true,
          "internalType": "address",
          "name": "newOwner",
          "type": "address"
        }
      ],
      "name": "OwnershipTransferred",
      "type": "event"
    },
    {
      "anonymous": false,
      "inputs": [
        {
          "indexed": true,
          "internalType": "address",
          "name": "owner",
          "type": "address"
        },
        {
          "indexed": false,
          "internalType": "address",
          "name": "token",
          "type": "address"
        }
      ],
      "name": "TokenCreated",
      "type": "event"
    },
    {
      "anonymous": false,
      "inputs": [
        {
          "indexed": true,
          "internalType": "address",
          "name": "token",
          "type": "address"
        }
      ],
      "name": "TokenLocked",
      "type": "event"
    },
    {
      "anonymous": false,
      "inputs": [
        {
          "indexed": true,
          "internalType": "address",
          "name": "oldOwner",
          "type": "address"
        },
        {
          "indexed": true,
          "internalType": "address",
          "name": "newOwner",
          "type": "address"
        },
        {
          "indexed": false,
          "internalType": "address",
          "name": "token",
          "type": "address"
        }
      ],
      "name": "TokenOwnershipUpdated",
      "type": "event"
    },
    {
      "anonymous": false,
      "inputs": [
        {
          "indexed": true,
          "internalType": "address",
          "name": "token",
          "type": "address"
        }
      ],
      "name": "TokenUnlocked",
      "type": "event"
    },
    {
      "inputs": [
        {
          "internalType": "uint256",
          "name": "",
          "type": "uint256"
        }
      ],
      "name": "allTokens",
      "outputs": [
        {
          "internalType": "address",
          "name": "",
          "type": "address"
        }
      ],
      "stateMutability": "view",
      "type": "function"
    },
    {
      "inputs": [
        {
          "internalType": "string",
          "name": "name_",
          "type": "string"
        },
        {
          "internalType": "string",
          "name": "symbol_",
          "type": "string"
        },
        {
          "internalType": "address",
          "name": "tokenOwner_",
          "type": "address"
        },
        {
          "internalType": "address",
          "name": "associatedNFT_",
          "type": "address"
        },
        {
          "internalType": "uint256",
          "name": "associatedNFTId_",
          "type": "uint256"
        },
        {
          "internalType": "address[]",
          "name": "membersToFund",
          "type": "address[]"
        },
        {
          "internalType": "uint256[]",
          "name": "amountsToFund",
          "type": "uint256[]"
        }
      ],
      "name": "createToken",
      "outputs": [
        {
          "internalType": "address",
          "name": "",
          "type": "address"
        }
      ],
      "stateMutability": "nonpayable",
      "type": "function"
    },
    {
      "inputs": [],
      "name": "getAllTokens",
      "outputs": [
        {
          "internalType": "address[]",
          "name": "",
          "type": "address[]"
        }
      ],
      "stateMutability": "view",
      "type": "function"
    },
    {
      "inputs": [
        {
          "internalType": "address",
          "name": "owner",
          "type": "address"
        }
      ],
      "name": "getTokensByOwner",
      "outputs": [
        {
          "internalType": "address[]",
          "name": "",
          "type": "address[]"
        }
      ],
      "stateMutability": "view",
      "type": "function"
    },
    {
      "inputs": [
        {
          "internalType": "address",
          "name": "token",
          "type": "address"
        }
      ],
      "name": "lockToken",
      "outputs": [],
      "stateMutability": "nonpayable",
      "type": "function"
    },
    {
      "inputs": [],
      "name": "name",
      "outputs": [
        {
          "internalType": "string",
          "name": "",
          "type": "string"
        }
      ],
      "stateMutability": "view",
      "type": "function"
    },
    {
      "inputs": [
        {
          "internalType": "address",
          "name": "oldOwner",
          "type": "address"
        },
        {
          "internalType": "address",
          "name": "newOwner",
          "type": "address"
        }
      ],
      "name": "notifyOwnershipChange",
      "outputs": [],
      "stateMutability": "nonpayable",
      "type": "function"
    },
    {
      "inputs": [],
      "name": "owner",
      "outputs": [
        {
          "internalType": "address",
          "name": "",
          "type": "address"
        }
      ],
      "stateMutability": "view",
      "type": "function"
    },
    {
      "inputs": [],
      "name": "renounceOwnership",
      "outputs": [],
      "stateMutability": "nonpayable",
      "type": "function"
    },
    {
      "inputs": [
        {
          "internalType": "address",
          "name": "",
          "type": "address"
        },
        {
          "internalType": "uint256",
          "name": "",
          "type": "uint256"
        }
      ],
      "name": "tokensByOwner",
      "outputs": [
        {
          "internalType": "address",
          "name": "",
          "type": "address"
        }
      ],
      "stateMutability": "view",
      "type": "function"
    },
    {
      "inputs": [
        {
          "internalType": "address",
          "name": "newOwner",
          "type": "address"
        }
      ],
      "name": "transferOwnership",
      "outputs": [],
      "stateMutability": "nonpayable",
      "type": "function"
    },
    {
      "inputs": [
        {
          "internalType": "address",
          "name": "token",
          "type": "address"
        }
      ],
      "name": "unlockToken",
      "outputs": [],
      "stateMutability": "nonpayable",
      "type": "function"
    },
    {
      "inputs": [
        {
          "internalType": "address",
          "name": "token",
          "type": "address"
        },
        {
          "internalType": "address",
          "name": "newOwner",
          "type": "address"
        }
      ],
      "name": "updateTokenOwnership",
      "outputs": [],
      "stateMutability": "nonpayable",
      "type": "function"
    }
  ],
  "transactionHash": "0xac335d95d45e6e481167c5bcd302513e714fbadd10d09a5afbd0fa8029f103e6",
  "args": [
    "ERC20Factory"
  ],
  "numDeployments": 1,
  "solcInputHash": "bcbee152721b6562bc1a3c5f22698cb7",
  "bytecode": "0x60806040523480156200001157600080fd5b50604051620035f4380380620035f48339810160408190526200003491620001a7565b6200003f3362000060565b6200004a33620000b0565b60016200005882826200030b565b5050620003d7565b600080546001600160a01b038381166001600160a01b0319831681178455604051919092169283917f8be0079c531659141344cd1fd0a4f28419497f9722a3daafe3b4186f6b6457e09190a35050565b620000ba62000133565b6001600160a01b038116620001255760405162461bcd60e51b815260206004820152602660248201527f4f776e61626c653a206e6577206f776e657220697320746865207a65726f206160448201526564647265737360d01b60648201526084015b60405180910390fd5b620001308162000060565b50565b6000546001600160a01b031633146200018f5760405162461bcd60e51b815260206004820181905260248201527f4f776e61626c653a2063616c6c6572206973206e6f7420746865206f776e657260448201526064016200011c565b565b634e487b7160e01b600052604160045260246000fd5b60006020808385031215620001bb57600080fd5b82516001600160401b0380821115620001d357600080fd5b818501915085601f830112620001e857600080fd5b815181811115620001fd57620001fd62000191565b604051601f8201601f19908116603f0116810190838211818310171562000228576200022862000191565b8160405282815288868487010111156200024157600080fd5b600093505b8284101562000265578484018601518185018701529285019262000246565b600086848301015280965050505050505092915050565b600181811c908216806200029157607f821691505b602082108103620002b257634e487b7160e01b600052602260045260246000fd5b50919050565b601f8211156200030657600081815260208120601f850160051c81016020861015620002e15750805b601f850160051c820191505b818110156200030257828155600101620002ed565b5050505b505050565b81516001600160401b0381111562000327576200032762000191565b6200033f816200033884546200027c565b84620002b8565b602080601f8311600181146200037757600084156200035e5750858301515b600019600386901b1c1916600185901b17855562000302565b600085815260208120601f198616915b82811015620003a85788860151825594840194600190910190840162000387565b5085821015620003c75787850151600019600388901b60f8161c191681555b5050505050600190811b01905550565b61320d80620003e76000396000f3fe60806040523480156200001157600080fd5b5060043610620000be5760003560e01c806306fdde0314620000c357806310693fcd14620000e55780632a5c792a14620000fe5780633310180b146200011757806340398d67146200013d578063634282af1462000154578063653db54a146200016b578063715018a614620001825780638da5cb5b146200018c5780639ef2017b146200019e578063da795ef714620001b5578063de6be16614620001cc578063f2fde38b14620001e3575b600080fd5b620000cd620001fa565b604051620000dc919062000d8e565b60405180910390f35b620000fc620000f636600462000dd2565b62000290565b005b62000108620003c7565b604051620000dc919062000e38565b6200012e6200012836600462001012565b6200042b565b604051620000dc9190620010fa565b620001086200014e36600462000dd2565b6200053d565b6200012e620001653660046200110e565b620005b5565b6200012e6200017c36600462001128565b620005e0565b620000fc62000619565b6000546001600160a01b03166200012e565b620000fc620001af36600462000dd2565b62000631565b620000fc620001c636600462001157565b6200075f565b620000fc620001dd36600462001157565b620008df565b620000fc620001f436600462000dd2565b62000a57565b60018054620002099062001195565b80601f0160208091040260200160405190810160405280929190818152602001828054620002379062001195565b8015620002885780601f106200025c5761010080835404028352916020019162000288565b820191906000526020600020905b8154815290600101906020018083116200026a57829003601f168201915b505050505081565b6200029a62000ad6565b306001600160a01b0316816001600160a01b031663c45a01556040518163ffffffff1660e01b8152600401602060405180830381865afa158015620002e3573d6000803e3d6000fd5b505050506040513d601f19601f82011682018060405250810190620003099190620011d1565b6001600160a01b0316146200033b5760405162461bcd60e51b81526004016200033290620011f1565b60405180910390fd5b806001600160a01b031663f83d08ba6040518163ffffffff1660e01b8152600401600060405180830381600087803b1580156200037757600080fd5b505af11580156200038c573d6000803e3d6000fd5b50506040516001600160a01b03841692507fca1b0a14e18ada4c44846768dd186e35630cdc5cfeaca83c404ae4acaafbecd79150600090a250565b606060038054806020026020016040519081016040528092919081815260200182805480156200042157602002820191906000526020600020905b81546001600160a01b0316815260019091019060200180831162000402575b5050505050905090565b6000808888883089898989604051620004449062000d38565b6200045798979695949392919062001218565b604051809103906000f08015801562000474573d6000803e3d6000fd5b506001600160a01b03808916600081815260026020908152604080832080546001818101835591855292842090920180549587166001600160a01b031996871681179091556003805493840181559093527fc2575a0e9e593c00f959f8c92f12db2869c3395a3b0502d05e2516446f71f85b90910180549094169091179092559051919250907fd5f9bdf12adf29dab0248c349842c3822d53ae2bb4f36352f301630d018c81399062000529908490620010fa565b60405180910390a298975050505050505050565b6001600160a01b038116600090815260026020908152604091829020805483518184028101840190945280845260609392830182828015620005a957602002820191906000526020600020905b81546001600160a01b031681526001909101906020018083116200058a575b50505050509050919050565b60038181548110620005c657600080fd5b6000918252602090912001546001600160a01b0316905081565b60026020528160005260406000208181548110620005fd57600080fd5b6000918252602090912001546001600160a01b03169150829050565b6200062362000ad6565b6200062f600062000b32565b565b6200063b62000ad6565b306001600160a01b0316816001600160a01b031663c45a01556040518163ffffffff1660e01b8152600401602060405180830381865afa15801562000684573d6000803e3d6000fd5b505050506040513d601f19601f82011682018060405250810190620006aa9190620011d1565b6001600160a01b031614620006d35760405162461bcd60e51b81526004016200033290620011f1565b806001600160a01b031663a69df4b56040518163ffffffff1660e01b8152600401600060405180830381600087803b1580156200070f57600080fd5b505af115801562000724573d6000803e3d6000fd5b50506040516001600160a01b03841692507f81ec08d3372506e176c49e626d8beb7e091712ef92908a130f4ccc6524fe2eec9150600090a250565b6200076962000ad6565b306001600160a01b0316826001600160a01b031663c45a01556040518163ffffffff1660e01b8152600401602060405180830381865afa158015620007b2573d6000803e3d6000fd5b505050506040513d601f19601f82011682018060405250810190620007d89190620011d1565b6001600160a01b031614620008015760405162461bcd60e51b81526004016200033290620011f1565b6000826001600160a01b0316638da5cb5b6040518163ffffffff1660e01b8152600401602060405180830381865afa15801562000842573d6000803e3d6000fd5b505050506040513d601f19601f82011682018060405250810190620008689190620011d1565b60405163f2fde38b60e01b81529091506001600160a01b0384169063f2fde38b9062000899908590600401620010fa565b600060405180830381600087803b158015620008b457600080fd5b505af1158015620008c9573d6000803e3d6000fd5b50505050620008da83828462000b82565b505050565b306001600160a01b0316336001600160a01b031663c45a01556040518163ffffffff1660e01b8152600401602060405180830381865afa15801562000928573d6000803e3d6000fd5b505050506040513d601f19601f820116820180604052508101906200094e9190620011d1565b6001600160a01b031614620009975760405162461bcd60e51b815260206004820152600e60248201526d24b73b30b634b21031b0b63632b960911b604482015260640162000332565b6000805b60035481101562000a0057336001600160a01b031660038281548110620009c657620009c6620012cb565b6000918252602090912001546001600160a01b031603620009eb576001915062000a00565b80620009f781620012f7565b9150506200099b565b508062000a4a57600380546001810182556000919091527fc2575a0e9e593c00f959f8c92f12db2869c3395a3b0502d05e2516446f71f85b0180546001600160a01b031916331790555b620008da33848462000b82565b62000a6162000ad6565b6001600160a01b03811662000ac85760405162461bcd60e51b815260206004820152602660248201527f4f776e61626c653a206e6577206f776e657220697320746865207a65726f206160448201526564647265737360d01b606482015260840162000332565b62000ad38162000b32565b50565b6000546001600160a01b031633146200062f5760405162461bcd60e51b815260206004820181905260248201527f4f776e61626c653a2063616c6c6572206973206e6f7420746865206f776e6572604482015260640162000332565b600080546001600160a01b038381166001600160a01b0319831681178455604051919092169283917f8be0079c531659141344cd1fd0a4f28419497f9722a3daafe3b4186f6b6457e09190a35050565b6001600160a01b0382166000908152600260205260408120905b815481101562000cb657846001600160a01b031682828154811062000bc55762000bc5620012cb565b6000918252602090912001546001600160a01b03160362000ca1578154829062000bf29060019062001313565b8154811062000c055762000c05620012cb565b9060005260206000200160009054906101000a90046001600160a01b031682828154811062000c385762000c38620012cb565b9060005260206000200160006101000a8154816001600160a01b0302191690836001600160a01b031602179055508180548062000c795762000c796200132f565b600082815260209020810160001990810180546001600160a01b031916905501905562000cb6565b8062000cad81620012f7565b91505062000b9c565b506001600160a01b0382811660008181526002602090815260408083208054600181018255908452919092200180546001600160a01b0319168885161790555190918516907fee0181bcf4732fe459f61fad31a89b2ceedea7866352da626ba14018d8e738b89062000d2a908890620010fa565b60405180910390a350505050565b611e92806200134683390190565b6000815180845260005b8181101562000d6e5760208185018101518683018201520162000d50565b506000602082860101526020601f19601f83011685010191505092915050565b60208152600062000da3602083018462000d46565b9392505050565b6001600160a01b038116811462000ad357600080fd5b803562000dcd8162000daa565b919050565b60006020828403121562000de557600080fd5b813562000da38162000daa565b600081518084526020808501945080840160005b8381101562000e2d5781516001600160a01b03168752958201959082019060010162000e06565b509495945050505050565b60208152600062000da3602083018462000df2565b634e487b7160e01b600052604160045260246000fd5b604051601f8201601f191681016001600160401b038111828210171562000e8e5762000e8e62000e4d565b604052919050565b600082601f83011262000ea857600080fd5b81356001600160401b0381111562000ec45762000ec462000e4d565b62000ed9601f8201601f191660200162000e63565b81815284602083860101111562000eef57600080fd5b816020850160208301376000918101602001919091529392505050565b60006001600160401b0382111562000f285762000f2862000e4d565b5060051b60200190565b600082601f83011262000f4457600080fd5b8135602062000f5d62000f578362000f0c565b62000e63565b82815260059290921b8401810191818101908684111562000f7d57600080fd5b8286015b8481101562000fa557803562000f978162000daa565b835291830191830162000f81565b509695505050505050565b600082601f83011262000fc257600080fd5b8135602062000fd562000f578362000f0c565b82815260059290921b8401810191818101908684111562000ff557600080fd5b8286015b8481101562000fa5578035835291830191830162000ff9565b600080600080600080600060e0888a0312156200102e57600080fd5b87356001600160401b03808211156200104657600080fd5b620010548b838c0162000e96565b985060208a01359150808211156200106b57600080fd5b620010798b838c0162000e96565b97506200108960408b0162000dc0565b96506200109960608b0162000dc0565b955060808a0135945060a08a0135915080821115620010b757600080fd5b620010c58b838c0162000f32565b935060c08a0135915080821115620010dc57600080fd5b50620010eb8a828b0162000fb0565b91505092959891949750929550565b6001600160a01b0391909116815260200190565b6000602082840312156200112157600080fd5b5035919050565b600080604083850312156200113c57600080fd5b8235620011498162000daa565b946020939093013593505050565b600080604083850312156200116b57600080fd5b8235620011788162000daa565b915060208301356200118a8162000daa565b809150509250929050565b600181811c90821680620011aa57607f821691505b602082108103620011cb57634e487b7160e01b600052602260045260246000fd5b50919050565b600060208284031215620011e457600080fd5b815162000da38162000daa565b6020808252600d908201526c24b73b30b634b2103a37b5b2b760991b604082015260600190565b60006101008083526200122e8184018c62000d46565b905060208382038185015262001245828c62000d46565b6001600160a01b038b811660408701528a811660608701528916608086015260a0850188905284810360c0860152915062001281828762000df2565b84810360e0860152855180825282870193509082019060005b81811015620012b8578451835293830193918301916001016200129a565b50909d9c50505050505050505050505050565b634e487b7160e01b600052603260045260246000fd5b634e487b7160e01b600052601160045260246000fd5b6000600182016200130c576200130c620012e1565b5060010190565b81810381811115620013295762001329620012e1565b92915050565b634e487b7160e01b600052603160045260246000fdfe6080604052600a805460ff191690553480156200001b57600080fd5b5060405162001e9238038062001e928339810160408190526200003e9162000696565b878760036200004e83826200081f565b5060046200005d82826200081f565b5050506200007a62000074620001e460201b60201c565b620001e8565b6005805460ff60a01b191690556200009286620002b9565b8051825114620000e95760405162461bcd60e51b815260206004820152601860248201527f4d69736d61746368656420696e707574206c656e67746873000000000000000060448201526064015b60405180910390fd5b60408051808201909152600681526561637469766560d01b60208201526009906200011590826200081f565b50600680546001600160a01b038088166001600160a01b03199283161790925560078054928716929091169190911790556008839055600b6200015989826200081f565b50600c6200016888826200081f565b5060005b8251811015620001d557620001c08382815181106200018f576200018f620008eb565b6020026020010151838381518110620001ac57620001ac620008eb565b60200260200101516200033860201b60201c565b80620001cc8162000917565b9150506200016c565b5050505050505050506200094f565b3390565b6000620001fd6005546001600160a01b031690565b90506200020a82620003fb565b6006546001600160a01b0316156200028657600654604051636f35f0b360e11b81526001600160a01b03838116600483015284811660248301529091169063de6be16690604401600060405180830381600087803b1580156200026c57600080fd5b505af115801562000281573d6000803e3d6000fd5b505050505b816001600160a01b0316816001600160a01b031660008051602062001e7283398151915260405160405180910390a35050565b620002c36200043c565b6001600160a01b0381166200032a5760405162461bcd60e51b815260206004820152602660248201527f4f776e61626c653a206e6577206f776e657220697320746865207a65726f206160448201526564647265737360d01b6064820152608401620000e0565b6200033581620001e8565b50565b6001600160a01b038216620003905760405162461bcd60e51b815260206004820152601f60248201527f45524332303a206d696e7420746f20746865207a65726f2061646472657373006044820152606401620000e0565b8060026000828254620003a4919062000933565b90915550506001600160a01b038216600081815260208181526040808320805486019055518481527fddf252ad1be2c89b69c2b068fc378daa952ba7f163c4a11628f55a4df523b3ef910160405180910390a35050565b600580546001600160a01b038381166001600160a01b03198316811790935560405191169190829060008051602062001e7283398151915290600090a35050565b6005546001600160a01b03163314620004985760405162461bcd60e51b815260206004820181905260248201527f4f776e61626c653a2063616c6c6572206973206e6f7420746865206f776e65726044820152606401620000e0565b565b505050565b634e487b7160e01b600052604160045260246000fd5b604051601f8201601f191681016001600160401b0381118282101715620004e057620004e06200049f565b604052919050565b600082601f830112620004fa57600080fd5b81516001600160401b038111156200051657620005166200049f565b60206200052c601f8301601f19168201620004b5565b82815285828487010111156200054157600080fd5b60005b838110156200056157858101830151828201840152820162000544565b506000928101909101919091529392505050565b80516001600160a01b03811681146200058d57600080fd5b919050565b60006001600160401b03821115620005ae57620005ae6200049f565b5060051b60200190565b600082601f830112620005ca57600080fd5b81516020620005e3620005dd8362000592565b620004b5565b82815260059290921b840181019181810190868411156200060357600080fd5b8286015b8481101562000629576200061b8162000575565b835291830191830162000607565b509695505050505050565b600082601f8301126200064657600080fd5b8151602062000659620005dd8362000592565b82815260059290921b840181019181810190868411156200067957600080fd5b8286015b848110156200062957805183529183019183016200067d565b600080600080600080600080610100898b031215620006b457600080fd5b88516001600160401b0380821115620006cc57600080fd5b620006da8c838d01620004e8565b995060208b0151915080821115620006f157600080fd5b620006ff8c838d01620004e8565b98506200070f60408c0162000575565b97506200071f60608c0162000575565b96506200072f60808c0162000575565b955060a08b0151945060c08b01519150808211156200074d57600080fd5b6200075b8c838d01620005b8565b935060e08b01519150808211156200077257600080fd5b50620007818b828c0162000634565b9150509295985092959890939650565b600181811c90821680620007a657607f821691505b602082108103620007c757634e487b7160e01b600052602260045260246000fd5b50919050565b601f8211156200049a57600081815260208120601f850160051c81016020861015620007f65750805b601f850160051c820191505b81811015620008175782815560010162000802565b505050505050565b81516001600160401b038111156200083b576200083b6200049f565b62000853816200084c845462000791565b84620007cd565b602080601f8311600181146200088b5760008415620008725750858301515b600019600386901b1c1916600185901b17855562000817565b600085815260208120601f198616915b82811015620008bc578886015182559484019460019091019084016200089b565b5085821015620008db5787850151600019600388901b60f8161c191681555b5050505050600190811b01905550565b634e487b7160e01b600052603260045260246000fd5b634e487b7160e01b600052601160045260246000fd5b6000600182016200092c576200092c62000901565b5060010190565b8082018082111562000949576200094962000901565b92915050565b611513806200095f6000396000f3fe608060405234801561001057600080fd5b50600436106101645760003560e01c806386a5ff97116100c957806386a5ff97146102765780638da5cb5b1461028957806395d89b41146102a95780639dc29fac146102b1578063a3895fff146102c4578063a457c2d7146102d7578063a69df4b5146102ea578063a9059cbb146102f2578063ab1ef54214610305578063c45a015514610318578063cf3090121461032b578063dd62ed3e14610338578063f2fde38b1461034b578063f83d08ba1461035e57600080fd5b806306fdde0314610169578063095ea7b31461018757806318160ddd146101aa578063200d2ed2146101bc57806323b872dd146101c45780632fefeaa5146101d7578063313ce567146101e057806339509351146101ef57806340c10f191461020257806340e0e9e2146102175780635353a2d81461022a5780635c975abb1461023d57806370a0823114610245578063715018a61461026e575b600080fd5b610171610366565b60405161017e919061113c565b60405180910390f35b61019a6101953660046111a6565b6103f8565b604051901515815260200161017e565b6002545b60405190815260200161017e565b610171610412565b61019a6101d23660046111d0565b6104a0565b6101ae60085481565b6040516012815260200161017e565b61019a6101fd3660046111a6565b6104c4565b6102156102103660046111a6565b6104e6565b005b6102156102253660046111a6565b610573565b610215610238366004611222565b6105f9565b61019a610673565b6101ae6102533660046112d3565b6001600160a01b031660009081526020819052604090205490565b610215610683565b610215610284366004611222565b610697565b610291610706565b6040516001600160a01b03909116815260200161017e565b610171610715565b6102156102bf3660046111a6565b610724565b6102156102d2366004611222565b61079c565b61019a6102e53660046111a6565b61080b565b610215610886565b61019a6103003660046111a6565b61090f565b600754610291906001600160a01b031681565b600654610291906001600160a01b031681565b600a5461019a9060ff1681565b6101ae6103463660046112f5565b61091d565b6102156103593660046112d3565b610948565b6102156109c1565b6060600b805461037590611328565b80601f01602080910402602001604051908101604052809291908181526020018280546103a190611328565b80156103ee5780601f106103c3576101008083540402835291602001916103ee565b820191906000526020600020905b8154815290600101906020018083116103d157829003601f168201915b5050505050905090565b600033610406818585610a76565b60019150505b92915050565b6009805461041f90611328565b80601f016020809104026020016040519081016040528092919081815260200182805461044b90611328565b80156104985780601f1061046d57610100808354040283529160200191610498565b820191906000526020600020905b81548152906001019060200180831161047b57829003601f168201915b505050505081565b6000336104ae858285610b9b565b6104b9858585610c15565b506001949350505050565b6000336104068185856104d7838361091d565b6104e19190611362565b610a76565b6104ee610da7565b600a5460ff161561051a5760405162461bcd60e51b815260040161051190611383565b60405180910390fd5b610522610e06565b61052c8282610e4e565b816001600160a01b03167f3f2c9d57c068687834f0de942a9babb9e5acab57d516d3480a3c16ee165a42738260405161056791815260200190565b60405180910390a25050565b61057b610da7565b600a5460ff161561059e5760405162461bcd60e51b815260040161051190611383565b6105a6610e06565b600780546001600160a01b0319166001600160a01b03841690811790915560088290556040518281527f1282c4517184314a9fefed3cc7aa634a069ae13636b3a5126d2ecdd66d912c3290602001610567565b610601610da7565b600a5460ff16156106245760405162461bcd60e51b815260040161051190611383565b61062c610e06565b600b61063882826113fd565b507f4737457377f528cc8afd815f73ecb8b05df80d047dbffc41c17750a4033592bc81604051610668919061113c565b60405180910390a150565b600554600160a01b900460ff1690565b61068b610da7565b6106956000610efb565b565b61069f610da7565b600a5460ff16156106c25760405162461bcd60e51b815260040161051190611383565b6106ca610e06565b60096106d682826113fd565b507fea6f92f49f3f6b3faa4cb02c9366b537e5c42ee43006fb8f18fb7a3ecb6c6a9281604051610668919061113c565b6005546001600160a01b031690565b6060600c805461037590611328565b61072c610da7565b600a5460ff161561074f5760405162461bcd60e51b815260040161051190611383565b610757610e06565b6107618282610fcd565b816001600160a01b03167ffd38818f5291bf0bb3a2a48aadc06ba8757865d1dabd804585338aab3009dcb68260405161056791815260200190565b6107a4610da7565b600a5460ff16156107c75760405162461bcd60e51b815260040161051190611383565b6107cf610e06565b600c6107db82826113fd565b507f57c940aa14b51ea5f96b7a2bea757ce355d996e2c5d7a3c68aff1c75a326269b81604051610668919061113c565b60003381610819828661091d565b9050838110156108795760405162461bcd60e51b815260206004820152602560248201527f45524332303a2064656372656173656420616c6c6f77616e63652062656c6f77604482015264207a65726f60d81b6064820152608401610511565b6104b98286868403610a76565b6006546001600160a01b031633146108da5760405162461bcd60e51b81526020600482015260176024820152764f6e6c7920666163746f72792063616e20756e6c6f636b60481b6044820152606401610511565b600a805460ff191690556040517f19aad37188a1d3921e29eb3c66acf43d81975e107cb650d58cca878627955fd690600090a1565b600033610406818585610c15565b6001600160a01b03918216600090815260016020908152604080832093909416825291909152205490565b610950610da7565b6001600160a01b0381166109b55760405162461bcd60e51b815260206004820152602660248201527f4f776e61626c653a206e6577206f776e657220697320746865207a65726f206160448201526564647265737360d01b6064820152608401610511565b6109be81610efb565b50565b6006546001600160a01b03163314806109f257506109dd610706565b6001600160a01b0316336001600160a01b0316145b610a3e5760405162461bcd60e51b815260206004820152601e60248201527f4f6e6c7920666163746f7279206f72206f776e65722063616e206c6f636b00006044820152606401610511565b600a805460ff191660011790556040517f0f2e5b6c72c6a4491efd919a9f9a409f324ef0708c11ee57d410c2cb06c0992b90600090a1565b6001600160a01b038316610ad85760405162461bcd60e51b8152602060048201526024808201527f45524332303a20617070726f76652066726f6d20746865207a65726f206164646044820152637265737360e01b6064820152608401610511565b6001600160a01b038216610b395760405162461bcd60e51b815260206004820152602260248201527f45524332303a20617070726f766520746f20746865207a65726f206164647265604482015261737360f01b6064820152608401610511565b6001600160a01b0383811660008181526001602090815260408083209487168084529482529182902085905590518481527f8c5be1e5ebec7d5bd14f71427d1e84f3dd0314c0f7b2291e5b200ac8c7c3b92591015b60405180910390a3505050565b6000610ba7848461091d565b90506000198114610c0f5781811015610c025760405162461bcd60e51b815260206004820152601d60248201527f45524332303a20696e73756666696369656e7420616c6c6f77616e63650000006044820152606401610511565b610c0f8484848403610a76565b50505050565b6001600160a01b038316610c795760405162461bcd60e51b815260206004820152602560248201527f45524332303a207472616e736665722066726f6d20746865207a65726f206164604482015264647265737360d81b6064820152608401610511565b6001600160a01b038216610cdb5760405162461bcd60e51b815260206004820152602360248201527f45524332303a207472616e7366657220746f20746865207a65726f206164647260448201526265737360e81b6064820152608401610511565b6001600160a01b03831660009081526020819052604090205481811015610d535760405162461bcd60e51b815260206004820152602660248201527f45524332303a207472616e7366657220616d6f756e7420657863656564732062604482015265616c616e636560d01b6064820152608401610511565b6001600160a01b03848116600081815260208181526040808320878703905593871680835291849020805487019055925185815290926000805160206114be833981519152910160405180910390a3610c0f565b33610db0610706565b6001600160a01b0316146106955760405162461bcd60e51b815260206004820181905260248201527f4f776e61626c653a2063616c6c6572206973206e6f7420746865206f776e65726044820152606401610511565b610e0e610673565b156106955760405162461bcd60e51b815260206004820152601060248201526f14185d5cd8589b194e881c185d5cd95960821b6044820152606401610511565b6001600160a01b038216610ea45760405162461bcd60e51b815260206004820152601f60248201527f45524332303a206d696e7420746f20746865207a65726f2061646472657373006044820152606401610511565b8060026000828254610eb69190611362565b90915550506001600160a01b038216600081815260208181526040808320805486019055518481526000805160206114be833981519152910160405180910390a35050565b6000610f05610706565b9050610f10826110ea565b6006546001600160a01b031615610f8957600654604051636f35f0b360e11b81526001600160a01b03838116600483015284811660248301529091169063de6be16690604401600060405180830381600087803b158015610f7057600080fd5b505af1158015610f84573d6000803e3d6000fd5b505050505b816001600160a01b0316816001600160a01b03167f8be0079c531659141344cd1fd0a4f28419497f9722a3daafe3b4186f6b6457e060405160405180910390a35050565b6001600160a01b03821661102d5760405162461bcd60e51b815260206004820152602160248201527f45524332303a206275726e2066726f6d20746865207a65726f206164647265736044820152607360f81b6064820152608401610511565b6001600160a01b038216600090815260208190526040902054818110156110a15760405162461bcd60e51b815260206004820152602260248201527f45524332303a206275726e20616d6f756e7420657863656564732062616c616e604482015261636560f01b6064820152608401610511565b6001600160a01b0383166000818152602081815260408083208686039055600280548790039055518581529192916000805160206114be8339815191529101610b8e565b505050565b600580546001600160a01b038381166001600160a01b0319831681179093556040519116919082907f8be0079c531659141344cd1fd0a4f28419497f9722a3daafe3b4186f6b6457e090600090a35050565b600060208083528351808285015260005b818110156111695785810183015185820160400152820161114d565b506000604082860101526040601f19601f8301168501019250505092915050565b80356001600160a01b03811681146111a157600080fd5b919050565b600080604083850312156111b957600080fd5b6111c28361118a565b946020939093013593505050565b6000806000606084860312156111e557600080fd5b6111ee8461118a565b92506111fc6020850161118a565b9150604084013590509250925092565b634e487b7160e01b600052604160045260246000fd5b60006020828403121561123457600080fd5b813567ffffffffffffffff8082111561124c57600080fd5b818401915084601f83011261126057600080fd5b8135818111156112725761127261120c565b604051601f8201601f19908116603f0116810190838211818310171561129a5761129a61120c565b816040528281528760208487010111156112b357600080fd5b826020860160208301376000928101602001929092525095945050505050565b6000602082840312156112e557600080fd5b6112ee8261118a565b9392505050565b6000806040838503121561130857600080fd5b6113118361118a565b915061131f6020840161118a565b90509250929050565b600181811c9082168061133c57607f821691505b60208210810361135c57634e487b7160e01b600052602260045260246000fd5b50919050565b8082018082111561040c57634e487b7160e01b600052601160045260246000fd5b60208082526012908201527110dbdb9d1c9858dd081a5cc81b1bd8dad95960721b604082015260600190565b601f8211156110e557600081815260208120601f850160051c810160208610156113d65750805b601f850160051c820191505b818110156113f5578281556001016113e2565b505050505050565b815167ffffffffffffffff8111156114175761141761120c565b61142b816114258454611328565b846113af565b602080601f83116001811461146057600084156114485750858301515b600019600386901b1c1916600185901b1785556113f5565b600085815260208120601f198616915b8281101561148f57888601518255948401946001909101908401611470565b50858210156114ad5787850151600019600388901b60f8161c191681555b5050505050600190811b0190555056feddf252ad1be2c89b69c2b068fc378daa952ba7f163c4a11628f55a4df523b3efa2646970667358221220b0568d5f6d6503a10090afb29c137db1365f980c6a931590baac349fcb71df2b64736f6c634300081300338be0079c531659141344cd1fd0a4f28419497f9722a3daafe3b4186f6b6457e0a26469706673582212203459b1d8d076232902dde10ce131cdf7651631f12d9eacaaf90a0d50755f204364736f6c63430008130033",
  "devdoc": {
    "kind": "dev",
    "methods": {
      "owner()": {
        "details": "Returns the address of the current owner."
      },
      "renounceOwnership()": {
        "details": "Leaves the contract without owner. It will not be possible to call `onlyOwner` functions. Can only be called by the current owner. NOTE: Renouncing ownership will leave the contract without an owner, thereby disabling any functionality that is only available to the owner."
      },
      "transferOwnership(address)": {
        "details": "Transfers ownership of the contract to a new account (`newOwner`). Can only be called by the current owner."
      }
    },
    "version": 1
  },
  "userdoc": {
    "kind": "user",
    "methods": {},
    "version": 1
  },
  "storageLayout": {
    "storage": [
      {
        "astId": 7,
        "contract": "contracts/ERC20Factory.sol:ERC20Factory",
        "label": "_owner",
        "offset": 0,
        "slot": "0",
        "type": "t_address"
      },
      {
        "astId": 3852,
        "contract": "contracts/ERC20Factory.sol:ERC20Factory",
        "label": "name",
        "offset": 0,
        "slot": "1",
        "type": "t_string_storage"
      },
      {
        "astId": 3857,
        "contract": "contracts/ERC20Factory.sol:ERC20Factory",
        "label": "tokensByOwner",
        "offset": 0,
        "slot": "2",
        "type": "t_mapping(t_address,t_array(t_address)dyn_storage)"
      },
      {
        "astId": 3860,
        "contract": "contracts/ERC20Factory.sol:ERC20Factory",
        "label": "allTokens",
        "offset": 0,
        "slot": "3",
        "type": "t_array(t_address)dyn_storage"
      }
    ],
    "types": {
      "t_address": {
        "encoding": "inplace",
        "label": "address",
        "numberOfBytes": "20"
      },
      "t_array(t_address)dyn_storage": {
        "base": "t_address",
        "encoding": "dynamic_array",
        "label": "address[]",
        "numberOfBytes": "32"
      },
      "t_mapping(t_address,t_array(t_address)dyn_storage)": {
        "encoding": "mapping",
        "key": "t_address",
        "label": "mapping(address => address[])",
        "numberOfBytes": "32",
        "value": "t_array(t_address)dyn_storage"
      },
      "t_string_storage": {
        "encoding": "bytes",
        "label": "string",
        "numberOfBytes": "32"
      }
    }
  }
}