{
  "address": "0x7Acef7EBa101Cf10cC22676f4fD6eB0646b1d71b",
  "abi": [
    {
      "inputs": [
        {
          "internalType": "string",
          "name": "_name",
          "type": "string"
        },
        {
          "internalType": "string",
          "name": "_symbol",
          "type": "string"
        }
      ],
      "stateMutability": "nonpayable",
      "type": "constructor"
    },
    {
      "anonymous": false,
      "inputs": [
        {
          "indexed": true,
          "internalType": "address",
          "name": "owner",
          "type": "address"
        },
        {
          "indexed": true,
          "internalType": "address",
          "name": "approved",
          "type": "address"
        },
        {
          "indexed": true,
          "internalType": "uint256",
          "name": "tokenId",
          "type": "uint256"
        }
      ],
      "name": "Approval",
      "type": "event"
    },
    {
      "anonymous": false,
      "inputs": [
        {
          "indexed": true,
          "internalType": "address",
          "name": "owner",
          "type": "address"
        },
        {
          "indexed": true,
          "internalType": "address",
          "name": "operator",
          "type": "address"
        },
        {
          "indexed": false,
          "internalType": "bool",
          "name": "approved",
          "type": "bool"
        }
      ],
      "name": "ApprovalForAll",
      "type": "event"
    },
    {
      "anonymous": false,
      "inputs": [
        {
          "indexed": false,
          "internalType": "uint256",
          "name": "_fromTokenId",
          "type": "uint256"
        },
        {
          "indexed": false,
          "internalType": "uint256",
          "name": "_toTokenId",
          "type": "uint256"
        }
      ],
      "name": "BatchMetadataUpdate",
      "type": "event"
    },
    {
      "anonymous": false,
      "inputs": [
        {
          "indexed": false,
          "internalType": "uint256",
          "name": "tokenId",
          "type": "uint256"
        }
      ],
      "name": "MetadataLocked",
      "type": "event"
    },
    {
      "anonymous": false,
      "inputs": [
        {
          "indexed": false,
          "internalType": "uint256",
          "name": "tokenId",
          "type": "uint256"
        }
      ],
      "name": "MetadataUnlocked",
      "type": "event"
    },
    {
      "anonymous": false,
      "inputs": [
        {
          "indexed": false,
          "internalType": "uint256",
          "name": "_tokenId",
          "type": "uint256"
        }
      ],
      "name": "MetadataUpdate",
      "type": "event"
    },
    {
      "anonymous": false,
      "inputs": [
        {
          "indexed": true,
          "internalType": "address",
          "name": "previousOwner",
          "type": "address"
        },
        {
          "indexed": true,
          "internalType": "address",
          "name": "newOwner",
          "type": "address"
        }
      ],
      "name": "OwnershipTransferred",
      "type": "event"
    },
    {
      "anonymous": false,
      "inputs": [
        {
          "indexed": false,
          "internalType": "address",
          "name": "account",
          "type": "address"
        }
      ],
      "name": "Paused",
      "type": "event"
    },
    {
      "anonymous": false,
      "inputs": [
        {
          "indexed": true,
          "internalType": "uint256",
          "name": "nftId",
          "type": "uint256"
        },
        {
          "indexed": true,
          "internalType": "address",
          "name": "tokenAddress",
          "type": "address"
        }
      ],
      "name": "TokenMinted",
      "type": "event"
    },
    {
      "anonymous": false,
      "inputs": [
        {
          "indexed": false,
          "internalType": "uint256",
          "name": "tokenId",
          "type": "uint256"
        }
      ],
      "name": "TokenPaused",
      "type": "event"
    },
    {
      "anonymous": false,
      "inputs": [
        {
          "indexed": false,
          "internalType": "uint256",
          "name": "tokenId",
          "type": "uint256"
        }
      ],
      "name": "TokenUnpaused",
      "type": "event"
    },
    {
      "anonymous": false,
      "inputs": [
        {
          "indexed": true,
          "internalType": "address",
          "name": "from",
          "type": "address"
        },
        {
          "indexed": true,
          "internalType": "address",
          "name": "to",
          "type": "address"
        },
        {
          "indexed": true,
          "internalType": "uint256",
          "name": "tokenId",
          "type": "uint256"
        }
      ],
      "name": "Transfer",
      "type": "event"
    },
    {
      "anonymous": false,
      "inputs": [
        {
          "indexed": false,
          "internalType": "address",
          "name": "account",
          "type": "address"
        }
      ],
      "name": "Unpaused",
      "type": "event"
    },
    {
      "inputs": [
        {
          "internalType": "address",
          "name": "to",
          "type": "address"
        },
        {
          "internalType": "uint256",
          "name": "tokenId",
          "type": "uint256"
        }
      ],
      "name": "approve",
      "outputs": [],
      "stateMutability": "nonpayable",
      "type": "function"
    },
    {
      "inputs": [
        {
          "internalType": "address",
          "name": "owner",
          "type": "address"
        }
      ],
      "name": "balanceOf",
      "outputs": [
        {
          "internalType": "uint256",
          "name": "",
          "type": "uint256"
        }
      ],
      "stateMutability": "view",
      "type": "function"
    },
    {
      "inputs": [
        {
          "internalType": "uint256",
          "name": "tokenId",
          "type": "uint256"
        }
      ],
      "name": "getApproved",
      "outputs": [
        {
          "internalType": "address",
          "name": "",
          "type": "address"
        }
      ],
      "stateMutability": "view",
      "type": "function"
    },
    {
      "inputs": [
        {
          "internalType": "address",
          "name": "owner",
          "type": "address"
        }
      ],
      "name": "getTokensByAddress",
      "outputs": [
        {
          "internalType": "uint256[]",
          "name": "",
          "type": "uint256[]"
        }
      ],
      "stateMutability": "view",
      "type": "function"
    },
    {
      "inputs": [
        {
          "internalType": "address",
          "name": "owner",
          "type": "address"
        },
        {
          "internalType": "address",
          "name": "operator",
          "type": "address"
        }
      ],
      "name": "isApprovedForAll",
      "outputs": [
        {
          "internalType": "bool",
          "name": "",
          "type": "bool"
        }
      ],
      "stateMutability": "view",
      "type": "function"
    },
    {
      "inputs": [],
      "name": "linkedTokenFactoryAddress",
      "outputs": [
        {
          "internalType": "address",
          "name": "",
          "type": "address"
        }
      ],
      "stateMutability": "view",
      "type": "function"
    },
    {
      "inputs": [
        {
          "internalType": "uint256",
          "name": "tokenId",
          "type": "uint256"
        }
      ],
      "name": "lock",
      "outputs": [],
      "stateMutability": "nonpayable",
      "type": "function"
    },
    {
      "inputs": [
        {
          "internalType": "address",
          "name": "to",
          "type": "address"
        },
        {
          "internalType": "string",
          "name": "tokenURI",
          "type": "string"
        },
        {
          "internalType": "address",
          "name": "existingTokenToLink",
          "type": "address"
        },
        {
          "internalType": "string[]",
          "name": "existingLinkedTokenInterfaces",
          "type": "string[]"
        },
        {
          "internalType": "string",
          "name": "name_",
          "type": "string"
        },
        {
          "internalType": "string",
          "name": "symbol_",
          "type": "string"
        },
        {
          "internalType": "address[]",
          "name": "membersToFund",
          "type": "address[]"
        },
        {
          "internalType": "uint256[]",
          "name": "amountsToFund",
          "type": "uint256[]"
        }
      ],
      "name": "mint",
      "outputs": [
        {
          "internalType": "uint256",
          "name": "",
          "type": "uint256"
        }
      ],
      "stateMutability": "nonpayable",
      "type": "function"
    },
    {
      "inputs": [],
      "name": "name",
      "outputs": [
        {
          "internalType": "string",
          "name": "",
          "type": "string"
        }
      ],
      "stateMutability": "view",
      "type": "function"
    },
    {
      "inputs": [
        {
          "internalType": "uint256",
          "name": "",
          "type": "uint256"
        }
      ],
      "name": "nftData",
      "outputs": [
        {
          "internalType": "string",
          "name": "status",
          "type": "string"
        },
        {
          "internalType": "address",
          "name": "linkedToken",
          "type": "address"
        },
        {
          "internalType": "bool",
          "name": "locked",
          "type": "bool"
        },
        {
          "internalType": "bool",
          "name": "paused",
          "type": "bool"
        }
      ],
      "stateMutability": "view",
      "type": "function"
    },
    {
      "inputs": [],
      "name": "onlyOwnerCanMint",
      "outputs": [
        {
          "internalType": "bool",
          "name": "",
          "type": "bool"
        }
      ],
      "stateMutability": "view",
      "type": "function"
    },
    {
      "inputs": [],
      "name": "owner",
      "outputs": [
        {
          "internalType": "address",
          "name": "",
          "type": "address"
        }
      ],
      "stateMutability": "view",
      "type": "function"
    },
    {
      "inputs": [
        {
          "internalType": "uint256",
          "name": "tokenId",
          "type": "uint256"
        }
      ],
      "name": "ownerOf",
      "outputs": [
        {
          "internalType": "address",
          "name": "",
          "type": "address"
        }
      ],
      "stateMutability": "view",
      "type": "function"
    },
    {
      "inputs": [],
      "name": "pauseAll",
      "outputs": [],
      "stateMutability": "nonpayable",
      "type": "function"
    },
    {
      "inputs": [
        {
          "internalType": "uint256",
          "name": "tokenId",
          "type": "uint256"
        }
      ],
      "name": "pauseToken",
      "outputs": [],
      "stateMutability": "nonpayable",
      "type": "function"
    },
    {
      "inputs": [],
      "name": "paused",
      "outputs": [
        {
          "internalType": "bool",
          "name": "",
          "type": "bool"
        }
      ],
      "stateMutability": "view",
      "type": "function"
    },
    {
      "inputs": [],
      "name": "renounceOwnership",
      "outputs": [],
      "stateMutability": "nonpayable",
      "type": "function"
    },
    {
      "inputs": [
        {
          "internalType": "address",
          "name": "from",
          "type": "address"
        },
        {
          "internalType": "address",
          "name": "to",
          "type": "address"
        },
        {
          "internalType": "uint256",
          "name": "tokenId",
          "type": "uint256"
        }
      ],
      "name": "safeTransferFrom",
      "outputs": [],
      "stateMutability": "nonpayable",
      "type": "function"
    },
    {
      "inputs": [
        {
          "internalType": "address",
          "name": "from",
          "type": "address"
        },
        {
          "internalType": "address",
          "name": "to",
          "type": "address"
        },
        {
          "internalType": "uint256",
          "name": "tokenId",
          "type": "uint256"
        },
        {
          "internalType": "bytes",
          "name": "data",
          "type": "bytes"
        }
      ],
      "name": "safeTransferFrom",
      "outputs": [],
      "stateMutability": "nonpayable",
      "type": "function"
    },
    {
      "inputs": [
        {
          "internalType": "address",
          "name": "operator",
          "type": "address"
        },
        {
          "internalType": "bool",
          "name": "approved",
          "type": "bool"
        }
      ],
      "name": "setApprovalForAll",
      "outputs": [],
      "stateMutability": "nonpayable",
      "type": "function"
    },
    {
      "inputs": [
        {
          "internalType": "address",
          "name": "newFactoryAddress",
          "type": "address"
        }
      ],
      "name": "setLinkedTokenFactory",
      "outputs": [],
      "stateMutability": "nonpayable",
      "type": "function"
    },
    {
      "inputs": [
        {
          "internalType": "bool",
          "name": "_onlyOwnerCanMint",
          "type": "bool"
        }
      ],
      "name": "setOnlyOwnerCanMint",
      "outputs": [],
      "stateMutability": "nonpayable",
      "type": "function"
    },
    {
      "inputs": [
        {
          "internalType": "bytes4",
          "name": "interfaceId",
          "type": "bytes4"
        }
      ],
      "name": "supportsInterface",
      "outputs": [
        {
          "internalType": "bool",
          "name": "",
          "type": "bool"
        }
      ],
      "stateMutability": "view",
      "type": "function"
    },
    {
      "inputs": [],
      "name": "symbol",
      "outputs": [
        {
          "internalType": "string",
          "name": "",
          "type": "string"
        }
      ],
      "stateMutability": "view",
      "type": "function"
    },
    {
      "inputs": [
        {
          "internalType": "uint256",
          "name": "tokenId",
          "type": "uint256"
        }
      ],
      "name": "tokenURI",
      "outputs": [
        {
          "internalType": "string",
          "name": "",
          "type": "string"
        }
      ],
      "stateMutability": "view",
      "type": "function"
    },
    {
      "inputs": [
        {
          "internalType": "address",
          "name": "from",
          "type": "address"
        },
        {
          "internalType": "address",
          "name": "to",
          "type": "address"
        },
        {
          "internalType": "uint256",
          "name": "tokenId",
          "type": "uint256"
        }
      ],
      "name": "transferFrom",
      "outputs": [],
      "stateMutability": "nonpayable",
      "type": "function"
    },
    {
      "inputs": [
        {
          "internalType": "address",
          "name": "newOwner",
          "type": "address"
        }
      ],
      "name": "transferOwnership",
      "outputs": [],
      "stateMutability": "nonpayable",
      "type": "function"
    },
    {
      "inputs": [
        {
          "internalType": "uint256",
          "name": "tokenId",
          "type": "uint256"
        }
      ],
      "name": "unlock",
      "outputs": [],
      "stateMutability": "nonpayable",
      "type": "function"
    },
    {
      "inputs": [],
      "name": "unpauseAll",
      "outputs": [],
      "stateMutability": "nonpayable",
      "type": "function"
    },
    {
      "inputs": [
        {
          "internalType": "uint256",
          "name": "tokenId",
          "type": "uint256"
        }
      ],
      "name": "unpauseToken",
      "outputs": [],
      "stateMutability": "nonpayable",
      "type": "function"
    },
    {
      "inputs": [
        {
          "internalType": "uint256",
          "name": "tokenId",
          "type": "uint256"
        },
        {
          "internalType": "string",
          "name": "status",
          "type": "string"
        },
        {
          "internalType": "string",
          "name": "tokenURI",
          "type": "string"
        }
      ],
      "name": "updateNFT",
      "outputs": [],
      "stateMutability": "nonpayable",
      "type": "function"
    }
  ],
  "transactionHash": "0x24f113dd35b3d717bfd0551efb5ef480a5066a5231d5f5e2356b2eb9189e75ba",
  "args": [
    "NFTFactory",
    "NFTF"
  ],
  "numDeployments": 1,
  "solcInputHash": "6eb9e5e14df5195d98bce17ad4d57941",
  "bytecode": "0x6080604052600980546001600160a81b03191690553480156200002157600080fd5b5060405162002dd938038062002dd98339810160408190526200004491620001b0565b81816000620000548382620002a9565b506001620000638282620002a9565b505050620000806200007a6200009560201b60201c565b62000099565b50506007805460ff60a01b1916905562000375565b3390565b600780546001600160a01b038381166001600160a01b0319831681179093556040519116919082907f8be0079c531659141344cd1fd0a4f28419497f9722a3daafe3b4186f6b6457e090600090a35050565b634e487b7160e01b600052604160045260246000fd5b600082601f8301126200011357600080fd5b81516001600160401b0380821115620001305762000130620000eb565b604051601f8301601f19908116603f011681019082821181831017156200015b576200015b620000eb565b816040528381526020925086838588010111156200017857600080fd5b600091505b838210156200019c57858201830151818301840152908201906200017d565b600093810190920192909252949350505050565b60008060408385031215620001c457600080fd5b82516001600160401b0380821115620001dc57600080fd5b620001ea8683870162000101565b935060208501519150808211156200020157600080fd5b50620002108582860162000101565b9150509250929050565b600181811c908216806200022f57607f821691505b6020821081036200025057634e487b7160e01b600052602260045260246000fd5b50919050565b601f821115620002a457600081815260208120601f850160051c810160208610156200027f5750805b601f850160051c820191505b81811015620002a0578281556001016200028b565b5050505b505050565b81516001600160401b03811115620002c557620002c5620000eb565b620002dd81620002d684546200021a565b8462000256565b602080601f831160018114620003155760008415620002fc5750858301515b600019600386901b1c1916600185901b178555620002a0565b600085815260208120601f198616915b82811015620003465788860151825594840194600190910190840162000325565b5085821015620003655787850151600019600388901b60f8161c191681555b5050505050600190811b01905550565b612a5480620003856000396000f3fe608060405234801561001057600080fd5b50600436106101955760003560e01c806370a08231116100ef578063a22cb46511610092578063a22cb4651461035f578063b88d4fde14610372578063c87b56dd14610385578063dd46706414610398578063e985e9c5146103ab578063f2fde38b146103be578063fbd395f8146103d1578063fda36164146103e457600080fd5b806370a08231146102e2578063715018a6146102f5578063776ab634146102fd57806385d098dc146103105780638a2ddd03146103245780638c2109751461032c5780638da5cb5b1461034f57806395d89b411461035757600080fd5b806301ffc9a71461019a57806306fdde03146101c257806307ca3645146101d7578063081812fc146101f7578063095ea7b314610217578063188dbb8f1461022c5780631bba26b31461023f57806323b872dd14610260578063281504001461027357806342842e0e14610286578063595c6a67146102995780635bb94589146102a15780635c975abb146102b45780636198e339146102bc5780636352211e146102cf575b600080fd5b6101ad6101a8366004611eb7565b6103f7565b60405190151581526020015b60405180910390f35b6101ca610422565b6040516101b99190611f24565b6101ea6101e5366004611f5c565b6104b4565b6040516101b99190611fb4565b61020a610205366004611fc7565b610520565b6040516101b99190611fe0565b61022a610225366004611ff4565b610547565b005b61022a61023a366004611f5c565b610661565b61025261024d36600461224e565b61068b565b6040519081526020016101b9565b61022a61026e366004612365565b61094f565b60095461020a906001600160a01b031681565b61022a610294366004612365565b610980565b61022a61099b565b61022a6102af3660046123b6565b6109ad565b6101ad6109d3565b61022a6102ca366004611fc7565b6109e3565b61020a6102dd366004611fc7565b610a66565b6102526102f0366004611f5c565b610a9a565b61022a610b20565b61022a61030b366004611fc7565b610b32565b6009546101ad90600160a01b900460ff1681565b61022a610c07565b61033f61033a366004611fc7565b610c17565b6040516101b994939291906123d1565b61020a610cd7565b6101ca610ce6565b61022a61036d36600461240b565b610cf5565b61022a610380366004612440565b610d04565b6101ca610393366004611fc7565b610d3c565b61022a6103a6366004611fc7565b610e4c565b6101ad6103b93660046124bf565b610f1b565b61022a6103cc366004611f5c565b610f49565b61022a6103df366004611fc7565b610fc2565b61022a6103f23660046124f8565b611093565b60006001600160e01b03198216632483248360e11b148061041c575061041c8261119d565b92915050565b60606000805461043190612564565b80601f016020809104026020016040519081016040528092919081815260200182805461045d90612564565b80156104aa5780601f1061047f576101008083540402835291602001916104aa565b820191906000526020600020905b81548152906001019060200180831161048d57829003601f168201915b5050505050905090565b6001600160a01b0381166000908152600b602090815260409182902080548351818402810184019094528084526060939283018282801561051457602002820191906000526020600020905b815481526020019060010190808311610500575b50505050509050919050565b600061052b826111ed565b506000908152600460205260409020546001600160a01b031690565b600061055282610a66565b9050806001600160a01b0316836001600160a01b0316036105c45760405162461bcd60e51b815260206004820152602160248201527f4552433732313a20617070726f76616c20746f2063757272656e74206f776e656044820152603960f91b60648201526084015b60405180910390fd5b336001600160a01b03821614806105e057506105e08133610f1b565b6106525760405162461bcd60e51b815260206004820152603d60248201527f4552433732313a20617070726f76652063616c6c6572206973206e6f7420746f60448201527f6b656e206f776e6572206f7220617070726f76656420666f7220616c6c00000060648201526084016105bb565b61065c8383611212565b505050565b610669611280565b600980546001600160a01b0319166001600160a01b0392909216919091179055565b60006106956112df565b600954600160a01b900460ff1615806106c657506106b1610cd7565b6001600160a01b0316336001600160a01b0316145b61071d5760405162461bcd60e51b815260206004820152602260248201527f4d696e74696e67206973207265737472696374656420746f20746865206f776e60448201526132b960f11b60648201526084016105bb565b600061072860085490565b9050610738600880546001019055565b6107428a82611327565b61074c818a611341565b600060606001600160a01b038a16158015610768575060008851115b8015610775575060008751115b8015610782575060008651115b801561078f575060008551115b1561082b57600960009054906101000a90046001600160a01b03166001600160a01b0316633310180b89898f30888c8c6040518863ffffffff1660e01b81526004016107e1979695949392919061259e565b6020604051808303816000875af1158015610800573d6000803e3d6000fd5b505050506040513d601f19601f820116820180604052508101906108249190612640565b9150610831565b50889050875b6040805160e081018252600660a082019081526561637469766560d01b60c083015281526001600160a01b03841660208083019190915281830184905260006060830181905260808301819052868152600a909152919091208151819061089890826126ab565b506020828101516001830180546001600160a01b0319166001600160a01b03909216919091179055604083015180516108d79260028501920190611de4565b5060608201516003909101805460809093015115156101000261ff00199215159290921661ffff19909316929092171790556040516001600160a01b0383169084907f3a5398bda6f1f57d6c96834fa9bf02b5517bdc847d14312015a917ba421c31c990600090a350909a9950505050505050505050565b61095933826113fd565b6109755760405162461bcd60e51b81526004016105bb9061276a565b61065c83838361145b565b61065c83838360405180602001604052806000815250610d04565b6109a3611280565b6109ab6115cc565b565b6109b5611280565b60098054911515600160a01b0260ff60a01b19909216919091179055565b600754600160a01b900460ff1690565b6109eb611280565b6109f481611626565b610a105760405162461bcd60e51b81526004016105bb906127b7565b6000818152600a602052604090819020600301805460ff19169055517f15231ceabda9f4f9436b8f17a28b36c21c8e434c821082aa1cfb3fcc994fe6c090610a5b9083815260200190565b60405180910390a150565b600080610a7283611643565b90506001600160a01b03811661041c5760405162461bcd60e51b81526004016105bb906127e3565b60006001600160a01b038216610b045760405162461bcd60e51b815260206004820152602960248201527f4552433732313a2061646472657373207a65726f206973206e6f7420612076616044820152683634b21037bbb732b960b91b60648201526084016105bb565b506001600160a01b031660009081526003602052604090205490565b610b28611280565b6109ab600061165e565b610b3a611280565b610b4381611626565b610b5f5760405162461bcd60e51b81526004016105bb906127b7565b610b67610cd7565b6001600160a01b0316336001600160a01b03161480610b9f5750610b8a81610a66565b6001600160a01b0316336001600160a01b0316145b610bbb5760405162461bcd60e51b81526004016105bb90612815565b6000818152600a602052604090819020600301805461ff0019169055517f0cfa9cc56bacd896c88effb6a4051b954fcaaf2de7ae98882e39f294ea65184390610a5b9083815260200190565b610c0f611280565b6109ab6116b0565b600a60205260009081526040902080548190610c3290612564565b80601f0160208091040260200160405190810160405280929190818152602001828054610c5e90612564565b8015610cab5780601f10610c8057610100808354040283529160200191610cab565b820191906000526020600020905b815481529060010190602001808311610c8e57829003601f168201915b50505050600183015460039093015491926001600160a01b03169160ff80821692506101009091041684565b6007546001600160a01b031690565b60606001805461043190612564565b610d003383836116ec565b5050565b610d0e33836113fd565b610d2a5760405162461bcd60e51b81526004016105bb9061276a565b610d36848484846117b6565b50505050565b6060610d47826111ed565b60008281526006602052604081208054610d6090612564565b80601f0160208091040260200160405190810160405280929190818152602001828054610d8c90612564565b8015610dd95780601f10610dae57610100808354040283529160200191610dd9565b820191906000526020600020905b815481529060010190602001808311610dbc57829003601f168201915b505050505090506000610df760408051602081019091526000815290565b90508051600003610e09575092915050565b815115610e3b578082604051602001610e23929190612859565b60405160208183030381529060405292505050919050565b610e44846117e9565b949350505050565b610e5581611626565b610e715760405162461bcd60e51b81526004016105bb906127b7565b610e79610cd7565b6001600160a01b0316336001600160a01b03161480610eb15750610e9c81610a66565b6001600160a01b0316336001600160a01b0316145b610ecd5760405162461bcd60e51b81526004016105bb90612815565b6000818152600a602052604090819020600301805460ff19166001179055517f0b102582412c868866f81f4a2d5f0632027804dda110c66f39e5a9b83340c95d90610a5b9083815260200190565b6001600160a01b03918216600090815260056020908152604080832093909416825291909152205460ff1690565b610f51611280565b6001600160a01b038116610fb65760405162461bcd60e51b815260206004820152602660248201527f4f776e61626c653a206e6577206f776e657220697320746865207a65726f206160448201526564647265737360d01b60648201526084016105bb565b610fbf8161165e565b50565b610fcb81611626565b610fe75760405162461bcd60e51b81526004016105bb906127b7565b610fef610cd7565b6001600160a01b0316336001600160a01b03161480611027575061101281610a66565b6001600160a01b0316336001600160a01b0316145b6110435760405162461bcd60e51b81526004016105bb90612815565b6000818152600a602052604090819020600301805461ff001916610100179055517fc2d830ac158eec7b589dfadf012044c95b8646222991556ab4cd311e38bc77d190610a5b9083815260200190565b61109c83611626565b6110b85760405162461bcd60e51b81526004016105bb906127b7565b6110c0610cd7565b6001600160a01b0316336001600160a01b031614806110f857506110e383610a66565b6001600160a01b0316336001600160a01b0316145b6111145760405162461bcd60e51b81526004016105bb90612815565b6000838152600a602052604090206003015460ff161561116b5760405162461bcd60e51b815260206004820152601260248201527113595d1859185d18481a5cc81b1bd8dad95960721b60448201526064016105bb565b81511561118c576000838152600a6020526040902061118a83826126ab565b505b80511561065c5761065c8382611341565b60006001600160e01b031982166380ac58cd60e01b14806111ce57506001600160e01b03198216635b5e139f60e01b145b8061041c57506301ffc9a760e01b6001600160e01b031983161461041c565b6111f681611626565b610fbf5760405162461bcd60e51b81526004016105bb906127e3565b600081815260046020526040902080546001600160a01b0319166001600160a01b038416908117909155819061124782610a66565b6001600160a01b03167f8c5be1e5ebec7d5bd14f71427d1e84f3dd0314c0f7b2291e5b200ac8c7c3b92560405160405180910390a45050565b33611289610cd7565b6001600160a01b0316146109ab5760405162461bcd60e51b815260206004820181905260248201527f4f776e61626c653a2063616c6c6572206973206e6f7420746865206f776e657260448201526064016105bb565b6112e76109d3565b156109ab5760405162461bcd60e51b815260206004820152601060248201526f14185d5cd8589b194e881c185d5cd95960821b60448201526064016105bb565b610d0082826040518060200160405280600081525061185d565b61134a82611626565b6113ad5760405162461bcd60e51b815260206004820152602e60248201527f45524337323155524953746f726167653a2055524920736574206f66206e6f6e60448201526d32bc34b9ba32b73a103a37b5b2b760911b60648201526084016105bb565b60008281526006602052604090206113c582826126ab565b506040518281527ff8e1a15aba9398e019f0b49df1a4fde98ee17ae345cb5f6b5e2c27f5033e8ce79060200160405180910390a15050565b60008061140983610a66565b9050806001600160a01b0316846001600160a01b0316148061143057506114308185610f1b565b80610e445750836001600160a01b031661144984610520565b6001600160a01b031614949350505050565b826001600160a01b031661146e82610a66565b6001600160a01b0316146114945760405162461bcd60e51b81526004016105bb90612888565b6001600160a01b0382166114f65760405162461bcd60e51b8152602060048201526024808201527f4552433732313a207472616e7366657220746f20746865207a65726f206164646044820152637265737360e01b60648201526084016105bb565b6115038383836001611890565b826001600160a01b031661151682610a66565b6001600160a01b03161461153c5760405162461bcd60e51b81526004016105bb90612888565b600081815260046020908152604080832080546001600160a01b03199081169091556001600160a01b0387811680865260038552838620805460001901905590871680865283862080546001019055868652600290945282852080549092168417909155905184937fddf252ad1be2c89b69c2b068fc378daa952ba7f163c4a11628f55a4df523b3ef91a4505050565b6115d46112df565b6007805460ff60a01b1916600160a01b1790557f62e78cea01bee320cd4e420270b5ea74000d11b0c9f74754ebdbfc544b05a25861160f3390565b60405161161c9190611fe0565b60405180910390a1565b60008061163283611643565b6001600160a01b0316141592915050565b6000908152600260205260409020546001600160a01b031690565b600780546001600160a01b038381166001600160a01b0319831681179093556040519116919082907f8be0079c531659141344cd1fd0a4f28419497f9722a3daafe3b4186f6b6457e090600090a35050565b6116b8611a15565b6007805460ff60a01b191690557f5db9ee0a495bf2e6ff9c91a7834c1ba4fdd244a5e8aa4e537bd38aeae4b073aa3361160f565b816001600160a01b0316836001600160a01b0316036117495760405162461bcd60e51b815260206004820152601960248201527822a9219b99189d1030b8383937bb32903a379031b0b63632b960391b60448201526064016105bb565b6001600160a01b03838116600081815260056020908152604080832094871680845294825291829020805460ff191686151590811790915591519182527f17307eab39ab6107e8899845ad3d59bd9653f200f220920489ca2b5937696c31910160405180910390a3505050565b6117c184848461145b565b6117cd84848484611a60565b610d365760405162461bcd60e51b81526004016105bb906128cd565b60606117f4826111ed565b600061180b60408051602081019091526000815290565b9050600081511161182b5760405180602001604052806000815250611856565b8061183584611b61565b604051602001611846929190612859565b6040516020818303038152906040525b9392505050565b6118678383611bf3565b6118746000848484611a60565b61065c5760405162461bcd60e51b81526004016105bb906128cd565b6118986112df565b6000828152600a6020526040902060030154610100900460ff16156118f15760405162461bcd60e51b815260206004820152600f60248201526e151bdad95b881a5cc81c185d5cd959608a1b60448201526064016105bb565b6001600160a01b038416156119d5576001600160a01b0384166000908152600b60205260408120815b815481101561196057848282815481106119365761193661291f565b90600052602060002001540361194e57809250611960565b806119588161294b565b91505061191a565b508054819061197190600190612964565b815481106119815761198161291f565b906000526020600020015481838154811061199e5761199e61291f565b9060005260206000200181905550808054806119bc576119bc612977565b6001900381819060005260206000200160009055905550505b6001600160a01b03831615611a10576001600160a01b0383166000908152600b60209081526040822080546001810182559083529120018290555b610d36565b611a1d6109d3565b6109ab5760405162461bcd60e51b815260206004820152601460248201527314185d5cd8589b194e881b9bdd081c185d5cd95960621b60448201526064016105bb565b60006001600160a01b0384163b15611b5657604051630a85bd0160e11b81526001600160a01b0385169063150b7a0290611aa490339089908890889060040161298d565b6020604051808303816000875af1925050508015611adf575060408051601f3d908101601f19168201909252611adc918101906129ca565b60015b611b3c573d808015611b0d576040519150601f19603f3d011682016040523d82523d6000602084013e611b12565b606091505b508051600003611b345760405162461bcd60e51b81526004016105bb906128cd565b805181602001fd5b6001600160e01b031916630a85bd0160e11b149050610e44565b506001949350505050565b60606000611b6e83611d0e565b60010190506000816001600160401b03811115611b8d57611b8d612020565b6040519080825280601f01601f191660200182016040528015611bb7576020820181803683370190505b5090508181016020015b600019016f181899199a1a9b1b9c1cb0b131b232b360811b600a86061a8153600a8504945084611bc157509392505050565b6001600160a01b038216611c495760405162461bcd60e51b815260206004820181905260248201527f4552433732313a206d696e7420746f20746865207a65726f206164647265737360448201526064016105bb565b611c5281611626565b15611c6f5760405162461bcd60e51b81526004016105bb906129e7565b611c7d600083836001611890565b611c8681611626565b15611ca35760405162461bcd60e51b81526004016105bb906129e7565b6001600160a01b038216600081815260036020908152604080832080546001019055848352600290915280822080546001600160a01b0319168417905551839291907fddf252ad1be2c89b69c2b068fc378daa952ba7f163c4a11628f55a4df523b3ef908290a45050565b60008072184f03e93ff9f4daa797ed6e38ed64bf6a1f0160401b8310611d4d5772184f03e93ff9f4daa797ed6e38ed64bf6a1f0160401b830492506040015b6904ee2d6d415b85acef8160201b8310611d77576904ee2d6d415b85acef8160201b830492506020015b662386f26fc100008310611d9557662386f26fc10000830492506010015b6305f5e1008310611dad576305f5e100830492506008015b6127108310611dc157612710830492506004015b60648310611dd3576064830492506002015b600a831061041c5760010192915050565b828054828255906000526020600020908101928215611e2a579160200282015b82811115611e2a5782518290611e1a90826126ab565b5091602001919060010190611e04565b50611e36929150611e3a565b5090565b80821115611e36576000611e4e8282611e57565b50600101611e3a565b508054611e6390612564565b6000825580601f10611e73575050565b601f016020900490600052602060002090810190610fbf91905b80821115611e365760008155600101611e8d565b6001600160e01b031981168114610fbf57600080fd5b600060208284031215611ec957600080fd5b813561185681611ea1565b60005b83811015611eef578181015183820152602001611ed7565b50506000910152565b60008151808452611f10816020860160208601611ed4565b601f01601f19169290920160200192915050565b6020815260006118566020830184611ef8565b6001600160a01b0381168114610fbf57600080fd5b8035611f5781611f37565b919050565b600060208284031215611f6e57600080fd5b813561185681611f37565b600081518084526020808501945080840160005b83811015611fa957815187529582019590820190600101611f8d565b509495945050505050565b6020815260006118566020830184611f79565b600060208284031215611fd957600080fd5b5035919050565b6001600160a01b0391909116815260200190565b6000806040838503121561200757600080fd5b823561201281611f37565b946020939093013593505050565b634e487b7160e01b600052604160045260246000fd5b604051601f8201601f191681016001600160401b038111828210171561205e5761205e612020565b604052919050565b60006001600160401b0383111561207f5761207f612020565b612092601f8401601f1916602001612036565b90508281528383830111156120a657600080fd5b828260208301376000602084830101529392505050565b600082601f8301126120ce57600080fd5b61185683833560208501612066565b60006001600160401b038211156120f6576120f6612020565b5060051b60200190565b600082601f83011261211157600080fd5b81356020612126612121836120dd565b612036565b82815260059290921b8401810191818101908684111561214557600080fd5b8286015b848110156121845780356001600160401b038111156121685760008081fd5b6121768986838b01016120bd565b845250918301918301612149565b509695505050505050565b600082601f8301126121a057600080fd5b813560206121b0612121836120dd565b82815260059290921b840181019181810190868411156121cf57600080fd5b8286015b848110156121845780356121e681611f37565b83529183019183016121d3565b600082601f83011261220457600080fd5b81356020612214612121836120dd565b82815260059290921b8401810191818101908684111561223357600080fd5b8286015b848110156121845780358352918301918301612237565b600080600080600080600080610100898b03121561226b57600080fd5b61227489611f4c565b975060208901356001600160401b038082111561229057600080fd5b61229c8c838d016120bd565b98506122aa60408c01611f4c565b975060608b01359150808211156122c057600080fd5b6122cc8c838d01612100565b965060808b01359150808211156122e257600080fd5b6122ee8c838d016120bd565b955060a08b013591508082111561230457600080fd5b6123108c838d016120bd565b945060c08b013591508082111561232657600080fd5b6123328c838d0161218f565b935060e08b013591508082111561234857600080fd5b506123558b828c016121f3565b9150509295985092959890939650565b60008060006060848603121561237a57600080fd5b833561238581611f37565b9250602084013561239581611f37565b929592945050506040919091013590565b80358015158114611f5757600080fd5b6000602082840312156123c857600080fd5b611856826123a6565b6080815260006123e46080830187611ef8565b6001600160a01b039590951660208301525091151560408301521515606090910152919050565b6000806040838503121561241e57600080fd5b823561242981611f37565b9150612437602084016123a6565b90509250929050565b6000806000806080858703121561245657600080fd5b843561246181611f37565b9350602085013561247181611f37565b92506040850135915060608501356001600160401b0381111561249357600080fd5b8501601f810187136124a457600080fd5b6124b387823560208401612066565b91505092959194509250565b600080604083850312156124d257600080fd5b82356124dd81611f37565b915060208301356124ed81611f37565b809150509250929050565b60008060006060848603121561250d57600080fd5b8335925060208401356001600160401b038082111561252b57600080fd5b612537878388016120bd565b9350604086013591508082111561254d57600080fd5b5061255a868287016120bd565b9150509250925092565b600181811c9082168061257857607f821691505b60208210810361259857634e487b7160e01b600052602260045260246000fd5b50919050565b60e0815260006125b160e083018a611ef8565b6020838203818501526125c4828b611ef8565b6001600160a01b038a8116604087015289811660608701526080860189905285820360a087015287518083528389019450909183019060005b8181101561261b5785518416835294840194918401916001016125fd565b505085810360c087015261262f8188611f79565b9d9c50505050505050505050505050565b60006020828403121561265257600080fd5b815161185681611f37565b601f82111561065c57600081815260208120601f850160051c810160208610156126845750805b601f850160051c820191505b818110156126a357828155600101612690565b505050505050565b81516001600160401b038111156126c4576126c4612020565b6126d8816126d28454612564565b8461265d565b602080601f83116001811461270d57600084156126f55750858301515b600019600386901b1c1916600185901b1785556126a3565b600085815260208120601f198616915b8281101561273c5788860151825594840194600190910190840161271d565b508582101561275a5787850151600019600388901b60f8161c191681555b5050505050600190811b01905550565b6020808252602d908201527f4552433732313a2063616c6c6572206973206e6f7420746f6b656e206f776e6560408201526c1c881bdc88185c1c1c9bdd9959609a1b606082015260800190565b60208082526012908201527113919508191bd95cc81b9bdd08195e1a5cdd60721b604082015260600190565b602080825260189082015277115490cdcc8c4e881a5b9d985b1a59081d1bdad95b88125160421b604082015260600190565b60208082526024908201527f43616c6c6572206973206e6f7420746865206f776e6572206f72204e4654206f6040820152633bb732b960e11b606082015260800190565b6000835161286b818460208801611ed4565b83519083019061287f818360208801611ed4565b01949350505050565b60208082526025908201527f4552433732313a207472616e736665722066726f6d20696e636f72726563742060408201526437bbb732b960d91b606082015260800190565b60208082526032908201527f4552433732313a207472616e7366657220746f206e6f6e20455243373231526560408201527131b2b4bb32b91034b6b83632b6b2b73a32b960711b606082015260800190565b634e487b7160e01b600052603260045260246000fd5b634e487b7160e01b600052601160045260246000fd5b60006001820161295d5761295d612935565b5060010190565b8181038181111561041c5761041c612935565b634e487b7160e01b600052603160045260246000fd5b6001600160a01b03858116825284166020820152604081018390526080606082018190526000906129c090830184611ef8565b9695505050505050565b6000602082840312156129dc57600080fd5b815161185681611ea1565b6020808252601c908201527f4552433732313a20746f6b656e20616c7265616479206d696e7465640000000060408201526060019056fea264697066735822122015ae3ae92f190b0bb5d707902ebac1e85403ed1bee6419b0905a141c37bfc97364736f6c63430008130033",
  "devdoc": {
    "events": {
      "Approval(address,address,uint256)": {
        "details": "Emitted when `owner` enables `approved` to manage the `tokenId` token."
      },
      "ApprovalForAll(address,address,bool)": {
        "details": "Emitted when `owner` enables or disables (`approved`) `operator` to manage all of its assets."
      },
      "BatchMetadataUpdate(uint256,uint256)": {
        "details": "This event emits when the metadata of a range of tokens is changed. So that the third-party platforms such as NFT market could timely update the images and related attributes of the NFTs."
      },
      "MetadataUpdate(uint256)": {
        "details": "This event emits when the metadata of a token is changed. So that the third-party platforms such as NFT market could timely update the images and related attributes of the NFT."
      },
      "Paused(address)": {
        "details": "Emitted when the pause is triggered by `account`."
      },
      "Transfer(address,address,uint256)": {
        "details": "Emitted when `tokenId` token is transferred from `from` to `to`."
      },
      "Unpaused(address)": {
        "details": "Emitted when the pause is lifted by `account`."
      }
    },
    "kind": "dev",
    "methods": {
      "approve(address,uint256)": {
        "details": "See {IERC721-approve}."
      },
      "balanceOf(address)": {
        "details": "See {IERC721-balanceOf}."
      },
      "getApproved(uint256)": {
        "details": "See {IERC721-getApproved}."
      },
      "isApprovedForAll(address,address)": {
        "details": "See {IERC721-isApprovedForAll}."
      },
      "name()": {
        "details": "See {IERC721Metadata-name}."
      },
      "owner()": {
        "details": "Returns the address of the current owner."
      },
      "ownerOf(uint256)": {
        "details": "See {IERC721-ownerOf}."
      },
      "paused()": {
        "details": "Returns true if the contract is paused, and false otherwise."
      },
      "renounceOwnership()": {
        "details": "Leaves the contract without owner. It will not be possible to call `onlyOwner` functions. Can only be called by the current owner. NOTE: Renouncing ownership will leave the contract without an owner, thereby disabling any functionality that is only available to the owner."
      },
      "safeTransferFrom(address,address,uint256)": {
        "details": "See {IERC721-safeTransferFrom}."
      },
      "safeTransferFrom(address,address,uint256,bytes)": {
        "details": "See {IERC721-safeTransferFrom}."
      },
      "setApprovalForAll(address,bool)": {
        "details": "See {IERC721-setApprovalForAll}."
      },
      "supportsInterface(bytes4)": {
        "details": "See {IERC165-supportsInterface}"
      },
      "symbol()": {
        "details": "See {IERC721Metadata-symbol}."
      },
      "tokenURI(uint256)": {
        "details": "See {IERC721Metadata-tokenURI}."
      },
      "transferFrom(address,address,uint256)": {
        "details": "See {IERC721-transferFrom}."
      },
      "transferOwnership(address)": {
        "details": "Transfers ownership of the contract to a new account (`newOwner`). Can only be called by the current owner."
      }
    },
    "version": 1
  },
  "userdoc": {
    "kind": "user",
    "methods": {},
    "version": 1
  },
  "storageLayout": {
    "storage": [
      {
        "astId": 964,
        "contract": "contracts/NFTFactory.sol:NFTFactory",
        "label": "_name",
        "offset": 0,
        "slot": "0",
        "type": "t_string_storage"
      },
      {
        "astId": 966,
        "contract": "contracts/NFTFactory.sol:NFTFactory",
        "label": "_symbol",
        "offset": 0,
        "slot": "1",
        "type": "t_string_storage"
      },
      {
        "astId": 970,
        "contract": "contracts/NFTFactory.sol:NFTFactory",
        "label": "_owners",
        "offset": 0,
        "slot": "2",
        "type": "t_mapping(t_uint256,t_address)"
      },
      {
        "astId": 974,
        "contract": "contracts/NFTFactory.sol:NFTFactory",
        "label": "_balances",
        "offset": 0,
        "slot": "3",
        "type": "t_mapping(t_address,t_uint256)"
      },
      {
        "astId": 978,
        "contract": "contracts/NFTFactory.sol:NFTFactory",
        "label": "_tokenApprovals",
        "offset": 0,
        "slot": "4",
        "type": "t_mapping(t_uint256,t_address)"
      },
      {
        "astId": 984,
        "contract": "contracts/NFTFactory.sol:NFTFactory",
        "label": "_operatorApprovals",
        "offset": 0,
        "slot": "5",
        "type": "t_mapping(t_address,t_mapping(t_address,t_bool))"
      },
      {
        "astId": 2015,
        "contract": "contracts/NFTFactory.sol:NFTFactory",
        "label": "_tokenURIs",
        "offset": 0,
        "slot": "6",
        "type": "t_mapping(t_uint256,t_string_storage)"
      },
      {
        "astId": 7,
        "contract": "contracts/NFTFactory.sol:NFTFactory",
        "label": "_owner",
        "offset": 0,
        "slot": "7",
        "type": "t_address"
      },
      {
        "astId": 158,
        "contract": "contracts/NFTFactory.sol:NFTFactory",
        "label": "_paused",
        "offset": 20,
        "slot": "7",
        "type": "t_bool"
      },
      {
        "astId": 4955,
        "contract": "contracts/NFTFactory.sol:NFTFactory",
        "label": "_tokenIdCounter",
        "offset": 0,
        "slot": "8",
        "type": "t_struct(Counter)2540_storage"
      },
      {
        "astId": 4958,
        "contract": "contracts/NFTFactory.sol:NFTFactory",
        "label": "linkedTokenFactoryAddress",
        "offset": 0,
        "slot": "9",
        "type": "t_address"
      },
      {
        "astId": 4961,
        "contract": "contracts/NFTFactory.sol:NFTFactory",
        "label": "onlyOwnerCanMint",
        "offset": 20,
        "slot": "9",
        "type": "t_bool"
      },
      {
        "astId": 4978,
        "contract": "contracts/NFTFactory.sol:NFTFactory",
        "label": "nftData",
        "offset": 0,
        "slot": "10",
        "type": "t_mapping(t_uint256,t_struct(NFTData)4973_storage)"
      },
      {
        "astId": 4983,
        "contract": "contracts/NFTFactory.sol:NFTFactory",
        "label": "tokensByAddress",
        "offset": 0,
        "slot": "11",
        "type": "t_mapping(t_address,t_array(t_uint256)dyn_storage)"
      }
    ],
    "types": {
      "t_address": {
        "encoding": "inplace",
        "label": "address",
        "numberOfBytes": "20"
      },
      "t_array(t_string_storage)dyn_storage": {
        "base": "t_string_storage",
        "encoding": "dynamic_array",
        "label": "string[]",
        "numberOfBytes": "32"
      },
      "t_array(t_uint256)dyn_storage": {
        "base": "t_uint256",
        "encoding": "dynamic_array",
        "label": "uint256[]",
        "numberOfBytes": "32"
      },
      "t_bool": {
        "encoding": "inplace",
        "label": "bool",
        "numberOfBytes": "1"
      },
      "t_mapping(t_address,t_array(t_uint256)dyn_storage)": {
        "encoding": "mapping",
        "key": "t_address",
        "label": "mapping(address => uint256[])",
        "numberOfBytes": "32",
        "value": "t_array(t_uint256)dyn_storage"
      },
      "t_mapping(t_address,t_bool)": {
        "encoding": "mapping",
        "key": "t_address",
        "label": "mapping(address => bool)",
        "numberOfBytes": "32",
        "value": "t_bool"
      },
      "t_mapping(t_address,t_mapping(t_address,t_bool))": {
        "encoding": "mapping",
        "key": "t_address",
        "label": "mapping(address => mapping(address => bool))",
        "numberOfBytes": "32",
        "value": "t_mapping(t_address,t_bool)"
      },
      "t_mapping(t_address,t_uint256)": {
        "encoding": "mapping",
        "key": "t_address",
        "label": "mapping(address => uint256)",
        "numberOfBytes": "32",
        "value": "t_uint256"
      },
      "t_mapping(t_uint256,t_address)": {
        "encoding": "mapping",
        "key": "t_uint256",
        "label": "mapping(uint256 => address)",
        "numberOfBytes": "32",
        "value": "t_address"
      },
      "t_mapping(t_uint256,t_string_storage)": {
        "encoding": "mapping",
        "key": "t_uint256",
        "label": "mapping(uint256 => string)",
        "numberOfBytes": "32",
        "value": "t_string_storage"
      },
      "t_mapping(t_uint256,t_struct(NFTData)4973_storage)": {
        "encoding": "mapping",
        "key": "t_uint256",
        "label": "mapping(uint256 => struct NFTFactory.NFTData)",
        "numberOfBytes": "32",
        "value": "t_struct(NFTData)4973_storage"
      },
      "t_string_storage": {
        "encoding": "bytes",
        "label": "string",
        "numberOfBytes": "32"
      },
      "t_struct(Counter)2540_storage": {
        "encoding": "inplace",
        "label": "struct Counters.Counter",
        "members": [
          {
            "astId": 2539,
            "contract": "contracts/NFTFactory.sol:NFTFactory",
            "label": "_value",
            "offset": 0,
            "slot": "0",
            "type": "t_uint256"
          }
        ],
        "numberOfBytes": "32"
      },
      "t_struct(NFTData)4973_storage": {
        "encoding": "inplace",
        "label": "struct NFTFactory.NFTData",
        "members": [
          {
            "astId": 4963,
            "contract": "contracts/NFTFactory.sol:NFTFactory",
            "label": "status",
            "offset": 0,
            "slot": "0",
            "type": "t_string_storage"
          },
          {
            "astId": 4965,
            "contract": "contracts/NFTFactory.sol:NFTFactory",
            "label": "linkedToken",
            "offset": 0,
            "slot": "1",
            "type": "t_address"
          },
          {
            "astId": 4968,
            "contract": "contracts/NFTFactory.sol:NFTFactory",
            "label": "linkedTokenInterfaces",
            "offset": 0,
            "slot": "2",
            "type": "t_array(t_string_storage)dyn_storage"
          },
          {
            "astId": 4970,
            "contract": "contracts/NFTFactory.sol:NFTFactory",
            "label": "locked",
            "offset": 0,
            "slot": "3",
            "type": "t_bool"
          },
          {
            "astId": 4972,
            "contract": "contracts/NFTFactory.sol:NFTFactory",
            "label": "paused",
            "offset": 1,
            "slot": "3",
            "type": "t_bool"
          }
        ],
        "numberOfBytes": "128"
      },
      "t_uint256": {
        "encoding": "inplace",
        "label": "uint256",
        "numberOfBytes": "32"
      }
    }
  }
}