{
  "address": "0x63Ab39CaCe56889a0feCE3757e5461176c1256eB",
  "abi": [
    {
      "inputs": [
        {
          "internalType": "string",
          "name": "_name",
          "type": "string"
        }
      ],
      "stateMutability": "nonpayable",
      "type": "constructor"
    },
    {
      "anonymous": false,
      "inputs": [
        {
          "indexed": true,
          "internalType": "address",
          "name": "previousOwner",
          "type": "address"
        },
        {
          "indexed": true,
          "internalType": "address",
          "name": "newOwner",
          "type": "address"
        }
      ],
      "name": "OwnershipTransferred",
      "type": "event"
    },
    {
      "anonymous": false,
      "inputs": [
        {
          "indexed": true,
          "internalType": "address",
          "name": "owner",
          "type": "address"
        },
        {
          "indexed": false,
          "internalType": "address",
          "name": "token",
          "type": "address"
        }
      ],
      "name": "TokenCreated",
      "type": "event"
    },
    {
      "anonymous": false,
      "inputs": [
        {
          "indexed": true,
          "internalType": "address",
          "name": "token",
          "type": "address"
        }
      ],
      "name": "TokenLocked",
      "type": "event"
    },
    {
      "anonymous": false,
      "inputs": [
        {
          "indexed": true,
          "internalType": "address",
          "name": "oldOwner",
          "type": "address"
        },
        {
          "indexed": true,
          "internalType": "address",
          "name": "newOwner",
          "type": "address"
        },
        {
          "indexed": false,
          "internalType": "address",
          "name": "token",
          "type": "address"
        }
      ],
      "name": "TokenOwnershipUpdated",
      "type": "event"
    },
    {
      "anonymous": false,
      "inputs": [
        {
          "indexed": true,
          "internalType": "address",
          "name": "token",
          "type": "address"
        }
      ],
      "name": "TokenUnlocked",
      "type": "event"
    },
    {
      "inputs": [
        {
          "internalType": "uint256",
          "name": "",
          "type": "uint256"
        }
      ],
      "name": "allTokens",
      "outputs": [
        {
          "internalType": "address",
          "name": "",
          "type": "address"
        }
      ],
      "stateMutability": "view",
      "type": "function"
    },
    {
      "inputs": [
        {
          "internalType": "string",
          "name": "name_",
          "type": "string"
        },
        {
          "internalType": "string",
          "name": "symbol_",
          "type": "string"
        },
        {
          "internalType": "address",
          "name": "tokenOwner_",
          "type": "address"
        },
        {
          "internalType": "address",
          "name": "associatedNFT_",
          "type": "address"
        },
        {
          "internalType": "uint256",
          "name": "associatedNFTId_",
          "type": "uint256"
        },
        {
          "internalType": "address[]",
          "name": "membersToFund",
          "type": "address[]"
        },
        {
          "internalType": "uint256[]",
          "name": "amountsToFund",
          "type": "uint256[]"
        }
      ],
      "name": "createToken",
      "outputs": [
        {
          "internalType": "address",
          "name": "",
          "type": "address"
        }
      ],
      "stateMutability": "nonpayable",
      "type": "function"
    },
    {
      "inputs": [],
      "name": "getAllTokens",
      "outputs": [
        {
          "internalType": "address[]",
          "name": "",
          "type": "address[]"
        }
      ],
      "stateMutability": "view",
      "type": "function"
    },
    {
      "inputs": [
        {
          "internalType": "address",
          "name": "owner",
          "type": "address"
        }
      ],
      "name": "getTokensByOwner",
      "outputs": [
        {
          "internalType": "address[]",
          "name": "",
          "type": "address[]"
        }
      ],
      "stateMutability": "view",
      "type": "function"
    },
    {
      "inputs": [
        {
          "internalType": "address",
          "name": "token",
          "type": "address"
        }
      ],
      "name": "lockToken",
      "outputs": [],
      "stateMutability": "nonpayable",
      "type": "function"
    },
    {
      "inputs": [],
      "name": "name",
      "outputs": [
        {
          "internalType": "string",
          "name": "",
          "type": "string"
        }
      ],
      "stateMutability": "view",
      "type": "function"
    },
    {
      "inputs": [
        {
          "internalType": "address",
          "name": "oldOwner",
          "type": "address"
        },
        {
          "internalType": "address",
          "name": "newOwner",
          "type": "address"
        }
      ],
      "name": "notifyOwnershipChange",
      "outputs": [],
      "stateMutability": "nonpayable",
      "type": "function"
    },
    {
      "inputs": [],
      "name": "owner",
      "outputs": [
        {
          "internalType": "address",
          "name": "",
          "type": "address"
        }
      ],
      "stateMutability": "view",
      "type": "function"
    },
    {
      "inputs": [],
      "name": "renounceOwnership",
      "outputs": [],
      "stateMutability": "nonpayable",
      "type": "function"
    },
    {
      "inputs": [
        {
          "internalType": "address",
          "name": "",
          "type": "address"
        },
        {
          "internalType": "uint256",
          "name": "",
          "type": "uint256"
        }
      ],
      "name": "tokensByOwner",
      "outputs": [
        {
          "internalType": "address",
          "name": "",
          "type": "address"
        }
      ],
      "stateMutability": "view",
      "type": "function"
    },
    {
      "inputs": [
        {
          "internalType": "address",
          "name": "newOwner",
          "type": "address"
        }
      ],
      "name": "transferOwnership",
      "outputs": [],
      "stateMutability": "nonpayable",
      "type": "function"
    },
    {
      "inputs": [
        {
          "internalType": "address",
          "name": "token",
          "type": "address"
        }
      ],
      "name": "unlockToken",
      "outputs": [],
      "stateMutability": "nonpayable",
      "type": "function"
    },
    {
      "inputs": [
        {
          "internalType": "address",
          "name": "token",
          "type": "address"
        },
        {
          "internalType": "address",
          "name": "newOwner",
          "type": "address"
        }
      ],
      "name": "updateTokenOwnership",
      "outputs": [],
      "stateMutability": "nonpayable",
      "type": "function"
    }
  ],
  "transactionHash": "0xccc1e17ddeae117d6afb2119936b76085b017ac2b8548fe5598c28b0d6a9777e",
  "args": [
    "LEGT KYC Token Factory"
  ],
  "numDeployments": 1,
  "solcInputHash": "afed3ac706a6794230c89878f95b08ab",
  "bytecode": "0x60806040523480156200001157600080fd5b5060405162003ce238038062003ce28339810160408190526200003491620001a9565b80620000403362000062565b6200004b33620000b2565b60016200005982826200030d565b505050620003d9565b600080546001600160a01b038381166001600160a01b0319831681178455604051919092169283917f8be0079c531659141344cd1fd0a4f28419497f9722a3daafe3b4186f6b6457e09190a35050565b620000bc62000135565b6001600160a01b038116620001275760405162461bcd60e51b815260206004820152602660248201527f4f776e61626c653a206e6577206f776e657220697320746865207a65726f206160448201526564647265737360d01b60648201526084015b60405180910390fd5b620001328162000062565b50565b6000546001600160a01b03163314620001915760405162461bcd60e51b815260206004820181905260248201527f4f776e61626c653a2063616c6c6572206973206e6f7420746865206f776e657260448201526064016200011e565b565b634e487b7160e01b600052604160045260246000fd5b60006020808385031215620001bd57600080fd5b82516001600160401b0380821115620001d557600080fd5b818501915085601f830112620001ea57600080fd5b815181811115620001ff57620001ff62000193565b604051601f8201601f19908116603f011681019083821181831017156200022a576200022a62000193565b8160405282815288868487010111156200024357600080fd5b600093505b8284101562000267578484018601518185018701529285019262000248565b600086848301015280965050505050505092915050565b600181811c908216806200029357607f821691505b602082108103620002b457634e487b7160e01b600052602260045260246000fd5b50919050565b601f8211156200030857600081815260208120601f850160051c81016020861015620002e35750805b601f850160051c820191505b818110156200030457828155600101620002ef565b5050505b505050565b81516001600160401b0381111562000329576200032962000193565b62000341816200033a84546200027e565b84620002ba565b602080601f831160018114620003795760008415620003605750858301515b600019600386901b1c1916600185901b17855562000304565b600085815260208120601f198616915b82811015620003aa5788860151825594840194600190910190840162000389565b5085821015620003c95787850151600019600388901b60f8161c191681555b5050505050600190811b01905550565b6138f980620003e96000396000f3fe60806040523480156200001157600080fd5b5060043610620000be5760003560e01c806306fdde0314620000c357806310693fcd14620000e55780632a5c792a14620000fe5780633310180b146200011757806340398d67146200013d578063634282af1462000154578063653db54a146200016b578063715018a614620001825780638da5cb5b146200018c5780639ef2017b146200019e578063da795ef714620001b5578063de6be16614620001cc578063f2fde38b14620001e3575b600080fd5b620000cd620001fa565b604051620000dc919062000d8e565b60405180910390f35b620000fc620000f636600462000dd2565b62000290565b005b62000108620003c7565b604051620000dc919062000e38565b6200012e6200012836600462001012565b6200042b565b604051620000dc9190620010fa565b620001086200014e36600462000dd2565b6200053d565b6200012e620001653660046200110e565b620005b5565b6200012e6200017c36600462001128565b620005e0565b620000fc62000619565b6000546001600160a01b03166200012e565b620000fc620001af36600462000dd2565b62000631565b620000fc620001c636600462001157565b6200075f565b620000fc620001dd36600462001157565b620008df565b620000fc620001f436600462000dd2565b62000a57565b60018054620002099062001195565b80601f0160208091040260200160405190810160405280929190818152602001828054620002379062001195565b8015620002885780601f106200025c5761010080835404028352916020019162000288565b820191906000526020600020905b8154815290600101906020018083116200026a57829003601f168201915b505050505081565b6200029a62000ad6565b306001600160a01b0316816001600160a01b031663c45a01556040518163ffffffff1660e01b8152600401602060405180830381865afa158015620002e3573d6000803e3d6000fd5b505050506040513d601f19601f82011682018060405250810190620003099190620011d1565b6001600160a01b0316146200033b5760405162461bcd60e51b81526004016200033290620011f1565b60405180910390fd5b806001600160a01b031663f83d08ba6040518163ffffffff1660e01b8152600401600060405180830381600087803b1580156200037757600080fd5b505af11580156200038c573d6000803e3d6000fd5b50506040516001600160a01b03841692507fca1b0a14e18ada4c44846768dd186e35630cdc5cfeaca83c404ae4acaafbecd79150600090a250565b606060038054806020026020016040519081016040528092919081815260200182805480156200042157602002820191906000526020600020905b81546001600160a01b0316815260019091019060200180831162000402575b5050505050905090565b6000808888883089898989604051620004449062000d38565b6200045798979695949392919062001218565b604051809103906000f08015801562000474573d6000803e3d6000fd5b506001600160a01b03808916600081815260026020908152604080832080546001818101835591855292842090920180549587166001600160a01b031996871681179091556003805493840181559093527fc2575a0e9e593c00f959f8c92f12db2869c3395a3b0502d05e2516446f71f85b90910180549094169091179092559051919250907fd5f9bdf12adf29dab0248c349842c3822d53ae2bb4f36352f301630d018c81399062000529908490620010fa565b60405180910390a298975050505050505050565b6001600160a01b038116600090815260026020908152604091829020805483518184028101840190945280845260609392830182828015620005a957602002820191906000526020600020905b81546001600160a01b031681526001909101906020018083116200058a575b50505050509050919050565b60038181548110620005c657600080fd5b6000918252602090912001546001600160a01b0316905081565b60026020528160005260406000208181548110620005fd57600080fd5b6000918252602090912001546001600160a01b03169150829050565b6200062362000ad6565b6200062f600062000b32565b565b6200063b62000ad6565b306001600160a01b0316816001600160a01b031663c45a01556040518163ffffffff1660e01b8152600401602060405180830381865afa15801562000684573d6000803e3d6000fd5b505050506040513d601f19601f82011682018060405250810190620006aa9190620011d1565b6001600160a01b031614620006d35760405162461bcd60e51b81526004016200033290620011f1565b806001600160a01b031663a69df4b56040518163ffffffff1660e01b8152600401600060405180830381600087803b1580156200070f57600080fd5b505af115801562000724573d6000803e3d6000fd5b50506040516001600160a01b03841692507f81ec08d3372506e176c49e626d8beb7e091712ef92908a130f4ccc6524fe2eec9150600090a250565b6200076962000ad6565b306001600160a01b0316826001600160a01b031663c45a01556040518163ffffffff1660e01b8152600401602060405180830381865afa158015620007b2573d6000803e3d6000fd5b505050506040513d601f19601f82011682018060405250810190620007d89190620011d1565b6001600160a01b031614620008015760405162461bcd60e51b81526004016200033290620011f1565b6000826001600160a01b0316638da5cb5b6040518163ffffffff1660e01b8152600401602060405180830381865afa15801562000842573d6000803e3d6000fd5b505050506040513d601f19601f82011682018060405250810190620008689190620011d1565b60405163f2fde38b60e01b81529091506001600160a01b0384169063f2fde38b9062000899908590600401620010fa565b600060405180830381600087803b158015620008b457600080fd5b505af1158015620008c9573d6000803e3d6000fd5b50505050620008da83828462000b82565b505050565b306001600160a01b0316336001600160a01b031663c45a01556040518163ffffffff1660e01b8152600401602060405180830381865afa15801562000928573d6000803e3d6000fd5b505050506040513d601f19601f820116820180604052508101906200094e9190620011d1565b6001600160a01b031614620009975760405162461bcd60e51b815260206004820152600e60248201526d24b73b30b634b21031b0b63632b960911b604482015260640162000332565b6000805b60035481101562000a0057336001600160a01b031660038281548110620009c657620009c6620012cb565b6000918252602090912001546001600160a01b031603620009eb576001915062000a00565b80620009f781620012f7565b9150506200099b565b508062000a4a57600380546001810182556000919091527fc2575a0e9e593c00f959f8c92f12db2869c3395a3b0502d05e2516446f71f85b0180546001600160a01b031916331790555b620008da33848462000b82565b62000a6162000ad6565b6001600160a01b03811662000ac85760405162461bcd60e51b815260206004820152602660248201527f4f776e61626c653a206e6577206f776e657220697320746865207a65726f206160448201526564647265737360d01b606482015260840162000332565b62000ad38162000b32565b50565b6000546001600160a01b031633146200062f5760405162461bcd60e51b815260206004820181905260248201527f4f776e61626c653a2063616c6c6572206973206e6f7420746865206f776e6572604482015260640162000332565b600080546001600160a01b038381166001600160a01b0319831681178455604051919092169283917f8be0079c531659141344cd1fd0a4f28419497f9722a3daafe3b4186f6b6457e09190a35050565b6001600160a01b0382166000908152600260205260408120905b815481101562000cb657846001600160a01b031682828154811062000bc55762000bc5620012cb565b6000918252602090912001546001600160a01b03160362000ca1578154829062000bf29060019062001313565b8154811062000c055762000c05620012cb565b9060005260206000200160009054906101000a90046001600160a01b031682828154811062000c385762000c38620012cb565b9060005260206000200160006101000a8154816001600160a01b0302191690836001600160a01b031602179055508180548062000c795762000c796200132f565b600082815260209020810160001990810180546001600160a01b031916905501905562000cb6565b8062000cad81620012f7565b91505062000b9c565b506001600160a01b0382811660008181526002602090815260408083208054600181018255908452919092200180546001600160a01b0319168885161790555190918516907fee0181bcf4732fe459f61fad31a89b2ceedea7866352da626ba14018d8e738b89062000d2a908890620010fa565b60405180910390a350505050565b61257e806200134683390190565b6000815180845260005b8181101562000d6e5760208185018101518683018201520162000d50565b506000602082860101526020601f19601f83011685010191505092915050565b60208152600062000da3602083018462000d46565b9392505050565b6001600160a01b038116811462000ad357600080fd5b803562000dcd8162000daa565b919050565b60006020828403121562000de557600080fd5b813562000da38162000daa565b600081518084526020808501945080840160005b8381101562000e2d5781516001600160a01b03168752958201959082019060010162000e06565b509495945050505050565b60208152600062000da3602083018462000df2565b634e487b7160e01b600052604160045260246000fd5b604051601f8201601f191681016001600160401b038111828210171562000e8e5762000e8e62000e4d565b604052919050565b600082601f83011262000ea857600080fd5b81356001600160401b0381111562000ec45762000ec462000e4d565b62000ed9601f8201601f191660200162000e63565b81815284602083860101111562000eef57600080fd5b816020850160208301376000918101602001919091529392505050565b60006001600160401b0382111562000f285762000f2862000e4d565b5060051b60200190565b600082601f83011262000f4457600080fd5b8135602062000f5d62000f578362000f0c565b62000e63565b82815260059290921b8401810191818101908684111562000f7d57600080fd5b8286015b8481101562000fa557803562000f978162000daa565b835291830191830162000f81565b509695505050505050565b600082601f83011262000fc257600080fd5b8135602062000fd562000f578362000f0c565b82815260059290921b8401810191818101908684111562000ff557600080fd5b8286015b8481101562000fa5578035835291830191830162000ff9565b600080600080600080600060e0888a0312156200102e57600080fd5b87356001600160401b03808211156200104657600080fd5b620010548b838c0162000e96565b985060208a01359150808211156200106b57600080fd5b620010798b838c0162000e96565b97506200108960408b0162000dc0565b96506200109960608b0162000dc0565b955060808a0135945060a08a0135915080821115620010b757600080fd5b620010c58b838c0162000f32565b935060c08a0135915080821115620010dc57600080fd5b50620010eb8a828b0162000fb0565b91505092959891949750929550565b6001600160a01b0391909116815260200190565b6000602082840312156200112157600080fd5b5035919050565b600080604083850312156200113c57600080fd5b8235620011498162000daa565b946020939093013593505050565b600080604083850312156200116b57600080fd5b8235620011788162000daa565b915060208301356200118a8162000daa565b809150509250929050565b600181811c90821680620011aa57607f821691505b602082108103620011cb57634e487b7160e01b600052602260045260246000fd5b50919050565b600060208284031215620011e457600080fd5b815162000da38162000daa565b6020808252600d908201526c24b73b30b634b2103a37b5b2b760991b604082015260600190565b60006101008083526200122e8184018c62000d46565b905060208382038185015262001245828c62000d46565b6001600160a01b038b811660408701528a811660608701528916608086015260a0850188905284810360c0860152915062001281828762000df2565b84810360e0860152855180825282870193509082019060005b81811015620012b8578451835293830193918301916001016200129a565b50909d9c50505050505050505050505050565b634e487b7160e01b600052603260045260246000fd5b634e487b7160e01b600052601160045260246000fd5b6000600182016200130c576200130c620012e1565b5060010190565b81810381811115620013295762001329620012e1565b92915050565b634e487b7160e01b600052603160045260246000fdfe6080604052600a805460ff19169055600e80546001600160b01b0319167533f28c3a636b38683a38987100723f2e2d3d038e00001790553480156200004357600080fd5b506040516200257e3803806200257e8339810160408190526200006691620008a9565b8787878787878787878760036200007e838262000a32565b5060046200008d828262000a32565b505050620000aa620000a46200021c60201b60201c565b62000220565b6005805460ff60a01b19169055620000c286620002f1565b8051825114620001195760405162461bcd60e51b815260206004820152601860248201527f4d69736d61746368656420696e707574206c656e67746873000000000000000060448201526064015b60405180910390fd5b60408051808201909152600681526561637469766560d01b602082015260099062000145908262000a32565b50600680546001600160a01b038088166001600160a01b03199283161790925560078054928716929091169190911790556008839055600b62000189898262000a32565b50600c62000198888262000a32565b5060005b82518110156200020557620001f0838281518110620001bf57620001bf62000afe565b6020026020010151838381518110620001dc57620001dc62000afe565b60200260200101516200037060201b60201c565b80620001fc8162000b2a565b9150506200019c565b505050505050505050505050505050505062000b8d565b3390565b6000620002356005546001600160a01b031690565b9050620002428262000441565b6006546001600160a01b031615620002be57600654604051636f35f0b360e11b81526001600160a01b03838116600483015284811660248301529091169063de6be16690604401600060405180830381600087803b158015620002a457600080fd5b505af1158015620002b9573d6000803e3d6000fd5b505050505b816001600160a01b0316816001600160a01b03166000805160206200255e83398151915260405160405180910390a35050565b620002fb62000482565b6001600160a01b038116620003625760405162461bcd60e51b815260206004820152602660248201527f4f776e61626c653a206e6577206f776e657220697320746865207a65726f206160448201526564647265737360d01b606482015260840162000110565b6200036d8162000220565b50565b6001600160a01b038216620003c85760405162461bcd60e51b815260206004820152601f60248201527f45524332303a206d696e7420746f20746865207a65726f206164647265737300604482015260640162000110565b620003d660008383620004e0565b8060026000828254620003ea919062000b46565b90915550506001600160a01b038216600081815260208181526040808320805486019055518481527fddf252ad1be2c89b69c2b068fc378daa952ba7f163c4a11628f55a4df523b3ef910160405180910390a35050565b600580546001600160a01b038381166001600160a01b0319831681179093556040519116919082906000805160206200255e83398151915290600090a35050565b6005546001600160a01b03163314620004de5760405162461bcd60e51b815260206004820181905260248201527f4f776e61626c653a2063616c6c6572206973206e6f7420746865206f776e6572604482015260640162000110565b565b600e5460ff161562000556576001600160a01b0382166000908152600d602052604090205460ff16620005565760405162461bcd60e51b815260206004820152601c60248201527f526563697069656e74206973206e6f742077686974656c697374656400000000604482015260640162000110565b600e54610100900460ff1615620006ad57600e546040516313289ea360e31b81526001600160a01b0384811660048301526201000090920490911690639944f51890602401602060405180830381865afa158015620005b9573d6000803e3d6000fd5b505050506040513d601f19601f82011682018060405250810190620005df919062000b62565b80156200065f5750600e54604051630add9f7f60e01b81526001600160a01b0384811660048301526201000090920490911690630add9f7f90602401602060405180830381865afa15801562000639573d6000803e3d6000fd5b505050506040513d601f19601f820116820180604052508101906200065f919062000b62565b620006ad5760405162461bcd60e51b815260206004820152601c60248201527f526563697069656e7420686173206e6f7420706173736564204b594300000000604482015260640162000110565b505050565b634e487b7160e01b600052604160045260246000fd5b604051601f8201601f191681016001600160401b0381118282101715620006f357620006f3620006b2565b604052919050565b600082601f8301126200070d57600080fd5b81516001600160401b03811115620007295762000729620006b2565b60206200073f601f8301601f19168201620006c8565b82815285828487010111156200075457600080fd5b60005b838110156200077457858101830151828201840152820162000757565b506000928101909101919091529392505050565b80516001600160a01b0381168114620007a057600080fd5b919050565b60006001600160401b03821115620007c157620007c1620006b2565b5060051b60200190565b600082601f830112620007dd57600080fd5b81516020620007f6620007f083620007a5565b620006c8565b82815260059290921b840181019181810190868411156200081657600080fd5b8286015b848110156200083c576200082e8162000788565b83529183019183016200081a565b509695505050505050565b600082601f8301126200085957600080fd5b815160206200086c620007f083620007a5565b82815260059290921b840181019181810190868411156200088c57600080fd5b8286015b848110156200083c578051835291830191830162000890565b600080600080600080600080610100898b031215620008c757600080fd5b88516001600160401b0380821115620008df57600080fd5b620008ed8c838d01620006fb565b995060208b01519150808211156200090457600080fd5b620009128c838d01620006fb565b98506200092260408c0162000788565b97506200093260608c0162000788565b96506200094260808c0162000788565b955060a08b0151945060c08b01519150808211156200096057600080fd5b6200096e8c838d01620007cb565b935060e08b01519150808211156200098557600080fd5b50620009948b828c0162000847565b9150509295985092959890939650565b600181811c90821680620009b957607f821691505b602082108103620009da57634e487b7160e01b600052602260045260246000fd5b50919050565b601f821115620006ad57600081815260208120601f850160051c8101602086101562000a095750805b601f850160051c820191505b8181101562000a2a5782815560010162000a15565b505050505050565b81516001600160401b0381111562000a4e5762000a4e620006b2565b62000a668162000a5f8454620009a4565b84620009e0565b602080601f83116001811462000a9e576000841562000a855750858301515b600019600386901b1c1916600185901b17855562000a2a565b600085815260208120601f198616915b8281101562000acf5788860151825594840194600190910190840162000aae565b508582101562000aee5787850151600019600388901b60f8161c191681555b5050505050600190811b01905550565b634e487b7160e01b600052603260045260246000fd5b634e487b7160e01b600052601160045260246000fd5b60006001820162000b3f5762000b3f62000b14565b5060010190565b8082018082111562000b5c5762000b5c62000b14565b92915050565b60006020828403121562000b7557600080fd5b8151801515811462000b8657600080fd5b9392505050565b6119c18062000b9d6000396000f3fe608060405234801561001057600080fd5b50600436106101d15760003560e01c8063715018a611610105578063a457c2d71161009d578063a457c2d7146103bd578063a69df4b5146103d0578063a9059cbb146103d8578063ab1ef542146103eb578063c45a0155146103fe578063cf30901214610411578063dd62ed3e1461041e578063f2fde38b14610431578063f83d08ba1461044457600080fd5b8063715018a61461033457806378b1d2e11461033c57806380e3f1ad1461034e57806386a5ff97146103615780638da5cb5b1461037457806392d4d7611461037c57806395d89b411461038f5780639dc29fac14610397578063a3895fff146103aa57600080fd5b80633950935111610178578063395093511461027157806340c10f191461028457806340e0e9e2146102975780634a60bb17146102aa57806351fb012d146102bd5780635353a2d8146102ca5780635c975abb146102dd5780636d3123eb146102e557806370a082311461030b57600080fd5b806306fdde03146101d6578063095ea7b3146101f45780630d392cd91461021757806318160ddd1461022c578063200d2ed21461023e57806323b872dd146102465780632fefeaa514610259578063313ce56714610262575b600080fd5b6101de61044c565b6040516101eb9190611557565b60405180910390f35b6102076102023660046115c1565b6104de565b60405190151581526020016101eb565b61022a6102253660046115f9565b6104f8565b005b6002545b6040519081526020016101eb565b6101de610560565b610207610254366004611630565b6105ee565b61023060085481565b604051601281526020016101eb565b61020761027f3660046115c1565b610612565b61022a6102923660046115c1565b610634565b61022a6102a53660046115c1565b6106b5565b61022a6102b836600461166c565b61073b565b600e546102079060ff1681565b61022a6102d83660046116a4565b6107a0565b61020761080f565b600e546102fe906201000090046001600160a01b031681565b6040516101eb9190611755565b61023061031936600461166c565b6001600160a01b031660009081526020819052604090205490565b61022a61081f565b600e5461020790610100900460ff1681565b61022a61035c366004611769565b610833565b61022a61036f3660046116a4565b61087c565b6102fe6108eb565b61022a61038a366004611769565b6108fa565b6101de61094b565b61022a6103a53660046115c1565b61095a565b61022a6103b83660046116a4565b6109d2565b6102076103cb3660046115c1565b610a41565b61022a610abc565b6102076103e63660046115c1565b610b45565b6007546102fe906001600160a01b031681565b6006546102fe906001600160a01b031681565b600a546102079060ff1681565b61023061042c366004611786565b610b53565b61022a61043f36600461166c565b610b7e565b61022a610bf7565b6060600b805461045b906117b9565b80601f0160208091040260200160405190810160405280929190818152602001828054610487906117b9565b80156104d45780601f106104a9576101008083540402835291602001916104d4565b820191906000526020600020905b8154815290600101906020018083116104b757829003601f168201915b5050505050905090565b6000336104ec818585610cac565b60019150505b92915050565b610500610dd1565b6001600160a01b0382166000818152600d6020908152604091829020805460ff191685151590811790915591519182527ff93f9a76c1bf3444d22400a00cb9fe990e6abe9dbb333fda48859cfee864543d91015b60405180910390a25050565b6009805461056d906117b9565b80601f0160208091040260200160405190810160405280929190818152602001828054610599906117b9565b80156105e65780601f106105bb576101008083540402835291602001916105e6565b820191906000526020600020905b8154815290600101906020018083116105c957829003601f168201915b505050505081565b6000336105fc858285610e30565b610607858585610eaa565b506001949350505050565b6000336104ec8185856106258383610b53565b61062f91906117f3565b610cac565b61063c610dd1565b600a5460ff16156106685760405162461bcd60e51b815260040161065f90611814565b60405180910390fd5b610670611047565b61067a828261108f565b816001600160a01b03167f3f2c9d57c068687834f0de942a9babb9e5acab57d516d3480a3c16ee165a42738260405161055491815260200190565b6106bd610dd1565b600a5460ff16156106e05760405162461bcd60e51b815260040161065f90611814565b6106e8611047565b600780546001600160a01b0319166001600160a01b03841690811790915560088290556040518281527f1282c4517184314a9fefed3cc7aa634a069ae13636b3a5126d2ecdd66d912c3290602001610554565b610743610dd1565b600e805462010000600160b01b031916620100006001600160a01b038416021790556040517f4e5d142d09499e1a2e704caee8ea720ae0821f9ef07b569d6bdaabb7dcee936f90610795908390611755565b60405180910390a150565b6107a8610dd1565b600a5460ff16156107cb5760405162461bcd60e51b815260040161065f90611814565b6107d3611047565b600b6107df828261188e565b507f4737457377f528cc8afd815f73ecb8b05df80d047dbffc41c17750a4033592bc816040516107959190611557565b600554600160a01b900460ff1690565b610827610dd1565b6108316000611148565b565b61083b610dd1565b600e805460ff19168215159081179091556040519081527f1cf28b997975c7be355bcef74f2f5019aa48253bc1e54b3c8b002471865fdba890602001610795565b610884610dd1565b600a5460ff16156108a75760405162461bcd60e51b815260040161065f90611814565b6108af611047565b60096108bb828261188e565b507fea6f92f49f3f6b3faa4cb02c9366b537e5c42ee43006fb8f18fb7a3ecb6c6a92816040516107959190611557565b6005546001600160a01b031690565b610902610dd1565b600e80548215156101000261ff00199091161790556040517ff658ff437af8c1469304ccade2554aa738ea1180b21de37d78f033d92171b5be9061079590831515815260200190565b6060600c805461045b906117b9565b610962610dd1565b600a5460ff16156109855760405162461bcd60e51b815260040161065f90611814565b61098d611047565b610997828261121a565b816001600160a01b03167ffd38818f5291bf0bb3a2a48aadc06ba8757865d1dabd804585338aab3009dcb68260405161055491815260200190565b6109da610dd1565b600a5460ff16156109fd5760405162461bcd60e51b815260040161065f90611814565b610a05611047565b600c610a11828261188e565b507f57c940aa14b51ea5f96b7a2bea757ce355d996e2c5d7a3c68aff1c75a326269b816040516107959190611557565b60003381610a4f8286610b53565b905083811015610aaf5760405162461bcd60e51b815260206004820152602560248201527f45524332303a2064656372656173656420616c6c6f77616e63652062656c6f77604482015264207a65726f60d81b606482015260840161065f565b6106078286868403610cac565b6006546001600160a01b03163314610b105760405162461bcd60e51b81526020600482015260176024820152764f6e6c7920666163746f72792063616e20756e6c6f636b60481b604482015260640161065f565b600a805460ff191690556040517f19aad37188a1d3921e29eb3c66acf43d81975e107cb650d58cca878627955fd690600090a1565b6000336104ec818585610eaa565b6001600160a01b03918216600090815260016020908152604080832093909416825291909152205490565b610b86610dd1565b6001600160a01b038116610beb5760405162461bcd60e51b815260206004820152602660248201527f4f776e61626c653a206e6577206f776e657220697320746865207a65726f206160448201526564647265737360d01b606482015260840161065f565b610bf481611148565b50565b6006546001600160a01b0316331480610c285750610c136108eb565b6001600160a01b0316336001600160a01b0316145b610c745760405162461bcd60e51b815260206004820152601e60248201527f4f6e6c7920666163746f7279206f72206f776e65722063616e206c6f636b0000604482015260640161065f565b600a805460ff191660011790556040517f0f2e5b6c72c6a4491efd919a9f9a409f324ef0708c11ee57d410c2cb06c0992b90600090a1565b6001600160a01b038316610d0e5760405162461bcd60e51b8152602060048201526024808201527f45524332303a20617070726f76652066726f6d20746865207a65726f206164646044820152637265737360e01b606482015260840161065f565b6001600160a01b038216610d6f5760405162461bcd60e51b815260206004820152602260248201527f45524332303a20617070726f766520746f20746865207a65726f206164647265604482015261737360f01b606482015260840161065f565b6001600160a01b0383811660008181526001602090815260408083209487168084529482529182902085905590518481527f8c5be1e5ebec7d5bd14f71427d1e84f3dd0314c0f7b2291e5b200ac8c7c3b92591015b60405180910390a3505050565b33610dda6108eb565b6001600160a01b0316146108315760405162461bcd60e51b815260206004820181905260248201527f4f776e61626c653a2063616c6c6572206973206e6f7420746865206f776e6572604482015260640161065f565b6000610e3c8484610b53565b90506000198114610ea45781811015610e975760405162461bcd60e51b815260206004820152601d60248201527f45524332303a20696e73756666696369656e7420616c6c6f77616e6365000000604482015260640161065f565b610ea48484848403610cac565b50505050565b6001600160a01b038316610f0e5760405162461bcd60e51b815260206004820152602560248201527f45524332303a207472616e736665722066726f6d20746865207a65726f206164604482015264647265737360d81b606482015260840161065f565b6001600160a01b038216610f705760405162461bcd60e51b815260206004820152602360248201527f45524332303a207472616e7366657220746f20746865207a65726f206164647260448201526265737360e81b606482015260840161065f565b610f7b838383611343565b6001600160a01b03831660009081526020819052604090205481811015610ff35760405162461bcd60e51b815260206004820152602660248201527f45524332303a207472616e7366657220616d6f756e7420657863656564732062604482015265616c616e636560d01b606482015260840161065f565b6001600160a01b038481166000818152602081815260408083208787039055938716808352918490208054870190559251858152909260008051602061196c833981519152910160405180910390a3610ea4565b61104f61080f565b156108315760405162461bcd60e51b815260206004820152601060248201526f14185d5cd8589b194e881c185d5cd95960821b604482015260640161065f565b6001600160a01b0382166110e55760405162461bcd60e51b815260206004820152601f60248201527f45524332303a206d696e7420746f20746865207a65726f206164647265737300604482015260640161065f565b6110f160008383611343565b806002600082825461110391906117f3565b90915550506001600160a01b0382166000818152602081815260408083208054860190555184815260008051602061196c833981519152910160405180910390a35050565b60006111526108eb565b905061115d82611505565b6006546001600160a01b0316156111d657600654604051636f35f0b360e11b81526001600160a01b03838116600483015284811660248301529091169063de6be16690604401600060405180830381600087803b1580156111bd57600080fd5b505af11580156111d1573d6000803e3d6000fd5b505050505b816001600160a01b0316816001600160a01b03167f8be0079c531659141344cd1fd0a4f28419497f9722a3daafe3b4186f6b6457e060405160405180910390a35050565b6001600160a01b03821661127a5760405162461bcd60e51b815260206004820152602160248201527f45524332303a206275726e2066726f6d20746865207a65726f206164647265736044820152607360f81b606482015260840161065f565b61128682600083611343565b6001600160a01b038216600090815260208190526040902054818110156112fa5760405162461bcd60e51b815260206004820152602260248201527f45524332303a206275726e20616d6f756e7420657863656564732062616c616e604482015261636560f01b606482015260840161065f565b6001600160a01b03831660008181526020818152604080832086860390556002805487900390555185815291929160008051602061196c8339815191529101610dc4565b505050565b600e5460ff16156113b6576001600160a01b0382166000908152600d602052604090205460ff166113b65760405162461bcd60e51b815260206004820152601c60248201527f526563697069656e74206973206e6f742077686974656c697374656400000000604482015260640161065f565b600e54610100900460ff161561133e57600e546040516313289ea360e31b8152620100009091046001600160a01b031690639944f518906113fb908590600401611755565b602060405180830381865afa158015611418573d6000803e3d6000fd5b505050506040513d601f19601f8201168201806040525081019061143c919061194e565b80156114b95750600e54604051630add9f7f60e01b8152620100009091046001600160a01b031690630add9f7f90611478908590600401611755565b602060405180830381865afa158015611495573d6000803e3d6000fd5b505050506040513d601f19601f820116820180604052508101906114b9919061194e565b61133e5760405162461bcd60e51b815260206004820152601c60248201527f526563697069656e7420686173206e6f7420706173736564204b594300000000604482015260640161065f565b600580546001600160a01b038381166001600160a01b0319831681179093556040519116919082907f8be0079c531659141344cd1fd0a4f28419497f9722a3daafe3b4186f6b6457e090600090a35050565b600060208083528351808285015260005b8181101561158457858101830151858201604001528201611568565b506000604082860101526040601f19601f8301168501019250505092915050565b80356001600160a01b03811681146115bc57600080fd5b919050565b600080604083850312156115d457600080fd5b6115dd836115a5565b946020939093013593505050565b8015158114610bf457600080fd5b6000806040838503121561160c57600080fd5b611615836115a5565b91506020830135611625816115eb565b809150509250929050565b60008060006060848603121561164557600080fd5b61164e846115a5565b925061165c602085016115a5565b9150604084013590509250925092565b60006020828403121561167e57600080fd5b611687826115a5565b9392505050565b634e487b7160e01b600052604160045260246000fd5b6000602082840312156116b657600080fd5b813567ffffffffffffffff808211156116ce57600080fd5b818401915084601f8301126116e257600080fd5b8135818111156116f4576116f461168e565b604051601f8201601f19908116603f0116810190838211818310171561171c5761171c61168e565b8160405282815287602084870101111561173557600080fd5b826020860160208301376000928101602001929092525095945050505050565b6001600160a01b0391909116815260200190565b60006020828403121561177b57600080fd5b8135611687816115eb565b6000806040838503121561179957600080fd5b6117a2836115a5565b91506117b0602084016115a5565b90509250929050565b600181811c908216806117cd57607f821691505b6020821081036117ed57634e487b7160e01b600052602260045260246000fd5b50919050565b808201808211156104f257634e487b7160e01b600052601160045260246000fd5b60208082526012908201527110dbdb9d1c9858dd081a5cc81b1bd8dad95960721b604082015260600190565b601f82111561133e57600081815260208120601f850160051c810160208610156118675750805b601f850160051c820191505b8181101561188657828155600101611873565b505050505050565b815167ffffffffffffffff8111156118a8576118a861168e565b6118bc816118b684546117b9565b84611840565b602080601f8311600181146118f157600084156118d95750858301515b600019600386901b1c1916600185901b178555611886565b600085815260208120601f198616915b8281101561192057888601518255948401946001909101908401611901565b508582101561193e5787850151600019600388901b60f8161c191681555b5050505050600190811b01905550565b60006020828403121561196057600080fd5b8151611687816115eb56feddf252ad1be2c89b69c2b068fc378daa952ba7f163c4a11628f55a4df523b3efa2646970667358221220c134771ffbd897604b19ded78a5ef5e563116aacab2f63eda446c200afd1e0d364736f6c634300081300338be0079c531659141344cd1fd0a4f28419497f9722a3daafe3b4186f6b6457e0a2646970667358221220a106d5a53f2b4ff226cc8f8f17ec182e17763aefde85a2a542d94924f97411a664736f6c63430008130033",
  "devdoc": {
    "kind": "dev",
    "methods": {
      "owner()": {
        "details": "Returns the address of the current owner."
      },
      "renounceOwnership()": {
        "details": "Leaves the contract without owner. It will not be possible to call `onlyOwner` functions. Can only be called by the current owner. NOTE: Renouncing ownership will leave the contract without an owner, thereby disabling any functionality that is only available to the owner."
      },
      "transferOwnership(address)": {
        "details": "Transfers ownership of the contract to a new account (`newOwner`). Can only be called by the current owner."
      }
    },
    "version": 1
  },
  "userdoc": {
    "kind": "user",
    "methods": {},
    "version": 1
  },
  "storageLayout": {
    "storage": [
      {
        "astId": 7,
        "contract": "contracts/ERC20FactoryKyc.sol:ERC20FactoryKyc",
        "label": "_owner",
        "offset": 0,
        "slot": "0",
        "type": "t_address"
      },
      {
        "astId": 3852,
        "contract": "contracts/ERC20FactoryKyc.sol:ERC20FactoryKyc",
        "label": "name",
        "offset": 0,
        "slot": "1",
        "type": "t_string_storage"
      },
      {
        "astId": 3857,
        "contract": "contracts/ERC20FactoryKyc.sol:ERC20FactoryKyc",
        "label": "tokensByOwner",
        "offset": 0,
        "slot": "2",
        "type": "t_mapping(t_address,t_array(t_address)dyn_storage)"
      },
      {
        "astId": 3860,
        "contract": "contracts/ERC20FactoryKyc.sol:ERC20FactoryKyc",
        "label": "allTokens",
        "offset": 0,
        "slot": "3",
        "type": "t_array(t_address)dyn_storage"
      }
    ],
    "types": {
      "t_address": {
        "encoding": "inplace",
        "label": "address",
        "numberOfBytes": "20"
      },
      "t_array(t_address)dyn_storage": {
        "base": "t_address",
        "encoding": "dynamic_array",
        "label": "address[]",
        "numberOfBytes": "32"
      },
      "t_mapping(t_address,t_array(t_address)dyn_storage)": {
        "encoding": "mapping",
        "key": "t_address",
        "label": "mapping(address => address[])",
        "numberOfBytes": "32",
        "value": "t_array(t_address)dyn_storage"
      },
      "t_string_storage": {
        "encoding": "bytes",
        "label": "string",
        "numberOfBytes": "32"
      }
    }
  }
}