{
  "address": "0xe09d66ab872Da89b2d875E7c86cBe7cC5e3667EA",
  "abi": [
    {
      "inputs": [
        {
          "internalType": "string",
          "name": "_name",
          "type": "string"
        },
        {
          "internalType": "string",
          "name": "_symbol",
          "type": "string"
        }
      ],
      "stateMutability": "nonpayable",
      "type": "constructor"
    },
    {
      "anonymous": false,
      "inputs": [
        {
          "indexed": false,
          "internalType": "uint256",
          "name": "tokenId",
          "type": "uint256"
        },
        {
          "indexed": false,
          "internalType": "address",
          "name": "user",
          "type": "address"
        },
        {
          "indexed": false,
          "internalType": "bool",
          "name": "status",
          "type": "bool"
        }
      ],
      "name": "AddressWhitelisted",
      "type": "event"
    },
    {
      "anonymous": false,
      "inputs": [
        {
          "indexed": true,
          "internalType": "address",
          "name": "owner",
          "type": "address"
        },
        {
          "indexed": true,
          "internalType": "address",
          "name": "approved",
          "type": "address"
        },
        {
          "indexed": true,
          "internalType": "uint256",
          "name": "tokenId",
          "type": "uint256"
        }
      ],
      "name": "Approval",
      "type": "event"
    },
    {
      "anonymous": false,
      "inputs": [
        {
          "indexed": true,
          "internalType": "address",
          "name": "owner",
          "type": "address"
        },
        {
          "indexed": true,
          "internalType": "address",
          "name": "operator",
          "type": "address"
        },
        {
          "indexed": false,
          "internalType": "bool",
          "name": "approved",
          "type": "bool"
        }
      ],
      "name": "ApprovalForAll",
      "type": "event"
    },
    {
      "anonymous": false,
      "inputs": [
        {
          "indexed": false,
          "internalType": "uint256",
          "name": "_fromTokenId",
          "type": "uint256"
        },
        {
          "indexed": false,
          "internalType": "uint256",
          "name": "_toTokenId",
          "type": "uint256"
        }
      ],
      "name": "BatchMetadataUpdate",
      "type": "event"
    },
    {
      "anonymous": false,
      "inputs": [
        {
          "indexed": false,
          "internalType": "uint256",
          "name": "tokenId",
          "type": "uint256"
        },
        {
          "indexed": false,
          "internalType": "bool",
          "name": "enabled",
          "type": "bool"
        }
      ],
      "name": "KYCCheckEnabled",
      "type": "event"
    },
    {
      "anonymous": false,
      "inputs": [
        {
          "indexed": false,
          "internalType": "uint256",
          "name": "tokenId",
          "type": "uint256"
        },
        {
          "indexed": false,
          "internalType": "address",
          "name": "kycContract",
          "type": "address"
        }
      ],
      "name": "KYCContractUpdated",
      "type": "event"
    },
    {
      "anonymous": false,
      "inputs": [
        {
          "indexed": false,
          "internalType": "uint256",
          "name": "tokenId",
          "type": "uint256"
        }
      ],
      "name": "MetadataLocked",
      "type": "event"
    },
    {
      "anonymous": false,
      "inputs": [
        {
          "indexed": false,
          "internalType": "uint256",
          "name": "tokenId",
          "type": "uint256"
        }
      ],
      "name": "MetadataUnlocked",
      "type": "event"
    },
    {
      "anonymous": false,
      "inputs": [
        {
          "indexed": false,
          "internalType": "uint256",
          "name": "_tokenId",
          "type": "uint256"
        }
      ],
      "name": "MetadataUpdate",
      "type": "event"
    },
    {
      "anonymous": false,
      "inputs": [
        {
          "indexed": true,
          "internalType": "address",
          "name": "previousOwner",
          "type": "address"
        },
        {
          "indexed": true,
          "internalType": "address",
          "name": "newOwner",
          "type": "address"
        }
      ],
      "name": "OwnershipTransferred",
      "type": "event"
    },
    {
      "anonymous": false,
      "inputs": [
        {
          "indexed": false,
          "internalType": "address",
          "name": "account",
          "type": "address"
        }
      ],
      "name": "Paused",
      "type": "event"
    },
    {
      "anonymous": false,
      "inputs": [
        {
          "indexed": false,
          "internalType": "uint256",
          "name": "tokenId",
          "type": "uint256"
        },
        {
          "indexed": false,
          "internalType": "bool",
          "name": "enabled",
          "type": "bool"
        }
      ],
      "name": "SanctionsCheckEnabled",
      "type": "event"
    },
    {
      "anonymous": false,
      "inputs": [
        {
          "indexed": false,
          "internalType": "uint256",
          "name": "tokenId",
          "type": "uint256"
        },
        {
          "indexed": false,
          "internalType": "address",
          "name": "to",
          "type": "address"
        }
      ],
      "name": "TokenMinted",
      "type": "event"
    },
    {
      "anonymous": false,
      "inputs": [
        {
          "indexed": false,
          "internalType": "uint256",
          "name": "tokenId",
          "type": "uint256"
        }
      ],
      "name": "TokenPaused",
      "type": "event"
    },
    {
      "anonymous": false,
      "inputs": [
        {
          "indexed": false,
          "internalType": "uint256",
          "name": "tokenId",
          "type": "uint256"
        }
      ],
      "name": "TokenUnpaused",
      "type": "event"
    },
    {
      "anonymous": false,
      "inputs": [
        {
          "indexed": true,
          "internalType": "address",
          "name": "from",
          "type": "address"
        },
        {
          "indexed": true,
          "internalType": "address",
          "name": "to",
          "type": "address"
        },
        {
          "indexed": true,
          "internalType": "uint256",
          "name": "tokenId",
          "type": "uint256"
        }
      ],
      "name": "Transfer",
      "type": "event"
    },
    {
      "anonymous": false,
      "inputs": [
        {
          "indexed": false,
          "internalType": "address",
          "name": "account",
          "type": "address"
        }
      ],
      "name": "Unpaused",
      "type": "event"
    },
    {
      "anonymous": false,
      "inputs": [
        {
          "indexed": false,
          "internalType": "uint256",
          "name": "tokenId",
          "type": "uint256"
        },
        {
          "indexed": false,
          "internalType": "bool",
          "name": "enabled",
          "type": "bool"
        }
      ],
      "name": "WhitelistEnabled",
      "type": "event"
    },
    {
      "inputs": [
        {
          "internalType": "address",
          "name": "to",
          "type": "address"
        },
        {
          "internalType": "uint256",
          "name": "tokenId",
          "type": "uint256"
        }
      ],
      "name": "approve",
      "outputs": [],
      "stateMutability": "nonpayable",
      "type": "function"
    },
    {
      "inputs": [
        {
          "internalType": "address",
          "name": "owner",
          "type": "address"
        }
      ],
      "name": "balanceOf",
      "outputs": [
        {
          "internalType": "uint256",
          "name": "",
          "type": "uint256"
        }
      ],
      "stateMutability": "view",
      "type": "function"
    },
    {
      "inputs": [
        {
          "internalType": "uint256",
          "name": "tokenId",
          "type": "uint256"
        }
      ],
      "name": "getApproved",
      "outputs": [
        {
          "internalType": "address",
          "name": "",
          "type": "address"
        }
      ],
      "stateMutability": "view",
      "type": "function"
    },
    {
      "inputs": [
        {
          "internalType": "address",
          "name": "owner",
          "type": "address"
        },
        {
          "internalType": "address",
          "name": "operator",
          "type": "address"
        }
      ],
      "name": "isApprovedForAll",
      "outputs": [
        {
          "internalType": "bool",
          "name": "",
          "type": "bool"
        }
      ],
      "stateMutability": "view",
      "type": "function"
    },
    {
      "inputs": [
        {
          "internalType": "uint256",
          "name": "tokenId",
          "type": "uint256"
        }
      ],
      "name": "lock",
      "outputs": [],
      "stateMutability": "nonpayable",
      "type": "function"
    },
    {
      "inputs": [
        {
          "internalType": "address",
          "name": "to",
          "type": "address"
        },
        {
          "internalType": "string",
          "name": "tokenURI",
          "type": "string"
        },
        {
          "internalType": "address",
          "name": "linkedToken",
          "type": "address"
        },
        {
          "internalType": "string[]",
          "name": "linkedTokenInterfaces",
          "type": "string[]"
        }
      ],
      "name": "mint",
      "outputs": [],
      "stateMutability": "nonpayable",
      "type": "function"
    },
    {
      "inputs": [
        {
          "internalType": "address",
          "name": "to",
          "type": "address"
        },
        {
          "internalType": "string",
          "name": "tokenURI",
          "type": "string"
        },
        {
          "internalType": "address",
          "name": "linkedToken",
          "type": "address"
        },
        {
          "internalType": "string[]",
          "name": "linkedTokenInterfaces",
          "type": "string[]"
        },
        {
          "internalType": "bool",
          "name": "kycCheckEnabled",
          "type": "bool"
        },
        {
          "internalType": "bool",
          "name": "whitelistEnabled",
          "type": "bool"
        },
        {
          "internalType": "address",
          "name": "kycContract",
          "type": "address"
        },
        {
          "internalType": "address[]",
          "name": "whitelistAddresses",
          "type": "address[]"
        }
      ],
      "name": "mint",
      "outputs": [],
      "stateMutability": "nonpayable",
      "type": "function"
    },
    {
      "inputs": [],
      "name": "name",
      "outputs": [
        {
          "internalType": "string",
          "name": "",
          "type": "string"
        }
      ],
      "stateMutability": "view",
      "type": "function"
    },
    {
      "inputs": [
        {
          "internalType": "uint256",
          "name": "",
          "type": "uint256"
        }
      ],
      "name": "nftData",
      "outputs": [
        {
          "internalType": "string",
          "name": "status",
          "type": "string"
        },
        {
          "internalType": "address",
          "name": "linkedToken",
          "type": "address"
        },
        {
          "internalType": "bool",
          "name": "locked",
          "type": "bool"
        },
        {
          "internalType": "bool",
          "name": "paused",
          "type": "bool"
        }
      ],
      "stateMutability": "view",
      "type": "function"
    },
    {
      "inputs": [
        {
          "internalType": "uint256",
          "name": "",
          "type": "uint256"
        }
      ],
      "name": "nftKycData",
      "outputs": [
        {
          "internalType": "bool",
          "name": "kycCheckEnabled",
          "type": "bool"
        },
        {
          "internalType": "bool",
          "name": "whitelistEnabled",
          "type": "bool"
        },
        {
          "internalType": "address",
          "name": "kycContract",
          "type": "address"
        }
      ],
      "stateMutability": "view",
      "type": "function"
    },
    {
      "inputs": [],
      "name": "onlyOwnerCanMint",
      "outputs": [
        {
          "internalType": "bool",
          "name": "",
          "type": "bool"
        }
      ],
      "stateMutability": "view",
      "type": "function"
    },
    {
      "inputs": [],
      "name": "owner",
      "outputs": [
        {
          "internalType": "address",
          "name": "",
          "type": "address"
        }
      ],
      "stateMutability": "view",
      "type": "function"
    },
    {
      "inputs": [
        {
          "internalType": "uint256",
          "name": "tokenId",
          "type": "uint256"
        }
      ],
      "name": "ownerOf",
      "outputs": [
        {
          "internalType": "address",
          "name": "",
          "type": "address"
        }
      ],
      "stateMutability": "view",
      "type": "function"
    },
    {
      "inputs": [],
      "name": "pauseAll",
      "outputs": [],
      "stateMutability": "nonpayable",
      "type": "function"
    },
    {
      "inputs": [
        {
          "internalType": "uint256",
          "name": "tokenId",
          "type": "uint256"
        }
      ],
      "name": "pauseToken",
      "outputs": [],
      "stateMutability": "nonpayable",
      "type": "function"
    },
    {
      "inputs": [],
      "name": "paused",
      "outputs": [
        {
          "internalType": "bool",
          "name": "",
          "type": "bool"
        }
      ],
      "stateMutability": "view",
      "type": "function"
    },
    {
      "inputs": [],
      "name": "renounceOwnership",
      "outputs": [],
      "stateMutability": "nonpayable",
      "type": "function"
    },
    {
      "inputs": [
        {
          "internalType": "address",
          "name": "from",
          "type": "address"
        },
        {
          "internalType": "address",
          "name": "to",
          "type": "address"
        },
        {
          "internalType": "uint256",
          "name": "tokenId",
          "type": "uint256"
        }
      ],
      "name": "safeTransferFrom",
      "outputs": [],
      "stateMutability": "nonpayable",
      "type": "function"
    },
    {
      "inputs": [
        {
          "internalType": "address",
          "name": "from",
          "type": "address"
        },
        {
          "internalType": "address",
          "name": "to",
          "type": "address"
        },
        {
          "internalType": "uint256",
          "name": "tokenId",
          "type": "uint256"
        },
        {
          "internalType": "bytes",
          "name": "data",
          "type": "bytes"
        }
      ],
      "name": "safeTransferFrom",
      "outputs": [],
      "stateMutability": "nonpayable",
      "type": "function"
    },
    {
      "inputs": [
        {
          "internalType": "address",
          "name": "operator",
          "type": "address"
        },
        {
          "internalType": "bool",
          "name": "approved",
          "type": "bool"
        }
      ],
      "name": "setApprovalForAll",
      "outputs": [],
      "stateMutability": "nonpayable",
      "type": "function"
    },
    {
      "inputs": [
        {
          "internalType": "bool",
          "name": "_onlyOwnerCanMint",
          "type": "bool"
        }
      ],
      "name": "setOnlyOwnerCanMint",
      "outputs": [],
      "stateMutability": "nonpayable",
      "type": "function"
    },
    {
      "inputs": [
        {
          "internalType": "bytes4",
          "name": "interfaceId",
          "type": "bytes4"
        }
      ],
      "name": "supportsInterface",
      "outputs": [
        {
          "internalType": "bool",
          "name": "",
          "type": "bool"
        }
      ],
      "stateMutability": "view",
      "type": "function"
    },
    {
      "inputs": [],
      "name": "symbol",
      "outputs": [
        {
          "internalType": "string",
          "name": "",
          "type": "string"
        }
      ],
      "stateMutability": "view",
      "type": "function"
    },
    {
      "inputs": [
        {
          "internalType": "uint256",
          "name": "tokenId",
          "type": "uint256"
        }
      ],
      "name": "tokenURI",
      "outputs": [
        {
          "internalType": "string",
          "name": "",
          "type": "string"
        }
      ],
      "stateMutability": "view",
      "type": "function"
    },
    {
      "inputs": [
        {
          "internalType": "address",
          "name": "",
          "type": "address"
        },
        {
          "internalType": "uint256",
          "name": "",
          "type": "uint256"
        }
      ],
      "name": "tokensByAddress",
      "outputs": [
        {
          "internalType": "uint256",
          "name": "",
          "type": "uint256"
        }
      ],
      "stateMutability": "view",
      "type": "function"
    },
    {
      "inputs": [
        {
          "internalType": "address",
          "name": "from",
          "type": "address"
        },
        {
          "internalType": "address",
          "name": "to",
          "type": "address"
        },
        {
          "internalType": "uint256",
          "name": "tokenId",
          "type": "uint256"
        }
      ],
      "name": "transferFrom",
      "outputs": [],
      "stateMutability": "nonpayable",
      "type": "function"
    },
    {
      "inputs": [
        {
          "internalType": "address",
          "name": "newOwner",
          "type": "address"
        }
      ],
      "name": "transferOwnership",
      "outputs": [],
      "stateMutability": "nonpayable",
      "type": "function"
    },
    {
      "inputs": [
        {
          "internalType": "uint256",
          "name": "tokenId",
          "type": "uint256"
        }
      ],
      "name": "unlock",
      "outputs": [],
      "stateMutability": "nonpayable",
      "type": "function"
    },
    {
      "inputs": [],
      "name": "unpauseAll",
      "outputs": [],
      "stateMutability": "nonpayable",
      "type": "function"
    },
    {
      "inputs": [
        {
          "internalType": "uint256",
          "name": "tokenId",
          "type": "uint256"
        }
      ],
      "name": "unpauseToken",
      "outputs": [],
      "stateMutability": "nonpayable",
      "type": "function"
    },
    {
      "inputs": [
        {
          "internalType": "uint256",
          "name": "tokenId",
          "type": "uint256"
        },
        {
          "internalType": "string",
          "name": "status",
          "type": "string"
        },
        {
          "internalType": "string",
          "name": "tokenURI",
          "type": "string"
        },
        {
          "internalType": "bool",
          "name": "kycCheckEnabled",
          "type": "bool"
        },
        {
          "internalType": "bool",
          "name": "whitelistEnabled",
          "type": "bool"
        },
        {
          "internalType": "address",
          "name": "kycContract",
          "type": "address"
        },
        {
          "internalType": "address[]",
          "name": "whitelistAddresses",
          "type": "address[]"
        }
      ],
      "name": "updateNFT",
      "outputs": [],
      "stateMutability": "nonpayable",
      "type": "function"
    },
    {
      "inputs": [
        {
          "internalType": "uint256",
          "name": "tokenId",
          "type": "uint256"
        },
        {
          "internalType": "string",
          "name": "status",
          "type": "string"
        },
        {
          "internalType": "string",
          "name": "tokenURI",
          "type": "string"
        }
      ],
      "name": "updateNFT",
      "outputs": [],
      "stateMutability": "nonpayable",
      "type": "function"
    }
  ],
  "transactionHash": "0x24c4d9c79a0198930cef5e7facc004ac9b6bf17743a8dc9bc6c19117af25620c",
  "args": [
    "NFT KYC Factory",
    "NFTKYC"
  ],
  "numDeployments": 1,
  "solcInputHash": "1fed855af4554d94fc0cc2bc9131daeb",
  "bytecode": "0x6080604052600b805460ff191690553480156200001b57600080fd5b5060405162003497380380620034978339810160408190526200003e91620001af565b818181816000620000508382620002a8565b5060016200005f8282620002a8565b5050506200007c620000766200009460201b60201c565b62000098565b50506007805460ff60a01b1916905550620003749050565b3390565b600780546001600160a01b038381166001600160a01b0319831681179093556040519116919082907f8be0079c531659141344cd1fd0a4f28419497f9722a3daafe3b4186f6b6457e090600090a35050565b634e487b7160e01b600052604160045260246000fd5b600082601f8301126200011257600080fd5b81516001600160401b03808211156200012f576200012f620000ea565b604051601f8301601f19908116603f011681019082821181831017156200015a576200015a620000ea565b816040528381526020925086838588010111156200017757600080fd5b600091505b838210156200019b57858201830151818301840152908201906200017c565b600093810190920192909252949350505050565b60008060408385031215620001c357600080fd5b82516001600160401b0380821115620001db57600080fd5b620001e98683870162000100565b935060208501519150808211156200020057600080fd5b506200020f8582860162000100565b9150509250929050565b600181811c908216806200022e57607f821691505b6020821081036200024f57634e487b7160e01b600052602260045260246000fd5b50919050565b601f821115620002a357600081815260208120601f850160051c810160208610156200027e5750805b601f850160051c820191505b818110156200029f578281556001016200028a565b5050505b505050565b81516001600160401b03811115620002c457620002c4620000ea565b620002dc81620002d5845462000219565b8462000255565b602080601f831160018114620003145760008415620002fb5750858301515b600019600386901b1c1916600185901b1785556200029f565b600085815260208120601f198616915b82811015620003455788860151825594840194600190910190840162000324565b5085821015620003645787850151600019600388901b60f8161c191681555b5050505050600190811b01905550565b61311380620003846000396000f3fe608060405234801561001057600080fd5b50600436106101b05760003560e01c80638a2ddd03116100ef578063bafd02fb11610092578063bafd02fb146103ca578063c87b56dd146103dd578063dd467064146103f0578063e985e9c514610403578063ef96652314610416578063f2fde38b14610429578063fbd395f81461043c578063fda361641461044f57600080fd5b80638a2ddd03146102f25780638c210975146102fa5780638da5cb5b1461031d57806395d89b41146103255780639802f6e91461032d578063a22cb46514610391578063b88d4fde146103a4578063ba27d56f146103b757600080fd5b80635c975abb116101575780635c975abb146102685780636198e339146102705780636352211e1461028357806370a0823114610296578063715018a6146102b757806374546e25146102bf578063776ab634146102d257806385d098dc146102e557600080fd5b806301ffc9a7146101b557806306fdde03146101dd578063081812fc146101f2578063095ea7b31461021257806323b872dd1461022757806342842e0e1461023a578063595c6a671461024d5780635bb9458914610255575b600080fd5b6101c86101c336600461251c565b610462565b60405190151581526020015b60405180910390f35b6101e561048d565b6040516101d49190612589565b61020561020036600461259c565b61051f565b6040516101d491906125b5565b6102256102203660046125e5565b610546565b005b61022561023536600461260f565b610660565b61022561024836600461260f565b610691565b6102256106ac565b610225610263366004612664565b6106be565b6101c86106d9565b61022561027e36600461259c565b6106e9565b61020561029136600461259c565b61076c565b6102a96102a4366004612681565b6107a0565b6040519081526020016101d4565b610225610826565b6102256102cd36600461280b565b610838565b6102256102e036600461259c565b6109ea565b600b546101c89060ff1681565b610225610abf565b61030d61030836600461259c565b610acf565b6040516101d4949392919061288f565b610205610b8f565b6101e5610b9e565b61036b61033b36600461259c565b600d6020526000908152604090205460ff808216916101008104909116906201000090046001600160a01b031683565b60408051931515845291151560208401526001600160a01b0316908201526060016101d4565b61022561039f3660046128c9565b610bad565b6102256103b2366004612900565b610bbc565b6102a96103c53660046125e5565b610bf4565b6102256103d83660046129d1565b610c25565b6101e56103eb36600461259c565b610e1d565b6102256103fe36600461259c565b610f2d565b6101c8610411366004612a9d565b610ffc565b610225610424366004612ad0565b61102a565b610225610437366004612681565b611263565b61022561044a36600461259c565b6112dc565b61022561045d366004612bab565b6113ad565b60006001600160e01b03198216632483248360e11b1480610487575061048782611492565b92915050565b60606000805461049c90612c17565b80601f01602080910402602001604051908101604052809291908181526020018280546104c890612c17565b80156105155780601f106104ea57610100808354040283529160200191610515565b820191906000526020600020905b8154815290600101906020018083116104f857829003601f168201915b5050505050905090565b600061052a826114e2565b506000908152600460205260409020546001600160a01b031690565b60006105518261076c565b9050806001600160a01b0316836001600160a01b0316036105c35760405162461bcd60e51b815260206004820152602160248201527f4552433732313a20617070726f76616c20746f2063757272656e74206f776e656044820152603960f91b60648201526084015b60405180910390fd5b336001600160a01b03821614806105df57506105df8133610ffc565b6106515760405162461bcd60e51b815260206004820152603d60248201527f4552433732313a20617070726f76652063616c6c6572206973206e6f7420746f60448201527f6b656e206f776e6572206f7220617070726f76656420666f7220616c6c00000060648201526084016105ba565b61065b8383611507565b505050565b61066a3382611575565b6106865760405162461bcd60e51b81526004016105ba90612c51565b61065b8383836115d3565b61065b83838360405180602001604052806000815250610bbc565b6106b4611744565b6106bc6117a3565b565b6106c6611744565b600b805460ff1916911515919091179055565b600754600160a01b900460ff1690565b6106f1611744565b6106fa816117fd565b6107165760405162461bcd60e51b81526004016105ba90612c9e565b60008181526009602052604090819020600301805460ff19169055517f15231ceabda9f4f9436b8f17a28b36c21c8e434c821082aa1cfb3fcc994fe6c0906107619083815260200190565b60405180910390a150565b6000806107788361181a565b90506001600160a01b0381166104875760405162461bcd60e51b81526004016105ba90612cca565b60006001600160a01b03821661080a5760405162461bcd60e51b815260206004820152602960248201527f4552433732313a2061646472657373207a65726f206973206e6f7420612076616044820152683634b21037bbb732b960b91b60648201526084016105ba565b506001600160a01b031660009081526003602052604090205490565b61082e611744565b6106bc6000611835565b610840611887565b600b5460ff16158061086a5750610855610b8f565b6001600160a01b0316336001600160a01b0316145b6108865760405162461bcd60e51b81526004016105ba90612cfc565b600061089160085490565b90506108a1600880546001019055565b6108ab85826118cf565b6108b581856118e9565b6001600160a01b038086166000908152600a60209081526040808320805460018101825590845282842001859055805160e081018252600660a082019081526561637469766560d01b60c0830152815293871684830152838101869052606084018390526080840183905284835260099091529020815181906109389082612d8c565b506020828101516001830180546001600160a01b0319166001600160a01b03909216919091179055604083015180516109779260028501920190612449565b5060608201516003909101805460809093015115156101000261ff00199215159290921661ffff19909316929092171790556040517f3a5398bda6f1f57d6c96834fa9bf02b5517bdc847d14312015a917ba421c31c9906109db9083908890612e4b565b60405180910390a15050505050565b6109f2611744565b6109fb816117fd565b610a175760405162461bcd60e51b81526004016105ba90612c9e565b610a1f610b8f565b6001600160a01b0316336001600160a01b03161480610a575750610a428161076c565b6001600160a01b0316336001600160a01b0316145b610a735760405162461bcd60e51b81526004016105ba90612e62565b60008181526009602052604090819020600301805461ff0019169055517f0cfa9cc56bacd896c88effb6a4051b954fcaaf2de7ae98882e39f294ea651843906107619083815260200190565b610ac7611744565b6106bc6119a5565b600960205260009081526040902080548190610aea90612c17565b80601f0160208091040260200160405190810160405280929190818152602001828054610b1690612c17565b8015610b635780601f10610b3857610100808354040283529160200191610b63565b820191906000526020600020905b815481529060010190602001808311610b4657829003601f168201915b50505050600183015460039093015491926001600160a01b03169160ff80821692506101009091041684565b6007546001600160a01b031690565b60606001805461049c90612c17565b610bb83383836119e1565b5050565b610bc63383611575565b610be25760405162461bcd60e51b81526004016105ba90612c51565b610bee84848484611aab565b50505050565b600a6020528160005260406000208181548110610c1057600080fd5b90600052602060002001600091509150505481565b610c2e876117fd565b610c4a5760405162461bcd60e51b81526004016105ba90612c9e565b610c52610b8f565b6001600160a01b0316336001600160a01b03161480610c8a5750610c758761076c565b6001600160a01b0316336001600160a01b0316145b610ca65760405162461bcd60e51b81526004016105ba90612e62565b60008781526009602052604090206003015460ff1615610cd85760405162461bcd60e51b81526004016105ba90612ea6565b855115610cf9576000878152600960205260409020610cf78782612d8c565b505b845115610d0a57610d0a87866118e9565b8315610d2b576000878152600d60205260409020805460ff19168515151790555b8215610d51576000878152600d60205260409020805461ff001916610100851515021790555b6001600160a01b03821615610d8f576000878152600d60205260409020805462010000600160b01b031916620100006001600160a01b038516021790555b805115610e145760005b8151811015610e12576001600d60008a81526020019081526020016000206001016000848481518110610dce57610dce612ed2565b6020908102919091018101516001600160a01b03168252810191909152604001600020805460ff191691151591909117905580610e0a81612efe565b915050610d99565b505b50505050505050565b6060610e28826114e2565b60008281526006602052604081208054610e4190612c17565b80601f0160208091040260200160405190810160405280929190818152602001828054610e6d90612c17565b8015610eba5780601f10610e8f57610100808354040283529160200191610eba565b820191906000526020600020905b815481529060010190602001808311610e9d57829003601f168201915b505050505090506000610ed860408051602081019091526000815290565b90508051600003610eea575092915050565b815115610f1c578082604051602001610f04929190612f17565b60405160208183030381529060405292505050919050565b610f2584611ade565b949350505050565b610f36816117fd565b610f525760405162461bcd60e51b81526004016105ba90612c9e565b610f5a610b8f565b6001600160a01b0316336001600160a01b03161480610f925750610f7d8161076c565b6001600160a01b0316336001600160a01b0316145b610fae5760405162461bcd60e51b81526004016105ba90612e62565b60008181526009602052604090819020600301805460ff19166001179055517f0b102582412c868866f81f4a2d5f0632027804dda110c66f39e5a9b83340c95d906107619083815260200190565b6001600160a01b03918216600090815260056020908152604080832093909416825291909152205460ff1690565b600b5460ff161580611054575061103f610b8f565b6001600160a01b0316336001600160a01b0316145b6110705760405162461bcd60e51b81526004016105ba90612cfc565b600061107b600c5490565b905061108b600c80546001019055565b61109589826118cf565b61109f81896118e9565b604080518082018252600681526561637469766560d01b6020808301919091526000848152600990915291909120906110d89082612d8c565b5060008181526009602090815260409091206001810180546001600160a01b0319166001600160a01b038b16179055875161111b92600290920191890190612449565b506000818152600960209081526040808320600301805461ffff19908116909155600d9092528220805490911661ff00198815151617610100871515021762010000600160b01b031916620100006001600160a01b038716021790555b82518110156111f1576001600d600084815260200190815260200160002060010160008584815181106111ad576111ad612ed2565b6020908102919091018101516001600160a01b03168252810191909152604001600020805460ff1916911515919091179055806111e981612efe565b915050611178565b506001600160a01b0389166000908152600a6020908152604080832080546001810182559084529190922001829055517f3a5398bda6f1f57d6c96834fa9bf02b5517bdc847d14312015a917ba421c31c9906112509083908c90612e4b565b60405180910390a1505050505050505050565b61126b611744565b6001600160a01b0381166112d05760405162461bcd60e51b815260206004820152602660248201527f4f776e61626c653a206e6577206f776e657220697320746865207a65726f206160448201526564647265737360d01b60648201526084016105ba565b6112d981611835565b50565b6112e5816117fd565b6113015760405162461bcd60e51b81526004016105ba90612c9e565b611309610b8f565b6001600160a01b0316336001600160a01b03161480611341575061132c8161076c565b6001600160a01b0316336001600160a01b0316145b61135d5760405162461bcd60e51b81526004016105ba90612e62565b60008181526009602052604090819020600301805461ff001916610100179055517fc2d830ac158eec7b589dfadf012044c95b8646222991556ab4cd311e38bc77d1906107619083815260200190565b6113b6836117fd565b6113d25760405162461bcd60e51b81526004016105ba90612c9e565b6113da610b8f565b6001600160a01b0316336001600160a01b0316148061141257506113fd8361076c565b6001600160a01b0316336001600160a01b0316145b61142e5760405162461bcd60e51b81526004016105ba90612e62565b60008381526009602052604090206003015460ff16156114605760405162461bcd60e51b81526004016105ba90612ea6565b81511561148157600083815260096020526040902061147f8382612d8c565b505b80511561065b5761065b83826118e9565b60006001600160e01b031982166380ac58cd60e01b14806114c357506001600160e01b03198216635b5e139f60e01b145b8061048757506301ffc9a760e01b6001600160e01b0319831614610487565b6114eb816117fd565b6112d95760405162461bcd60e51b81526004016105ba90612cca565b600081815260046020526040902080546001600160a01b0319166001600160a01b038416908117909155819061153c8261076c565b6001600160a01b03167f8c5be1e5ebec7d5bd14f71427d1e84f3dd0314c0f7b2291e5b200ac8c7c3b92560405160405180910390a45050565b6000806115818361076c565b9050806001600160a01b0316846001600160a01b031614806115a857506115a88185610ffc565b80610f255750836001600160a01b03166115c18461051f565b6001600160a01b031614949350505050565b826001600160a01b03166115e68261076c565b6001600160a01b03161461160c5760405162461bcd60e51b81526004016105ba90612f46565b6001600160a01b03821661166e5760405162461bcd60e51b8152602060048201526024808201527f4552433732313a207472616e7366657220746f20746865207a65726f206164646044820152637265737360e01b60648201526084016105ba565b61167b8383836001611b52565b826001600160a01b031661168e8261076c565b6001600160a01b0316146116b45760405162461bcd60e51b81526004016105ba90612f46565b600081815260046020908152604080832080546001600160a01b03199081169091556001600160a01b0387811680865260038552838620805460001901905590871680865283862080546001019055868652600290945282852080549092168417909155905184937fddf252ad1be2c89b69c2b068fc378daa952ba7f163c4a11628f55a4df523b3ef91a4505050565b3361174d610b8f565b6001600160a01b0316146106bc5760405162461bcd60e51b815260206004820181905260248201527f4f776e61626c653a2063616c6c6572206973206e6f7420746865206f776e657260448201526064016105ba565b6117ab611887565b6007805460ff60a01b1916600160a01b1790557f62e78cea01bee320cd4e420270b5ea74000d11b0c9f74754ebdbfc544b05a2586117e63390565b6040516117f391906125b5565b60405180910390a1565b6000806118098361181a565b6001600160a01b0316141592915050565b6000908152600260205260409020546001600160a01b031690565b600780546001600160a01b038381166001600160a01b0319831681179093556040519116919082907f8be0079c531659141344cd1fd0a4f28419497f9722a3daafe3b4186f6b6457e090600090a35050565b61188f6106d9565b156106bc5760405162461bcd60e51b815260206004820152601060248201526f14185d5cd8589b194e881c185d5cd95960821b60448201526064016105ba565b610bb8828260405180602001604052806000815250611ee4565b6118f2826117fd565b6119555760405162461bcd60e51b815260206004820152602e60248201527f45524337323155524953746f726167653a2055524920736574206f66206e6f6e60448201526d32bc34b9ba32b73a103a37b5b2b760911b60648201526084016105ba565b600082815260066020526040902061196d8282612d8c565b506040518281527ff8e1a15aba9398e019f0b49df1a4fde98ee17ae345cb5f6b5e2c27f5033e8ce79060200160405180910390a15050565b6119ad611f17565b6007805460ff60a01b191690557f5db9ee0a495bf2e6ff9c91a7834c1ba4fdd244a5e8aa4e537bd38aeae4b073aa336117e6565b816001600160a01b0316836001600160a01b031603611a3e5760405162461bcd60e51b815260206004820152601960248201527822a9219b99189d1030b8383937bb32903a379031b0b63632b960391b60448201526064016105ba565b6001600160a01b03838116600081815260056020908152604080832094871680845294825291829020805460ff191686151590811790915591519182527f17307eab39ab6107e8899845ad3d59bd9653f200f220920489ca2b5937696c31910160405180910390a3505050565b611ab68484846115d3565b611ac284848484611f62565b610bee5760405162461bcd60e51b81526004016105ba90612f8b565b6060611ae9826114e2565b6000611b0060408051602081019091526000815290565b90506000815111611b205760405180602001604052806000815250611b4b565b80611b2a84612063565b604051602001611b3b929190612f17565b6040516020818303038152906040525b9392505050565b611b5a611887565b600082815260096020526040902060030154610100900460ff1615611b915760405162461bcd60e51b81526004016105ba90612fdd565b6000828152600d602052604090205460ff1615611d1e576000828152600d6020526040908190205490516313289ea360e31b8152620100009091046001600160a01b031690639944f51890611bea9086906004016125b5565b602060405180830381865afa158015611c07573d6000803e3d6000fd5b505050506040513d601f19601f82011682018060405250810190611c2b9190613006565b8015611cb557506000828152600d602052604090819020549051630add9f7f60e01b8152620100009091046001600160a01b031690630add9f7f90611c749086906004016125b5565b602060405180830381865afa158015611c91573d6000803e3d6000fd5b505050506040513d601f19601f82011682018060405250810190611cb59190613006565b611d1e5760405162461bcd60e51b815260206004820152603460248201527f526563697069656e7420686173206e6f7420706173736564204b5943206f72206044820152736973206e6f742053616e6374696f6e735361666560601b60648201526084016105ba565b6000828152600d6020526040902054610100900460ff1615611db9576000828152600d602090815260408083206001600160a01b038716845260010190915290205460ff16611db95760405162461bcd60e51b815260206004820152602160248201527f526563697069656e74206973206e6f7420696e207468652077686974656c69736044820152601d60fa1b60648201526084016105ba565b6001600160a01b03841615611e9d576001600160a01b0384166000908152600a60205260408120815b8154811015611e285784828281548110611dfe57611dfe612ed2565b906000526020600020015403611e1657809250611e28565b80611e2081612efe565b915050611de2565b5080548190611e3990600190613023565b81548110611e4957611e49612ed2565b9060005260206000200154818381548110611e6657611e66612ed2565b906000526020600020018190555080805480611e8457611e84613036565b6001900381819060005260206000200160009055905550505b6001600160a01b03831615611ed8576001600160a01b0383166000908152600a60209081526040822080546001810182559083529120018290555b610bee848484846120f5565b611eee8383612258565b611efb6000848484611f62565b61065b5760405162461bcd60e51b81526004016105ba90612f8b565b611f1f6106d9565b6106bc5760405162461bcd60e51b815260206004820152601460248201527314185d5cd8589b194e881b9bdd081c185d5cd95960621b60448201526064016105ba565b60006001600160a01b0384163b1561205857604051630a85bd0160e11b81526001600160a01b0385169063150b7a0290611fa690339089908890889060040161304c565b6020604051808303816000875af1925050508015611fe1575060408051601f3d908101601f19168201909252611fde91810190613089565b60015b61203e573d80801561200f576040519150601f19603f3d011682016040523d82523d6000602084013e612014565b606091505b5080516000036120365760405162461bcd60e51b81526004016105ba90612f8b565b805181602001fd5b6001600160e01b031916630a85bd0160e11b149050610f25565b506001949350505050565b6060600061207083612373565b60010190506000816001600160401b0381111561208f5761208f61269c565b6040519080825280601f01601f1916602001820160405280156120b9576020820181803683370190505b5090508181016020015b600019016f181899199a1a9b1b9c1cb0b131b232b360811b600a86061a8153600a85049450846120c357509392505050565b6120fd611887565b600082815260096020526040902060030154610100900460ff16156121345760405162461bcd60e51b81526004016105ba90612fdd565b6001600160a01b03841615612218576001600160a01b0384166000908152600a60205260408120815b81548110156121a3578482828154811061217957612179612ed2565b906000526020600020015403612191578092506121a3565b8061219b81612efe565b91505061215d565b50805481906121b490600190613023565b815481106121c4576121c4612ed2565b90600052602060002001548183815481106121e1576121e1612ed2565b9060005260206000200181905550808054806121ff576121ff613036565b6001900381819060005260206000200160009055905550505b6001600160a01b03831615612253576001600160a01b0383166000908152600a60209081526040822080546001810182559083529120018290555b610bee565b6001600160a01b0382166122ae5760405162461bcd60e51b815260206004820181905260248201527f4552433732313a206d696e7420746f20746865207a65726f206164647265737360448201526064016105ba565b6122b7816117fd565b156122d45760405162461bcd60e51b81526004016105ba906130a6565b6122e2600083836001611b52565b6122eb816117fd565b156123085760405162461bcd60e51b81526004016105ba906130a6565b6001600160a01b038216600081815260036020908152604080832080546001019055848352600290915280822080546001600160a01b0319168417905551839291907fddf252ad1be2c89b69c2b068fc378daa952ba7f163c4a11628f55a4df523b3ef908290a45050565b60008072184f03e93ff9f4daa797ed6e38ed64bf6a1f0160401b83106123b25772184f03e93ff9f4daa797ed6e38ed64bf6a1f0160401b830492506040015b6904ee2d6d415b85acef8160201b83106123dc576904ee2d6d415b85acef8160201b830492506020015b662386f26fc1000083106123fa57662386f26fc10000830492506010015b6305f5e1008310612412576305f5e100830492506008015b612710831061242657612710830492506004015b60648310612438576064830492506002015b600a83106104875760010192915050565b82805482825590600052602060002090810192821561248f579160200282015b8281111561248f578251829061247f9082612d8c565b5091602001919060010190612469565b5061249b92915061249f565b5090565b8082111561249b5760006124b382826124bc565b5060010161249f565b5080546124c890612c17565b6000825580601f106124d8575050565b601f0160209004906000526020600020908101906112d991905b8082111561249b57600081556001016124f2565b6001600160e01b0319811681146112d957600080fd5b60006020828403121561252e57600080fd5b8135611b4b81612506565b60005b8381101561255457818101518382015260200161253c565b50506000910152565b60008151808452612575816020860160208601612539565b601f01601f19169290920160200192915050565b602081526000611b4b602083018461255d565b6000602082840312156125ae57600080fd5b5035919050565b6001600160a01b0391909116815260200190565b80356001600160a01b03811681146125e057600080fd5b919050565b600080604083850312156125f857600080fd5b612601836125c9565b946020939093013593505050565b60008060006060848603121561262457600080fd5b61262d846125c9565b925061263b602085016125c9565b9150604084013590509250925092565b80151581146112d957600080fd5b80356125e08161264b565b60006020828403121561267657600080fd5b8135611b4b8161264b565b60006020828403121561269357600080fd5b611b4b826125c9565b634e487b7160e01b600052604160045260246000fd5b604051601f8201601f191681016001600160401b03811182821017156126da576126da61269c565b604052919050565b60006001600160401b038311156126fb576126fb61269c565b61270e601f8401601f19166020016126b2565b905082815283838301111561272257600080fd5b828260208301376000602084830101529392505050565b600082601f83011261274a57600080fd5b611b4b838335602085016126e2565b60006001600160401b038211156127725761277261269c565b5060051b60200190565b600082601f83011261278d57600080fd5b813560206127a261279d83612759565b6126b2565b82815260059290921b840181019181810190868411156127c157600080fd5b8286015b848110156128005780356001600160401b038111156127e45760008081fd5b6127f28986838b0101612739565b8452509183019183016127c5565b509695505050505050565b6000806000806080858703121561282157600080fd5b61282a856125c9565b935060208501356001600160401b038082111561284657600080fd5b61285288838901612739565b9450612860604088016125c9565b9350606087013591508082111561287657600080fd5b506128838782880161277c565b91505092959194509250565b6080815260006128a2608083018761255d565b6001600160a01b039590951660208301525091151560408301521515606090910152919050565b600080604083850312156128dc57600080fd5b6128e5836125c9565b915060208301356128f58161264b565b809150509250929050565b6000806000806080858703121561291657600080fd5b61291f856125c9565b935061292d602086016125c9565b92506040850135915060608501356001600160401b0381111561294f57600080fd5b8501601f8101871361296057600080fd5b612883878235602084016126e2565b600082601f83011261298057600080fd5b8135602061299061279d83612759565b82815260059290921b840181019181810190868411156129af57600080fd5b8286015b84811015612800576129c4816125c9565b83529183019183016129b3565b600080600080600080600060e0888a0312156129ec57600080fd5b8735965060208801356001600160401b0380821115612a0a57600080fd5b612a168b838c01612739565b975060408a0135915080821115612a2c57600080fd5b612a388b838c01612739565b965060608a01359150612a4a8261264b565b909450608089013590612a5c8261264b565b819450612a6b60a08b016125c9565b935060c08a0135915080821115612a8157600080fd5b50612a8e8a828b0161296f565b91505092959891949750929550565b60008060408385031215612ab057600080fd5b612ab9836125c9565b9150612ac7602084016125c9565b90509250929050565b600080600080600080600080610100898b031215612aed57600080fd5b612af6896125c9565b975060208901356001600160401b0380821115612b1257600080fd5b612b1e8c838d01612739565b9850612b2c60408c016125c9565b975060608b0135915080821115612b4257600080fd5b612b4e8c838d0161277c565b9650612b5c60808c01612659565b9550612b6a60a08c01612659565b9450612b7860c08c016125c9565b935060e08b0135915080821115612b8e57600080fd5b50612b9b8b828c0161296f565b9150509295985092959890939650565b600080600060608486031215612bc057600080fd5b8335925060208401356001600160401b0380821115612bde57600080fd5b612bea87838801612739565b93506040860135915080821115612c0057600080fd5b50612c0d86828701612739565b9150509250925092565b600181811c90821680612c2b57607f821691505b602082108103612c4b57634e487b7160e01b600052602260045260246000fd5b50919050565b6020808252602d908201527f4552433732313a2063616c6c6572206973206e6f7420746f6b656e206f776e6560408201526c1c881bdc88185c1c1c9bdd9959609a1b606082015260800190565b60208082526012908201527113919508191bd95cc81b9bdd08195e1a5cdd60721b604082015260600190565b602080825260189082015277115490cdcc8c4e881a5b9d985b1a59081d1bdad95b88125160421b604082015260600190565b60208082526022908201527f4d696e74696e67206973207265737472696374656420746f20746865206f776e60408201526132b960f11b606082015260800190565b601f82111561065b57600081815260208120601f850160051c81016020861015612d655750805b601f850160051c820191505b81811015612d8457828155600101612d71565b505050505050565b81516001600160401b03811115612da557612da561269c565b612db981612db38454612c17565b84612d3e565b602080601f831160018114612dee5760008415612dd65750858301515b600019600386901b1c1916600185901b178555612d84565b600085815260208120601f198616915b82811015612e1d57888601518255948401946001909101908401612dfe565b5085821015612e3b5787850151600019600388901b60f8161c191681555b5050505050600190811b01905550565b9182526001600160a01b0316602082015260400190565b60208082526024908201527f43616c6c6572206973206e6f7420746865206f776e6572206f72204e4654206f6040820152633bb732b960e11b606082015260800190565b60208082526012908201527113595d1859185d18481a5cc81b1bd8dad95960721b604082015260600190565b634e487b7160e01b600052603260045260246000fd5b634e487b7160e01b600052601160045260246000fd5b600060018201612f1057612f10612ee8565b5060010190565b60008351612f29818460208801612539565b835190830190612f3d818360208801612539565b01949350505050565b60208082526025908201527f4552433732313a207472616e736665722066726f6d20696e636f72726563742060408201526437bbb732b960d91b606082015260800190565b60208082526032908201527f4552433732313a207472616e7366657220746f206e6f6e20455243373231526560408201527131b2b4bb32b91034b6b83632b6b2b73a32b960711b606082015260800190565b6020808252600f908201526e151bdad95b881a5cc81c185d5cd959608a1b604082015260600190565b60006020828403121561301857600080fd5b8151611b4b8161264b565b8181038181111561048757610487612ee8565b634e487b7160e01b600052603160045260246000fd5b6001600160a01b038581168252841660208201526040810183905260806060820181905260009061307f9083018461255d565b9695505050505050565b60006020828403121561309b57600080fd5b8151611b4b81612506565b6020808252601c908201527f4552433732313a20746f6b656e20616c7265616479206d696e7465640000000060408201526060019056fea26469706673582212202eef960c8c50c772c4994eccecbfd3bf57d2ebc4366b0f8b630713e6ee1ca09864736f6c63430008130033",
  "devdoc": {
    "events": {
      "Approval(address,address,uint256)": {
        "details": "Emitted when `owner` enables `approved` to manage the `tokenId` token."
      },
      "ApprovalForAll(address,address,bool)": {
        "details": "Emitted when `owner` enables or disables (`approved`) `operator` to manage all of its assets."
      },
      "BatchMetadataUpdate(uint256,uint256)": {
        "details": "This event emits when the metadata of a range of tokens is changed. So that the third-party platforms such as NFT market could timely update the images and related attributes of the NFTs."
      },
      "MetadataUpdate(uint256)": {
        "details": "This event emits when the metadata of a token is changed. So that the third-party platforms such as NFT market could timely update the images and related attributes of the NFT."
      },
      "Paused(address)": {
        "details": "Emitted when the pause is triggered by `account`."
      },
      "Transfer(address,address,uint256)": {
        "details": "Emitted when `tokenId` token is transferred from `from` to `to`."
      },
      "Unpaused(address)": {
        "details": "Emitted when the pause is lifted by `account`."
      }
    },
    "kind": "dev",
    "methods": {
      "approve(address,uint256)": {
        "details": "See {IERC721-approve}."
      },
      "balanceOf(address)": {
        "details": "See {IERC721-balanceOf}."
      },
      "getApproved(uint256)": {
        "details": "See {IERC721-getApproved}."
      },
      "isApprovedForAll(address,address)": {
        "details": "See {IERC721-isApprovedForAll}."
      },
      "name()": {
        "details": "See {IERC721Metadata-name}."
      },
      "owner()": {
        "details": "Returns the address of the current owner."
      },
      "ownerOf(uint256)": {
        "details": "See {IERC721-ownerOf}."
      },
      "paused()": {
        "details": "Returns true if the contract is paused, and false otherwise."
      },
      "renounceOwnership()": {
        "details": "Leaves the contract without owner. It will not be possible to call `onlyOwner` functions. Can only be called by the current owner. NOTE: Renouncing ownership will leave the contract without an owner, thereby disabling any functionality that is only available to the owner."
      },
      "safeTransferFrom(address,address,uint256)": {
        "details": "See {IERC721-safeTransferFrom}."
      },
      "safeTransferFrom(address,address,uint256,bytes)": {
        "details": "See {IERC721-safeTransferFrom}."
      },
      "setApprovalForAll(address,bool)": {
        "details": "See {IERC721-setApprovalForAll}."
      },
      "supportsInterface(bytes4)": {
        "details": "See {IERC165-supportsInterface}"
      },
      "symbol()": {
        "details": "See {IERC721Metadata-symbol}."
      },
      "tokenURI(uint256)": {
        "details": "See {IERC721Metadata-tokenURI}."
      },
      "transferFrom(address,address,uint256)": {
        "details": "See {IERC721-transferFrom}."
      },
      "transferOwnership(address)": {
        "details": "Transfers ownership of the contract to a new account (`newOwner`). Can only be called by the current owner."
      }
    },
    "version": 1
  },
  "userdoc": {
    "kind": "user",
    "methods": {},
    "version": 1
  },
  "storageLayout": {
    "storage": [
      {
        "astId": 274,
        "contract": "contracts/NFTFactoryKyc.sol:NFTFactoryKyc",
        "label": "_name",
        "offset": 0,
        "slot": "0",
        "type": "t_string_storage"
      },
      {
        "astId": 276,
        "contract": "contracts/NFTFactoryKyc.sol:NFTFactoryKyc",
        "label": "_symbol",
        "offset": 0,
        "slot": "1",
        "type": "t_string_storage"
      },
      {
        "astId": 280,
        "contract": "contracts/NFTFactoryKyc.sol:NFTFactoryKyc",
        "label": "_owners",
        "offset": 0,
        "slot": "2",
        "type": "t_mapping(t_uint256,t_address)"
      },
      {
        "astId": 284,
        "contract": "contracts/NFTFactoryKyc.sol:NFTFactoryKyc",
        "label": "_balances",
        "offset": 0,
        "slot": "3",
        "type": "t_mapping(t_address,t_uint256)"
      },
      {
        "astId": 288,
        "contract": "contracts/NFTFactoryKyc.sol:NFTFactoryKyc",
        "label": "_tokenApprovals",
        "offset": 0,
        "slot": "4",
        "type": "t_mapping(t_uint256,t_address)"
      },
      {
        "astId": 294,
        "contract": "contracts/NFTFactoryKyc.sol:NFTFactoryKyc",
        "label": "_operatorApprovals",
        "offset": 0,
        "slot": "5",
        "type": "t_mapping(t_address,t_mapping(t_address,t_bool))"
      },
      {
        "astId": 1325,
        "contract": "contracts/NFTFactoryKyc.sol:NFTFactoryKyc",
        "label": "_tokenURIs",
        "offset": 0,
        "slot": "6",
        "type": "t_mapping(t_uint256,t_string_storage)"
      },
      {
        "astId": 7,
        "contract": "contracts/NFTFactoryKyc.sol:NFTFactoryKyc",
        "label": "_owner",
        "offset": 0,
        "slot": "7",
        "type": "t_address"
      },
      {
        "astId": 158,
        "contract": "contracts/NFTFactoryKyc.sol:NFTFactoryKyc",
        "label": "_paused",
        "offset": 20,
        "slot": "7",
        "type": "t_bool"
      },
      {
        "astId": 3173,
        "contract": "contracts/NFTFactoryKyc.sol:NFTFactoryKyc",
        "label": "_tokenIdCounter",
        "offset": 0,
        "slot": "8",
        "type": "t_struct(Counter)1850_storage"
      },
      {
        "astId": 3190,
        "contract": "contracts/NFTFactoryKyc.sol:NFTFactoryKyc",
        "label": "nftData",
        "offset": 0,
        "slot": "9",
        "type": "t_mapping(t_uint256,t_struct(NFTData)3185_storage)"
      },
      {
        "astId": 3195,
        "contract": "contracts/NFTFactoryKyc.sol:NFTFactoryKyc",
        "label": "tokensByAddress",
        "offset": 0,
        "slot": "10",
        "type": "t_mapping(t_address,t_array(t_uint256)dyn_storage)"
      },
      {
        "astId": 3198,
        "contract": "contracts/NFTFactoryKyc.sol:NFTFactoryKyc",
        "label": "onlyOwnerCanMint",
        "offset": 0,
        "slot": "11",
        "type": "t_bool"
      },
      {
        "astId": 3690,
        "contract": "contracts/NFTFactoryKyc.sol:NFTFactoryKyc",
        "label": "_tokenIdCounter",
        "offset": 0,
        "slot": "12",
        "type": "t_struct(Counter)1850_storage"
      },
      {
        "astId": 3706,
        "contract": "contracts/NFTFactoryKyc.sol:NFTFactoryKyc",
        "label": "nftKycData",
        "offset": 0,
        "slot": "13",
        "type": "t_mapping(t_uint256,t_struct(NFTKYCData)3701_storage)"
      }
    ],
    "types": {
      "t_address": {
        "encoding": "inplace",
        "label": "address",
        "numberOfBytes": "20"
      },
      "t_array(t_string_storage)dyn_storage": {
        "base": "t_string_storage",
        "encoding": "dynamic_array",
        "label": "string[]",
        "numberOfBytes": "32"
      },
      "t_array(t_uint256)dyn_storage": {
        "base": "t_uint256",
        "encoding": "dynamic_array",
        "label": "uint256[]",
        "numberOfBytes": "32"
      },
      "t_bool": {
        "encoding": "inplace",
        "label": "bool",
        "numberOfBytes": "1"
      },
      "t_mapping(t_address,t_array(t_uint256)dyn_storage)": {
        "encoding": "mapping",
        "key": "t_address",
        "label": "mapping(address => uint256[])",
        "numberOfBytes": "32",
        "value": "t_array(t_uint256)dyn_storage"
      },
      "t_mapping(t_address,t_bool)": {
        "encoding": "mapping",
        "key": "t_address",
        "label": "mapping(address => bool)",
        "numberOfBytes": "32",
        "value": "t_bool"
      },
      "t_mapping(t_address,t_mapping(t_address,t_bool))": {
        "encoding": "mapping",
        "key": "t_address",
        "label": "mapping(address => mapping(address => bool))",
        "numberOfBytes": "32",
        "value": "t_mapping(t_address,t_bool)"
      },
      "t_mapping(t_address,t_uint256)": {
        "encoding": "mapping",
        "key": "t_address",
        "label": "mapping(address => uint256)",
        "numberOfBytes": "32",
        "value": "t_uint256"
      },
      "t_mapping(t_uint256,t_address)": {
        "encoding": "mapping",
        "key": "t_uint256",
        "label": "mapping(uint256 => address)",
        "numberOfBytes": "32",
        "value": "t_address"
      },
      "t_mapping(t_uint256,t_string_storage)": {
        "encoding": "mapping",
        "key": "t_uint256",
        "label": "mapping(uint256 => string)",
        "numberOfBytes": "32",
        "value": "t_string_storage"
      },
      "t_mapping(t_uint256,t_struct(NFTData)3185_storage)": {
        "encoding": "mapping",
        "key": "t_uint256",
        "label": "mapping(uint256 => struct NFTFactory.NFTData)",
        "numberOfBytes": "32",
        "value": "t_struct(NFTData)3185_storage"
      },
      "t_mapping(t_uint256,t_struct(NFTKYCData)3701_storage)": {
        "encoding": "mapping",
        "key": "t_uint256",
        "label": "mapping(uint256 => struct NFTFactoryKyc.NFTKYCData)",
        "numberOfBytes": "32",
        "value": "t_struct(NFTKYCData)3701_storage"
      },
      "t_string_storage": {
        "encoding": "bytes",
        "label": "string",
        "numberOfBytes": "32"
      },
      "t_struct(Counter)1850_storage": {
        "encoding": "inplace",
        "label": "struct Counters.Counter",
        "members": [
          {
            "astId": 1849,
            "contract": "contracts/NFTFactoryKyc.sol:NFTFactoryKyc",
            "label": "_value",
            "offset": 0,
            "slot": "0",
            "type": "t_uint256"
          }
        ],
        "numberOfBytes": "32"
      },
      "t_struct(NFTData)3185_storage": {
        "encoding": "inplace",
        "label": "struct NFTFactory.NFTData",
        "members": [
          {
            "astId": 3175,
            "contract": "contracts/NFTFactoryKyc.sol:NFTFactoryKyc",
            "label": "status",
            "offset": 0,
            "slot": "0",
            "type": "t_string_storage"
          },
          {
            "astId": 3177,
            "contract": "contracts/NFTFactoryKyc.sol:NFTFactoryKyc",
            "label": "linkedToken",
            "offset": 0,
            "slot": "1",
            "type": "t_address"
          },
          {
            "astId": 3180,
            "contract": "contracts/NFTFactoryKyc.sol:NFTFactoryKyc",
            "label": "linkedTokenInterfaces",
            "offset": 0,
            "slot": "2",
            "type": "t_array(t_string_storage)dyn_storage"
          },
          {
            "astId": 3182,
            "contract": "contracts/NFTFactoryKyc.sol:NFTFactoryKyc",
            "label": "locked",
            "offset": 0,
            "slot": "3",
            "type": "t_bool"
          },
          {
            "astId": 3184,
            "contract": "contracts/NFTFactoryKyc.sol:NFTFactoryKyc",
            "label": "paused",
            "offset": 1,
            "slot": "3",
            "type": "t_bool"
          }
        ],
        "numberOfBytes": "128"
      },
      "t_struct(NFTKYCData)3701_storage": {
        "encoding": "inplace",
        "label": "struct NFTFactoryKyc.NFTKYCData",
        "members": [
          {
            "astId": 3692,
            "contract": "contracts/NFTFactoryKyc.sol:NFTFactoryKyc",
            "label": "kycCheckEnabled",
            "offset": 0,
            "slot": "0",
            "type": "t_bool"
          },
          {
            "astId": 3694,
            "contract": "contracts/NFTFactoryKyc.sol:NFTFactoryKyc",
            "label": "whitelistEnabled",
            "offset": 1,
            "slot": "0",
            "type": "t_bool"
          },
          {
            "astId": 3696,
            "contract": "contracts/NFTFactoryKyc.sol:NFTFactoryKyc",
            "label": "kycContract",
            "offset": 2,
            "slot": "0",
            "type": "t_address"
          },
          {
            "astId": 3700,
            "contract": "contracts/NFTFactoryKyc.sol:NFTFactoryKyc",
            "label": "whitelist",
            "offset": 0,
            "slot": "1",
            "type": "t_mapping(t_address,t_bool)"
          }
        ],
        "numberOfBytes": "64"
      },
      "t_uint256": {
        "encoding": "inplace",
        "label": "uint256",
        "numberOfBytes": "32"
      }
    }
  }
}