{
  "address": "0x723050d90cd9D28868E4115beF77e0a181e4E475",
  "abi": [
    {
      "inputs": [
        {
          "internalType": "string",
          "name": "_name",
          "type": "string"
        },
        {
          "internalType": "string",
          "name": "_symbol",
          "type": "string"
        }
      ],
      "stateMutability": "nonpayable",
      "type": "constructor"
    },
    {
      "anonymous": false,
      "inputs": [
        {
          "indexed": false,
          "internalType": "uint256",
          "name": "tokenId",
          "type": "uint256"
        },
        {
          "indexed": false,
          "internalType": "address",
          "name": "user",
          "type": "address"
        },
        {
          "indexed": false,
          "internalType": "bool",
          "name": "status",
          "type": "bool"
        }
      ],
      "name": "AddressWhitelisted",
      "type": "event"
    },
    {
      "anonymous": false,
      "inputs": [
        {
          "indexed": true,
          "internalType": "address",
          "name": "owner",
          "type": "address"
        },
        {
          "indexed": true,
          "internalType": "address",
          "name": "approved",
          "type": "address"
        },
        {
          "indexed": true,
          "internalType": "uint256",
          "name": "tokenId",
          "type": "uint256"
        }
      ],
      "name": "Approval",
      "type": "event"
    },
    {
      "anonymous": false,
      "inputs": [
        {
          "indexed": true,
          "internalType": "address",
          "name": "owner",
          "type": "address"
        },
        {
          "indexed": true,
          "internalType": "address",
          "name": "operator",
          "type": "address"
        },
        {
          "indexed": false,
          "internalType": "bool",
          "name": "approved",
          "type": "bool"
        }
      ],
      "name": "ApprovalForAll",
      "type": "event"
    },
    {
      "anonymous": false,
      "inputs": [
        {
          "indexed": false,
          "internalType": "uint256",
          "name": "_fromTokenId",
          "type": "uint256"
        },
        {
          "indexed": false,
          "internalType": "uint256",
          "name": "_toTokenId",
          "type": "uint256"
        }
      ],
      "name": "BatchMetadataUpdate",
      "type": "event"
    },
    {
      "anonymous": false,
      "inputs": [
        {
          "indexed": false,
          "internalType": "uint256",
          "name": "tokenId",
          "type": "uint256"
        },
        {
          "indexed": false,
          "internalType": "bool",
          "name": "enabled",
          "type": "bool"
        }
      ],
      "name": "KYCCheckEnabled",
      "type": "event"
    },
    {
      "anonymous": false,
      "inputs": [
        {
          "indexed": false,
          "internalType": "address",
          "name": "kycContract",
          "type": "address"
        }
      ],
      "name": "KYCContractUpdated",
      "type": "event"
    },
    {
      "anonymous": false,
      "inputs": [
        {
          "indexed": false,
          "internalType": "uint256",
          "name": "tokenId",
          "type": "uint256"
        }
      ],
      "name": "MetadataLocked",
      "type": "event"
    },
    {
      "anonymous": false,
      "inputs": [
        {
          "indexed": false,
          "internalType": "uint256",
          "name": "tokenId",
          "type": "uint256"
        }
      ],
      "name": "MetadataUnlocked",
      "type": "event"
    },
    {
      "anonymous": false,
      "inputs": [
        {
          "indexed": false,
          "internalType": "uint256",
          "name": "_tokenId",
          "type": "uint256"
        }
      ],
      "name": "MetadataUpdate",
      "type": "event"
    },
    {
      "anonymous": false,
      "inputs": [
        {
          "indexed": true,
          "internalType": "address",
          "name": "previousOwner",
          "type": "address"
        },
        {
          "indexed": true,
          "internalType": "address",
          "name": "newOwner",
          "type": "address"
        }
      ],
      "name": "OwnershipTransferred",
      "type": "event"
    },
    {
      "anonymous": false,
      "inputs": [
        {
          "indexed": false,
          "internalType": "address",
          "name": "account",
          "type": "address"
        }
      ],
      "name": "Paused",
      "type": "event"
    },
    {
      "anonymous": false,
      "inputs": [
        {
          "indexed": false,
          "internalType": "uint256",
          "name": "tokenId",
          "type": "uint256"
        },
        {
          "indexed": false,
          "internalType": "bool",
          "name": "enabled",
          "type": "bool"
        }
      ],
      "name": "SanctionsCheckEnabled",
      "type": "event"
    },
    {
      "anonymous": false,
      "inputs": [
        {
          "indexed": true,
          "internalType": "uint256",
          "name": "nftId",
          "type": "uint256"
        },
        {
          "indexed": true,
          "internalType": "address",
          "name": "tokenAddress",
          "type": "address"
        }
      ],
      "name": "TokenMinted",
      "type": "event"
    },
    {
      "anonymous": false,
      "inputs": [
        {
          "indexed": false,
          "internalType": "uint256",
          "name": "tokenId",
          "type": "uint256"
        }
      ],
      "name": "TokenPaused",
      "type": "event"
    },
    {
      "anonymous": false,
      "inputs": [
        {
          "indexed": false,
          "internalType": "uint256",
          "name": "tokenId",
          "type": "uint256"
        }
      ],
      "name": "TokenUnpaused",
      "type": "event"
    },
    {
      "anonymous": false,
      "inputs": [
        {
          "indexed": true,
          "internalType": "address",
          "name": "from",
          "type": "address"
        },
        {
          "indexed": true,
          "internalType": "address",
          "name": "to",
          "type": "address"
        },
        {
          "indexed": true,
          "internalType": "uint256",
          "name": "tokenId",
          "type": "uint256"
        }
      ],
      "name": "Transfer",
      "type": "event"
    },
    {
      "anonymous": false,
      "inputs": [
        {
          "indexed": false,
          "internalType": "address",
          "name": "account",
          "type": "address"
        }
      ],
      "name": "Unpaused",
      "type": "event"
    },
    {
      "anonymous": false,
      "inputs": [
        {
          "indexed": false,
          "internalType": "uint256",
          "name": "tokenId",
          "type": "uint256"
        },
        {
          "indexed": false,
          "internalType": "bool",
          "name": "enabled",
          "type": "bool"
        }
      ],
      "name": "WhitelistEnabled",
      "type": "event"
    },
    {
      "inputs": [
        {
          "internalType": "address",
          "name": "to",
          "type": "address"
        },
        {
          "internalType": "uint256",
          "name": "tokenId",
          "type": "uint256"
        }
      ],
      "name": "approve",
      "outputs": [],
      "stateMutability": "nonpayable",
      "type": "function"
    },
    {
      "inputs": [
        {
          "internalType": "address",
          "name": "owner",
          "type": "address"
        }
      ],
      "name": "balanceOf",
      "outputs": [
        {
          "internalType": "uint256",
          "name": "",
          "type": "uint256"
        }
      ],
      "stateMutability": "view",
      "type": "function"
    },
    {
      "inputs": [
        {
          "internalType": "uint256",
          "name": "tokenId",
          "type": "uint256"
        }
      ],
      "name": "getApproved",
      "outputs": [
        {
          "internalType": "address",
          "name": "",
          "type": "address"
        }
      ],
      "stateMutability": "view",
      "type": "function"
    },
    {
      "inputs": [
        {
          "internalType": "address",
          "name": "owner",
          "type": "address"
        }
      ],
      "name": "getTokensByAddress",
      "outputs": [
        {
          "internalType": "uint256[]",
          "name": "",
          "type": "uint256[]"
        }
      ],
      "stateMutability": "view",
      "type": "function"
    },
    {
      "inputs": [
        {
          "internalType": "address",
          "name": "owner",
          "type": "address"
        },
        {
          "internalType": "address",
          "name": "operator",
          "type": "address"
        }
      ],
      "name": "isApprovedForAll",
      "outputs": [
        {
          "internalType": "bool",
          "name": "",
          "type": "bool"
        }
      ],
      "stateMutability": "view",
      "type": "function"
    },
    {
      "inputs": [],
      "name": "kycContract",
      "outputs": [
        {
          "internalType": "address",
          "name": "",
          "type": "address"
        }
      ],
      "stateMutability": "view",
      "type": "function"
    },
    {
      "inputs": [],
      "name": "linkedTokenFactoryAddress",
      "outputs": [
        {
          "internalType": "address",
          "name": "",
          "type": "address"
        }
      ],
      "stateMutability": "view",
      "type": "function"
    },
    {
      "inputs": [
        {
          "internalType": "uint256",
          "name": "tokenId",
          "type": "uint256"
        }
      ],
      "name": "lock",
      "outputs": [],
      "stateMutability": "nonpayable",
      "type": "function"
    },
    {
      "inputs": [
        {
          "internalType": "address",
          "name": "to",
          "type": "address"
        },
        {
          "internalType": "string",
          "name": "tokenURI",
          "type": "string"
        },
        {
          "internalType": "address",
          "name": "existingLinkedToken",
          "type": "address"
        },
        {
          "internalType": "string[]",
          "name": "existingLinkedTokenInterfaces",
          "type": "string[]"
        },
        {
          "internalType": "string",
          "name": "name_",
          "type": "string"
        },
        {
          "internalType": "string",
          "name": "symbol_",
          "type": "string"
        },
        {
          "internalType": "address[]",
          "name": "membersToFund",
          "type": "address[]"
        },
        {
          "internalType": "uint256[]",
          "name": "amountsToFund",
          "type": "uint256[]"
        }
      ],
      "name": "mint",
      "outputs": [
        {
          "internalType": "uint256",
          "name": "",
          "type": "uint256"
        }
      ],
      "stateMutability": "nonpayable",
      "type": "function"
    },
    {
      "inputs": [],
      "name": "name",
      "outputs": [
        {
          "internalType": "string",
          "name": "",
          "type": "string"
        }
      ],
      "stateMutability": "view",
      "type": "function"
    },
    {
      "inputs": [
        {
          "internalType": "uint256",
          "name": "",
          "type": "uint256"
        }
      ],
      "name": "nftData",
      "outputs": [
        {
          "internalType": "string",
          "name": "status",
          "type": "string"
        },
        {
          "internalType": "address",
          "name": "linkedToken",
          "type": "address"
        },
        {
          "internalType": "bool",
          "name": "locked",
          "type": "bool"
        },
        {
          "internalType": "bool",
          "name": "paused",
          "type": "bool"
        }
      ],
      "stateMutability": "view",
      "type": "function"
    },
    {
      "inputs": [
        {
          "internalType": "uint256",
          "name": "",
          "type": "uint256"
        }
      ],
      "name": "nftKycData",
      "outputs": [
        {
          "internalType": "bool",
          "name": "kycCheckEnabled",
          "type": "bool"
        },
        {
          "internalType": "bool",
          "name": "whitelistEnabled",
          "type": "bool"
        }
      ],
      "stateMutability": "view",
      "type": "function"
    },
    {
      "inputs": [],
      "name": "onlyOwnerCanMint",
      "outputs": [
        {
          "internalType": "bool",
          "name": "",
          "type": "bool"
        }
      ],
      "stateMutability": "view",
      "type": "function"
    },
    {
      "inputs": [],
      "name": "owner",
      "outputs": [
        {
          "internalType": "address",
          "name": "",
          "type": "address"
        }
      ],
      "stateMutability": "view",
      "type": "function"
    },
    {
      "inputs": [
        {
          "internalType": "uint256",
          "name": "tokenId",
          "type": "uint256"
        }
      ],
      "name": "ownerOf",
      "outputs": [
        {
          "internalType": "address",
          "name": "",
          "type": "address"
        }
      ],
      "stateMutability": "view",
      "type": "function"
    },
    {
      "inputs": [],
      "name": "pauseAll",
      "outputs": [],
      "stateMutability": "nonpayable",
      "type": "function"
    },
    {
      "inputs": [
        {
          "internalType": "uint256",
          "name": "tokenId",
          "type": "uint256"
        }
      ],
      "name": "pauseToken",
      "outputs": [],
      "stateMutability": "nonpayable",
      "type": "function"
    },
    {
      "inputs": [],
      "name": "paused",
      "outputs": [
        {
          "internalType": "bool",
          "name": "",
          "type": "bool"
        }
      ],
      "stateMutability": "view",
      "type": "function"
    },
    {
      "inputs": [],
      "name": "renounceOwnership",
      "outputs": [],
      "stateMutability": "nonpayable",
      "type": "function"
    },
    {
      "inputs": [
        {
          "internalType": "address",
          "name": "from",
          "type": "address"
        },
        {
          "internalType": "address",
          "name": "to",
          "type": "address"
        },
        {
          "internalType": "uint256",
          "name": "tokenId",
          "type": "uint256"
        }
      ],
      "name": "safeTransferFrom",
      "outputs": [],
      "stateMutability": "nonpayable",
      "type": "function"
    },
    {
      "inputs": [
        {
          "internalType": "address",
          "name": "from",
          "type": "address"
        },
        {
          "internalType": "address",
          "name": "to",
          "type": "address"
        },
        {
          "internalType": "uint256",
          "name": "tokenId",
          "type": "uint256"
        },
        {
          "internalType": "bytes",
          "name": "data",
          "type": "bytes"
        }
      ],
      "name": "safeTransferFrom",
      "outputs": [],
      "stateMutability": "nonpayable",
      "type": "function"
    },
    {
      "inputs": [
        {
          "internalType": "address",
          "name": "operator",
          "type": "address"
        },
        {
          "internalType": "bool",
          "name": "approved",
          "type": "bool"
        }
      ],
      "name": "setApprovalForAll",
      "outputs": [],
      "stateMutability": "nonpayable",
      "type": "function"
    },
    {
      "inputs": [
        {
          "internalType": "address",
          "name": "kycContract_",
          "type": "address"
        }
      ],
      "name": "setKYCContract",
      "outputs": [],
      "stateMutability": "nonpayable",
      "type": "function"
    },
    {
      "inputs": [
        {
          "internalType": "address",
          "name": "newFactoryAddress",
          "type": "address"
        }
      ],
      "name": "setLinkedTokenFactory",
      "outputs": [],
      "stateMutability": "nonpayable",
      "type": "function"
    },
    {
      "inputs": [
        {
          "internalType": "bool",
          "name": "_onlyOwnerCanMint",
          "type": "bool"
        }
      ],
      "name": "setOnlyOwnerCanMint",
      "outputs": [],
      "stateMutability": "nonpayable",
      "type": "function"
    },
    {
      "inputs": [
        {
          "internalType": "bytes4",
          "name": "interfaceId",
          "type": "bytes4"
        }
      ],
      "name": "supportsInterface",
      "outputs": [
        {
          "internalType": "bool",
          "name": "",
          "type": "bool"
        }
      ],
      "stateMutability": "view",
      "type": "function"
    },
    {
      "inputs": [],
      "name": "symbol",
      "outputs": [
        {
          "internalType": "string",
          "name": "",
          "type": "string"
        }
      ],
      "stateMutability": "view",
      "type": "function"
    },
    {
      "inputs": [
        {
          "internalType": "uint256",
          "name": "tokenId",
          "type": "uint256"
        }
      ],
      "name": "tokenURI",
      "outputs": [
        {
          "internalType": "string",
          "name": "",
          "type": "string"
        }
      ],
      "stateMutability": "view",
      "type": "function"
    },
    {
      "inputs": [
        {
          "internalType": "address",
          "name": "from",
          "type": "address"
        },
        {
          "internalType": "address",
          "name": "to",
          "type": "address"
        },
        {
          "internalType": "uint256",
          "name": "tokenId",
          "type": "uint256"
        }
      ],
      "name": "transferFrom",
      "outputs": [],
      "stateMutability": "nonpayable",
      "type": "function"
    },
    {
      "inputs": [
        {
          "internalType": "address",
          "name": "newOwner",
          "type": "address"
        }
      ],
      "name": "transferOwnership",
      "outputs": [],
      "stateMutability": "nonpayable",
      "type": "function"
    },
    {
      "inputs": [
        {
          "internalType": "uint256",
          "name": "tokenId",
          "type": "uint256"
        }
      ],
      "name": "unlock",
      "outputs": [],
      "stateMutability": "nonpayable",
      "type": "function"
    },
    {
      "inputs": [],
      "name": "unpauseAll",
      "outputs": [],
      "stateMutability": "nonpayable",
      "type": "function"
    },
    {
      "inputs": [
        {
          "internalType": "uint256",
          "name": "tokenId",
          "type": "uint256"
        }
      ],
      "name": "unpauseToken",
      "outputs": [],
      "stateMutability": "nonpayable",
      "type": "function"
    },
    {
      "inputs": [
        {
          "internalType": "uint256",
          "name": "tokenId",
          "type": "uint256"
        },
        {
          "internalType": "string",
          "name": "status",
          "type": "string"
        },
        {
          "internalType": "string",
          "name": "tokenURI",
          "type": "string"
        },
        {
          "internalType": "bool",
          "name": "kycCheckEnabled",
          "type": "bool"
        },
        {
          "internalType": "bool",
          "name": "whitelistEnabled",
          "type": "bool"
        },
        {
          "internalType": "address[]",
          "name": "whitelistAddresses",
          "type": "address[]"
        }
      ],
      "name": "updateNFT",
      "outputs": [],
      "stateMutability": "nonpayable",
      "type": "function"
    },
    {
      "inputs": [
        {
          "internalType": "uint256",
          "name": "tokenId",
          "type": "uint256"
        },
        {
          "internalType": "string",
          "name": "status",
          "type": "string"
        },
        {
          "internalType": "string",
          "name": "tokenURI",
          "type": "string"
        }
      ],
      "name": "updateNFT",
      "outputs": [],
      "stateMutability": "nonpayable",
      "type": "function"
    }
  ],
  "transactionHash": "0xd1b90c9102ff0892d00e2b3b74aad77aa69a8fd2f08e9244445fa06dcfb3bee5",
  "args": [
    "NFT KYC Factory",
    "NFTKYC"
  ],
  "numDeployments": 3,
  "solcInputHash": "b1e8ce52f951636b7f5046f7c2ffcc76",
  "bytecode": "0x6080604052600980546001600160a81b0319169055600d80546001600160a01b0319167333f28c3a636b38683a38987100723f2e2d3d038e1790553480156200004757600080fd5b50604051620034d5380380620034d58339810160408190526200006a91620001db565b8181818160006200007c8382620002d4565b5060016200008b8282620002d4565b505050620000a8620000a2620000c060201b60201c565b620000c4565b50506007805460ff60a01b1916905550620003a09050565b3390565b600780546001600160a01b038381166001600160a01b0319831681179093556040519116919082907f8be0079c531659141344cd1fd0a4f28419497f9722a3daafe3b4186f6b6457e090600090a35050565b634e487b7160e01b600052604160045260246000fd5b600082601f8301126200013e57600080fd5b81516001600160401b03808211156200015b576200015b62000116565b604051601f8301601f19908116603f0116810190828211818310171562000186576200018662000116565b81604052838152602092508683858801011115620001a357600080fd5b600091505b83821015620001c75785820183015181830184015290820190620001a8565b600093810190920192909252949350505050565b60008060408385031215620001ef57600080fd5b82516001600160401b03808211156200020757600080fd5b62000215868387016200012c565b935060208501519150808211156200022c57600080fd5b506200023b858286016200012c565b9150509250929050565b600181811c908216806200025a57607f821691505b6020821081036200027b57634e487b7160e01b600052602260045260246000fd5b50919050565b601f821115620002cf57600081815260208120601f850160051c81016020861015620002aa5750805b601f850160051c820191505b81811015620002cb57828155600101620002b6565b5050505b505050565b81516001600160401b03811115620002f057620002f062000116565b620003088162000301845462000245565b8462000281565b602080601f831160018114620003405760008415620003275750858301515b600019600386901b1c1916600185901b178555620002cb565b600085815260208120601f198616915b82811015620003715788860151825594840194600190910190840162000350565b5085821015620003905787850151600019600388901b60f8161c191681555b5050505050600190811b01905550565b61312580620003b06000396000f3fe608060405234801561001057600080fd5b50600436106101d15760003560e01c806370a08231116101055780639b10d7521161009d5780639b10d75214610404578063a22cb46514610417578063b88d4fde1461042a578063c87b56dd1461043d578063dd46706414610450578063e985e9c514610463578063f2fde38b14610476578063fbd395f814610489578063fda361641461049c57600080fd5b806370a0823114610344578063715018a614610357578063776ab6341461035f57806385d098dc146103725780638a2ddd03146103865780638c2109751461038e5780638da5cb5b146103b157806395d89b41146103b95780639802f6e9146103c157600080fd5b8063281504001161017857806328150400146102af57806342842e0e146102c25780634a60bb17146102d5578063595c6a67146102e85780635bb94589146102f05780635c975abb146103035780636198e3391461030b5780636352211e1461031e5780636d3123eb1461033157600080fd5b806301ffc9a7146101d657806306fdde03146101fe57806307ca364514610213578063081812fc14610233578063095ea7b314610253578063188dbb8f146102685780631bba26b31461027b57806323b872dd1461029c575b600080fd5b6101e96101e436600461246c565b6104af565b60405190151581526020015b60405180910390f35b6102066104da565b6040516101f591906124d9565b610226610221366004612511565b61056c565b6040516101f59190612569565b61024661024136600461257c565b6105d8565b6040516101f59190612595565b6102666102613660046125a9565b6105ff565b005b610266610276366004612511565b610719565b61028e610289366004612803565b610743565b6040519081526020016101f5565b6102666102aa36600461291a565b6109d1565b600954610246906001600160a01b031681565b6102666102d036600461291a565b610a02565b6102666102e3366004612511565b610a1d565b610266610a7b565b6102666102fe366004612969565b610a8d565b6101e9610ab3565b61026661031936600461257c565b610ac3565b61024661032c36600461257c565b610b3b565b600d54610246906001600160a01b031681565b61028e610352366004612511565b610b6f565b610266610bf5565b61026661036d36600461257c565b610c07565b6009546101e990600160a01b900460ff1681565b610266610cdc565b6103a161039c36600461257c565b610cec565b6040516101f59493929190612986565b610246610dac565b610206610dbb565b6103ed6103cf36600461257c565b600e6020526000908152604090205460ff8082169161010090041682565b6040805192151583529015156020830152016101f5565b6102666104123660046129c0565b610dca565b610266610425366004612a79565b610f83565b610266610438366004612ab2565b610f92565b61020661044b36600461257c565b610fca565b61026661045e36600461257c565b6110da565b6101e9610471366004612b31565b6111a9565b610266610484366004612511565b6111d7565b61026661049736600461257c565b611250565b6102666104aa366004612b5f565b611321565b60006001600160e01b03198216632483248360e11b14806104d457506104d482611406565b92915050565b6060600080546104e990612bcb565b80601f016020809104026020016040519081016040528092919081815260200182805461051590612bcb565b80156105625780601f1061053757610100808354040283529160200191610562565b820191906000526020600020905b81548152906001019060200180831161054557829003601f168201915b5050505050905090565b6001600160a01b0381166000908152600b60209081526040918290208054835181840281018401909452808452606093928301828280156105cc57602002820191906000526020600020905b8154815260200190600101908083116105b8575b50505050509050919050565b60006105e382611456565b506000908152600460205260409020546001600160a01b031690565b600061060a82610b3b565b9050806001600160a01b0316836001600160a01b03160361067c5760405162461bcd60e51b815260206004820152602160248201527f4552433732313a20617070726f76616c20746f2063757272656e74206f776e656044820152603960f91b60648201526084015b60405180910390fd5b336001600160a01b0382161480610698575061069881336111a9565b61070a5760405162461bcd60e51b815260206004820152603d60248201527f4552433732313a20617070726f76652063616c6c6572206973206e6f7420746f60448201527f6b656e206f776e6572206f7220617070726f76656420666f7220616c6c0000006064820152608401610673565b610714838361147b565b505050565b6107216114e9565b600980546001600160a01b0319166001600160a01b0392909216919091179055565b600954600090600160a01b900460ff1615806107775750610762610dac565b6001600160a01b0316336001600160a01b0316145b6107ce5760405162461bcd60e51b815260206004820152602260248201527f4d696e74696e67206973207265737472696374656420746f20746865206f776e60448201526132b960f11b6064820152608401610673565b60006107d9600c5490565b90506107e9600c80546001019055565b6107f38a82611548565b6107fd818a611562565b600060606001600160a01b038a16158015610819575060008851115b8015610826575060008751115b8015610833575060008651115b8015610840575060008551115b156108dc57600960009054906101000a90046001600160a01b03166001600160a01b0316633310180b89898f30888c8c6040518863ffffffff1660e01b81526004016108929796959493929190612c05565b6020604051808303816000875af11580156108b1573d6000803e3d6000fd5b505050506040513d601f19601f820116820180604052508101906108d59190612ca7565b91506108e2565b50889050875b604080518082018252600681526561637469766560d01b6020808301919091526000868152600a909152919091209061091b9082612d0a565b506000838152600a602090815260409091206001810180546001600160a01b0319166001600160a01b038616179055825161095e92600290920191840190612399565b506000838152600a60209081526040808320600301805461ffff19908116909155600e9092528083208054909216909155516001600160a01b038e169185917f3a5398bda6f1f57d6c96834fa9bf02b5517bdc847d14312015a917ba421c31c99190a350909a9950505050505050505050565b6109db338261161e565b6109f75760405162461bcd60e51b815260040161067390612dc9565b61071483838361167c565b61071483838360405180602001604052806000815250610f92565b610a256114e9565b600d80546001600160a01b0319166001600160a01b0383161790556040517f4f589e6a3abb770e918faa4a81179c080e1b4863e122f360b52fb98f09c63d1090610a70908390612595565b60405180910390a150565b610a836114e9565b610a8b6117ed565b565b610a956114e9565b60098054911515600160a01b0260ff60a01b19909216919091179055565b600754600160a01b900460ff1690565b610acb6114e9565b610ad481611847565b610af05760405162461bcd60e51b815260040161067390612e16565b6000818152600a602052604090819020600301805460ff19169055517f15231ceabda9f4f9436b8f17a28b36c21c8e434c821082aa1cfb3fcc994fe6c090610a709083815260200190565b600080610b4783611864565b90506001600160a01b0381166104d45760405162461bcd60e51b815260040161067390612e42565b60006001600160a01b038216610bd95760405162461bcd60e51b815260206004820152602960248201527f4552433732313a2061646472657373207a65726f206973206e6f7420612076616044820152683634b21037bbb732b960b91b6064820152608401610673565b506001600160a01b031660009081526003602052604090205490565b610bfd6114e9565b610a8b600061187f565b610c0f6114e9565b610c1881611847565b610c345760405162461bcd60e51b815260040161067390612e16565b610c3c610dac565b6001600160a01b0316336001600160a01b03161480610c745750610c5f81610b3b565b6001600160a01b0316336001600160a01b0316145b610c905760405162461bcd60e51b815260040161067390612e74565b6000818152600a602052604090819020600301805461ff0019169055517f0cfa9cc56bacd896c88effb6a4051b954fcaaf2de7ae98882e39f294ea65184390610a709083815260200190565b610ce46114e9565b610a8b6118d1565b600a60205260009081526040902080548190610d0790612bcb565b80601f0160208091040260200160405190810160405280929190818152602001828054610d3390612bcb565b8015610d805780601f10610d5557610100808354040283529160200191610d80565b820191906000526020600020905b815481529060010190602001808311610d6357829003601f168201915b50505050600183015460039093015491926001600160a01b03169160ff80821692506101009091041684565b6007546001600160a01b031690565b6060600180546104e990612bcb565b610dd386611847565b610def5760405162461bcd60e51b815260040161067390612e16565b610df7610dac565b6001600160a01b0316336001600160a01b03161480610e2f5750610e1a86610b3b565b6001600160a01b0316336001600160a01b0316145b610e4b5760405162461bcd60e51b815260040161067390612e74565b6000868152600a602052604090206003015460ff1615610e7d5760405162461bcd60e51b815260040161067390612eb8565b845115610e9e576000868152600a60205260409020610e9c8682612d0a565b505b835115610eaf57610eaf8685611562565b8215610ed0576000868152600e60205260409020805460ff19168415151790555b8115610ef6576000868152600e60205260409020805461ff001916610100841515021790555b805115610f7b5760005b8151811015610f79576001600e60008981526020019081526020016000206001016000848481518110610f3557610f35612ee4565b6020908102919091018101516001600160a01b03168252810191909152604001600020805460ff191691151591909117905580610f7181612f10565b915050610f00565b505b505050505050565b610f8e33838361190d565b5050565b610f9c338361161e565b610fb85760405162461bcd60e51b815260040161067390612dc9565b610fc4848484846119d7565b50505050565b6060610fd582611456565b60008281526006602052604081208054610fee90612bcb565b80601f016020809104026020016040519081016040528092919081815260200182805461101a90612bcb565b80156110675780601f1061103c57610100808354040283529160200191611067565b820191906000526020600020905b81548152906001019060200180831161104a57829003601f168201915b50505050509050600061108560408051602081019091526000815290565b90508051600003611097575092915050565b8151156110c95780826040516020016110b1929190612f29565b60405160208183030381529060405292505050919050565b6110d284611a0a565b949350505050565b6110e381611847565b6110ff5760405162461bcd60e51b815260040161067390612e16565b611107610dac565b6001600160a01b0316336001600160a01b0316148061113f575061112a81610b3b565b6001600160a01b0316336001600160a01b0316145b61115b5760405162461bcd60e51b815260040161067390612e74565b6000818152600a602052604090819020600301805460ff19166001179055517f0b102582412c868866f81f4a2d5f0632027804dda110c66f39e5a9b83340c95d90610a709083815260200190565b6001600160a01b03918216600090815260056020908152604080832093909416825291909152205460ff1690565b6111df6114e9565b6001600160a01b0381166112445760405162461bcd60e51b815260206004820152602660248201527f4f776e61626c653a206e6577206f776e657220697320746865207a65726f206160448201526564647265737360d01b6064820152608401610673565b61124d8161187f565b50565b61125981611847565b6112755760405162461bcd60e51b815260040161067390612e16565b61127d610dac565b6001600160a01b0316336001600160a01b031614806112b557506112a081610b3b565b6001600160a01b0316336001600160a01b0316145b6112d15760405162461bcd60e51b815260040161067390612e74565b6000818152600a602052604090819020600301805461ff001916610100179055517fc2d830ac158eec7b589dfadf012044c95b8646222991556ab4cd311e38bc77d190610a709083815260200190565b61132a83611847565b6113465760405162461bcd60e51b815260040161067390612e16565b61134e610dac565b6001600160a01b0316336001600160a01b03161480611386575061137183610b3b565b6001600160a01b0316336001600160a01b0316145b6113a25760405162461bcd60e51b815260040161067390612e74565b6000838152600a602052604090206003015460ff16156113d45760405162461bcd60e51b815260040161067390612eb8565b8151156113f5576000838152600a602052604090206113f38382612d0a565b505b805115610714576107148382611562565b60006001600160e01b031982166380ac58cd60e01b148061143757506001600160e01b03198216635b5e139f60e01b145b806104d457506301ffc9a760e01b6001600160e01b03198316146104d4565b61145f81611847565b61124d5760405162461bcd60e51b815260040161067390612e42565b600081815260046020526040902080546001600160a01b0319166001600160a01b03841690811790915581906114b082610b3b565b6001600160a01b03167f8c5be1e5ebec7d5bd14f71427d1e84f3dd0314c0f7b2291e5b200ac8c7c3b92560405160405180910390a45050565b336114f2610dac565b6001600160a01b031614610a8b5760405162461bcd60e51b815260206004820181905260248201527f4f776e61626c653a2063616c6c6572206973206e6f7420746865206f776e65726044820152606401610673565b610f8e828260405180602001604052806000815250611a7e565b61156b82611847565b6115ce5760405162461bcd60e51b815260206004820152602e60248201527f45524337323155524953746f726167653a2055524920736574206f66206e6f6e60448201526d32bc34b9ba32b73a103a37b5b2b760911b6064820152608401610673565b60008281526006602052604090206115e68282612d0a565b506040518281527ff8e1a15aba9398e019f0b49df1a4fde98ee17ae345cb5f6b5e2c27f5033e8ce79060200160405180910390a15050565b60008061162a83610b3b565b9050806001600160a01b0316846001600160a01b03161480611651575061165181856111a9565b806110d25750836001600160a01b031661166a846105d8565b6001600160a01b031614949350505050565b826001600160a01b031661168f82610b3b565b6001600160a01b0316146116b55760405162461bcd60e51b815260040161067390612f58565b6001600160a01b0382166117175760405162461bcd60e51b8152602060048201526024808201527f4552433732313a207472616e7366657220746f20746865207a65726f206164646044820152637265737360e01b6064820152608401610673565b6117248383836001611ab1565b826001600160a01b031661173782610b3b565b6001600160a01b03161461175d5760405162461bcd60e51b815260040161067390612f58565b600081815260046020908152604080832080546001600160a01b03199081169091556001600160a01b0387811680865260038552838620805460001901905590871680865283862080546001019055868652600290945282852080549092168417909155905184937fddf252ad1be2c89b69c2b068fc378daa952ba7f163c4a11628f55a4df523b3ef91a4505050565b6117f5611e1f565b6007805460ff60a01b1916600160a01b1790557f62e78cea01bee320cd4e420270b5ea74000d11b0c9f74754ebdbfc544b05a2586118303390565b60405161183d9190612595565b60405180910390a1565b60008061185383611864565b6001600160a01b0316141592915050565b6000908152600260205260409020546001600160a01b031690565b600780546001600160a01b038381166001600160a01b0319831681179093556040519116919082907f8be0079c531659141344cd1fd0a4f28419497f9722a3daafe3b4186f6b6457e090600090a35050565b6118d9611e67565b6007805460ff60a01b191690557f5db9ee0a495bf2e6ff9c91a7834c1ba4fdd244a5e8aa4e537bd38aeae4b073aa33611830565b816001600160a01b0316836001600160a01b03160361196a5760405162461bcd60e51b815260206004820152601960248201527822a9219b99189d1030b8383937bb32903a379031b0b63632b960391b6044820152606401610673565b6001600160a01b03838116600081815260056020908152604080832094871680845294825291829020805460ff191686151590811790915591519182527f17307eab39ab6107e8899845ad3d59bd9653f200f220920489ca2b5937696c31910160405180910390a3505050565b6119e284848461167c565b6119ee84848484611eb2565b610fc45760405162461bcd60e51b815260040161067390612f9d565b6060611a1582611456565b6000611a2c60408051602081019091526000815290565b90506000815111611a4c5760405180602001604052806000815250611a77565b80611a5684611fb3565b604051602001611a67929190612f29565b6040516020818303038152906040525b9392505050565b611a888383612045565b611a956000848484611eb2565b6107145760405162461bcd60e51b815260040161067390612f9d565b611ab9611e1f565b6000828152600a6020526040902060030154610100900460ff1615611af05760405162461bcd60e51b815260040161067390612fef565b6000828152600e602052604090205460ff1615611c5957600d546040516313289ea360e31b81526001600160a01b0390911690639944f51890611b37908690600401612595565b602060405180830381865afa158015611b54573d6000803e3d6000fd5b505050506040513d601f19601f82011682018060405250810190611b789190613018565b8015611bf05750600d54604051630add9f7f60e01b81526001600160a01b0390911690630add9f7f90611baf908690600401612595565b602060405180830381865afa158015611bcc573d6000803e3d6000fd5b505050506040513d601f19601f82011682018060405250810190611bf09190613018565b611c595760405162461bcd60e51b815260206004820152603460248201527f526563697069656e7420686173206e6f7420706173736564204b5943206f72206044820152736973206e6f742053616e6374696f6e735361666560601b6064820152608401610673565b6000828152600e6020526040902054610100900460ff1615611cf4576000828152600e602090815260408083206001600160a01b038716845260010190915290205460ff16611cf45760405162461bcd60e51b815260206004820152602160248201527f526563697069656e74206973206e6f7420696e207468652077686974656c69736044820152601d60fa1b6064820152608401610673565b6001600160a01b03841615611dd8576001600160a01b0384166000908152600b60205260408120815b8154811015611d635784828281548110611d3957611d39612ee4565b906000526020600020015403611d5157809250611d63565b80611d5b81612f10565b915050611d1d565b5080548190611d7490600190613035565b81548110611d8457611d84612ee4565b9060005260206000200154818381548110611da157611da1612ee4565b906000526020600020018190555080805480611dbf57611dbf613048565b6001900381819060005260206000200160009055905550505b6001600160a01b03831615611e13576001600160a01b0383166000908152600b60209081526040822080546001810182559083529120018290555b610fc484848484612160565b611e27610ab3565b15610a8b5760405162461bcd60e51b815260206004820152601060248201526f14185d5cd8589b194e881c185d5cd95960821b6044820152606401610673565b611e6f610ab3565b610a8b5760405162461bcd60e51b815260206004820152601460248201527314185d5cd8589b194e881b9bdd081c185d5cd95960621b6044820152606401610673565b60006001600160a01b0384163b15611fa857604051630a85bd0160e11b81526001600160a01b0385169063150b7a0290611ef690339089908890889060040161305e565b6020604051808303816000875af1925050508015611f31575060408051601f3d908101601f19168201909252611f2e9181019061309b565b60015b611f8e573d808015611f5f576040519150601f19603f3d011682016040523d82523d6000602084013e611f64565b606091505b508051600003611f865760405162461bcd60e51b815260040161067390612f9d565b805181602001fd5b6001600160e01b031916630a85bd0160e11b1490506110d2565b506001949350505050565b60606000611fc0836122c3565b60010190506000816001600160401b03811115611fdf57611fdf6125d5565b6040519080825280601f01601f191660200182016040528015612009576020820181803683370190505b5090508181016020015b600019016f181899199a1a9b1b9c1cb0b131b232b360811b600a86061a8153600a850494508461201357509392505050565b6001600160a01b03821661209b5760405162461bcd60e51b815260206004820181905260248201527f4552433732313a206d696e7420746f20746865207a65726f20616464726573736044820152606401610673565b6120a481611847565b156120c15760405162461bcd60e51b8152600401610673906130b8565b6120cf600083836001611ab1565b6120d881611847565b156120f55760405162461bcd60e51b8152600401610673906130b8565b6001600160a01b038216600081815260036020908152604080832080546001019055848352600290915280822080546001600160a01b0319168417905551839291907fddf252ad1be2c89b69c2b068fc378daa952ba7f163c4a11628f55a4df523b3ef908290a45050565b612168611e1f565b6000828152600a6020526040902060030154610100900460ff161561219f5760405162461bcd60e51b815260040161067390612fef565b6001600160a01b03841615612283576001600160a01b0384166000908152600b60205260408120815b815481101561220e57848282815481106121e4576121e4612ee4565b9060005260206000200154036121fc5780925061220e565b8061220681612f10565b9150506121c8565b508054819061221f90600190613035565b8154811061222f5761222f612ee4565b906000526020600020015481838154811061224c5761224c612ee4565b90600052602060002001819055508080548061226a5761226a613048565b6001900381819060005260206000200160009055905550505b6001600160a01b038316156122be576001600160a01b0383166000908152600b60209081526040822080546001810182559083529120018290555b610fc4565b60008072184f03e93ff9f4daa797ed6e38ed64bf6a1f0160401b83106123025772184f03e93ff9f4daa797ed6e38ed64bf6a1f0160401b830492506040015b6904ee2d6d415b85acef8160201b831061232c576904ee2d6d415b85acef8160201b830492506020015b662386f26fc10000831061234a57662386f26fc10000830492506010015b6305f5e1008310612362576305f5e100830492506008015b612710831061237657612710830492506004015b60648310612388576064830492506002015b600a83106104d45760010192915050565b8280548282559060005260206000209081019282156123df579160200282015b828111156123df57825182906123cf9082612d0a565b50916020019190600101906123b9565b506123eb9291506123ef565b5090565b808211156123eb576000612403828261240c565b506001016123ef565b50805461241890612bcb565b6000825580601f10612428575050565b601f01602090049060005260206000209081019061124d91905b808211156123eb5760008155600101612442565b6001600160e01b03198116811461124d57600080fd5b60006020828403121561247e57600080fd5b8135611a7781612456565b60005b838110156124a457818101518382015260200161248c565b50506000910152565b600081518084526124c5816020860160208601612489565b601f01601f19169290920160200192915050565b602081526000611a7760208301846124ad565b6001600160a01b038116811461124d57600080fd5b803561250c816124ec565b919050565b60006020828403121561252357600080fd5b8135611a77816124ec565b600081518084526020808501945080840160005b8381101561255e57815187529582019590820190600101612542565b509495945050505050565b602081526000611a77602083018461252e565b60006020828403121561258e57600080fd5b5035919050565b6001600160a01b0391909116815260200190565b600080604083850312156125bc57600080fd5b82356125c7816124ec565b946020939093013593505050565b634e487b7160e01b600052604160045260246000fd5b604051601f8201601f191681016001600160401b0381118282101715612613576126136125d5565b604052919050565b60006001600160401b03831115612634576126346125d5565b612647601f8401601f19166020016125eb565b905082815283838301111561265b57600080fd5b828260208301376000602084830101529392505050565b600082601f83011261268357600080fd5b611a778383356020850161261b565b60006001600160401b038211156126ab576126ab6125d5565b5060051b60200190565b600082601f8301126126c657600080fd5b813560206126db6126d683612692565b6125eb565b82815260059290921b840181019181810190868411156126fa57600080fd5b8286015b848110156127395780356001600160401b0381111561271d5760008081fd5b61272b8986838b0101612672565b8452509183019183016126fe565b509695505050505050565b600082601f83011261275557600080fd5b813560206127656126d683612692565b82815260059290921b8401810191818101908684111561278457600080fd5b8286015b8481101561273957803561279b816124ec565b8352918301918301612788565b600082601f8301126127b957600080fd5b813560206127c96126d683612692565b82815260059290921b840181019181810190868411156127e857600080fd5b8286015b8481101561273957803583529183019183016127ec565b600080600080600080600080610100898b03121561282057600080fd5b61282989612501565b975060208901356001600160401b038082111561284557600080fd5b6128518c838d01612672565b985061285f60408c01612501565b975060608b013591508082111561287557600080fd5b6128818c838d016126b5565b965060808b013591508082111561289757600080fd5b6128a38c838d01612672565b955060a08b01359150808211156128b957600080fd5b6128c58c838d01612672565b945060c08b01359150808211156128db57600080fd5b6128e78c838d01612744565b935060e08b01359150808211156128fd57600080fd5b5061290a8b828c016127a8565b9150509295985092959890939650565b60008060006060848603121561292f57600080fd5b833561293a816124ec565b9250602084013561294a816124ec565b929592945050506040919091013590565b801515811461124d57600080fd5b60006020828403121561297b57600080fd5b8135611a778161295b565b60808152600061299960808301876124ad565b6001600160a01b039590951660208301525091151560408301521515606090910152919050565b60008060008060008060c087890312156129d957600080fd5b8635955060208701356001600160401b03808211156129f757600080fd5b612a038a838b01612672565b96506040890135915080821115612a1957600080fd5b612a258a838b01612672565b955060608901359150612a378261295b565b909350608088013590612a498261295b565b90925060a08801359080821115612a5f57600080fd5b50612a6c89828a01612744565b9150509295509295509295565b60008060408385031215612a8c57600080fd5b8235612a97816124ec565b91506020830135612aa78161295b565b809150509250929050565b60008060008060808587031215612ac857600080fd5b8435612ad3816124ec565b93506020850135612ae3816124ec565b92506040850135915060608501356001600160401b03811115612b0557600080fd5b8501601f81018713612b1657600080fd5b612b258782356020840161261b565b91505092959194509250565b60008060408385031215612b4457600080fd5b8235612b4f816124ec565b91506020830135612aa7816124ec565b600080600060608486031215612b7457600080fd5b8335925060208401356001600160401b0380821115612b9257600080fd5b612b9e87838801612672565b93506040860135915080821115612bb457600080fd5b50612bc186828701612672565b9150509250925092565b600181811c90821680612bdf57607f821691505b602082108103612bff57634e487b7160e01b600052602260045260246000fd5b50919050565b60e081526000612c1860e083018a6124ad565b602083820381850152612c2b828b6124ad565b6001600160a01b038a8116604087015289811660608701526080860189905285820360a087015287518083528389019450909183019060005b81811015612c82578551841683529484019491840191600101612c64565b505085810360c0870152612c96818861252e565b9d9c50505050505050505050505050565b600060208284031215612cb957600080fd5b8151611a77816124ec565b601f82111561071457600081815260208120601f850160051c81016020861015612ceb5750805b601f850160051c820191505b81811015610f7b57828155600101612cf7565b81516001600160401b03811115612d2357612d236125d5565b612d3781612d318454612bcb565b84612cc4565b602080601f831160018114612d6c5760008415612d545750858301515b600019600386901b1c1916600185901b178555610f7b565b600085815260208120601f198616915b82811015612d9b57888601518255948401946001909101908401612d7c565b5085821015612db95787850151600019600388901b60f8161c191681555b5050505050600190811b01905550565b6020808252602d908201527f4552433732313a2063616c6c6572206973206e6f7420746f6b656e206f776e6560408201526c1c881bdc88185c1c1c9bdd9959609a1b606082015260800190565b60208082526012908201527113919508191bd95cc81b9bdd08195e1a5cdd60721b604082015260600190565b602080825260189082015277115490cdcc8c4e881a5b9d985b1a59081d1bdad95b88125160421b604082015260600190565b60208082526024908201527f43616c6c6572206973206e6f7420746865206f776e6572206f72204e4654206f6040820152633bb732b960e11b606082015260800190565b60208082526012908201527113595d1859185d18481a5cc81b1bd8dad95960721b604082015260600190565b634e487b7160e01b600052603260045260246000fd5b634e487b7160e01b600052601160045260246000fd5b600060018201612f2257612f22612efa565b5060010190565b60008351612f3b818460208801612489565b835190830190612f4f818360208801612489565b01949350505050565b60208082526025908201527f4552433732313a207472616e736665722066726f6d20696e636f72726563742060408201526437bbb732b960d91b606082015260800190565b60208082526032908201527f4552433732313a207472616e7366657220746f206e6f6e20455243373231526560408201527131b2b4bb32b91034b6b83632b6b2b73a32b960711b606082015260800190565b6020808252600f908201526e151bdad95b881a5cc81c185d5cd959608a1b604082015260600190565b60006020828403121561302a57600080fd5b8151611a778161295b565b818103818111156104d4576104d4612efa565b634e487b7160e01b600052603160045260246000fd5b6001600160a01b0385811682528416602082015260408101839052608060608201819052600090613091908301846124ad565b9695505050505050565b6000602082840312156130ad57600080fd5b8151611a7781612456565b6020808252601c908201527f4552433732313a20746f6b656e20616c7265616479206d696e7465640000000060408201526060019056fea2646970667358221220cd65c6691c1b97ecfd19d7b1ec04c6279afb4748fdfde610084e64bece416f4d64736f6c63430008130033",
  "devdoc": {
    "events": {
      "Approval(address,address,uint256)": {
        "details": "Emitted when `owner` enables `approved` to manage the `tokenId` token."
      },
      "ApprovalForAll(address,address,bool)": {
        "details": "Emitted when `owner` enables or disables (`approved`) `operator` to manage all of its assets."
      },
      "BatchMetadataUpdate(uint256,uint256)": {
        "details": "This event emits when the metadata of a range of tokens is changed. So that the third-party platforms such as NFT market could timely update the images and related attributes of the NFTs."
      },
      "MetadataUpdate(uint256)": {
        "details": "This event emits when the metadata of a token is changed. So that the third-party platforms such as NFT market could timely update the images and related attributes of the NFT."
      },
      "Paused(address)": {
        "details": "Emitted when the pause is triggered by `account`."
      },
      "Transfer(address,address,uint256)": {
        "details": "Emitted when `tokenId` token is transferred from `from` to `to`."
      },
      "Unpaused(address)": {
        "details": "Emitted when the pause is lifted by `account`."
      }
    },
    "kind": "dev",
    "methods": {
      "approve(address,uint256)": {
        "details": "See {IERC721-approve}."
      },
      "balanceOf(address)": {
        "details": "See {IERC721-balanceOf}."
      },
      "getApproved(uint256)": {
        "details": "See {IERC721-getApproved}."
      },
      "isApprovedForAll(address,address)": {
        "details": "See {IERC721-isApprovedForAll}."
      },
      "name()": {
        "details": "See {IERC721Metadata-name}."
      },
      "owner()": {
        "details": "Returns the address of the current owner."
      },
      "ownerOf(uint256)": {
        "details": "See {IERC721-ownerOf}."
      },
      "paused()": {
        "details": "Returns true if the contract is paused, and false otherwise."
      },
      "renounceOwnership()": {
        "details": "Leaves the contract without owner. It will not be possible to call `onlyOwner` functions. Can only be called by the current owner. NOTE: Renouncing ownership will leave the contract without an owner, thereby disabling any functionality that is only available to the owner."
      },
      "safeTransferFrom(address,address,uint256)": {
        "details": "See {IERC721-safeTransferFrom}."
      },
      "safeTransferFrom(address,address,uint256,bytes)": {
        "details": "See {IERC721-safeTransferFrom}."
      },
      "setApprovalForAll(address,bool)": {
        "details": "See {IERC721-setApprovalForAll}."
      },
      "supportsInterface(bytes4)": {
        "details": "See {IERC165-supportsInterface}"
      },
      "symbol()": {
        "details": "See {IERC721Metadata-symbol}."
      },
      "tokenURI(uint256)": {
        "details": "See {IERC721Metadata-tokenURI}."
      },
      "transferFrom(address,address,uint256)": {
        "details": "See {IERC721-transferFrom}."
      },
      "transferOwnership(address)": {
        "details": "Transfers ownership of the contract to a new account (`newOwner`). Can only be called by the current owner."
      }
    },
    "version": 1
  },
  "userdoc": {
    "kind": "user",
    "methods": {},
    "version": 1
  },
  "storageLayout": {
    "storage": [
      {
        "astId": 964,
        "contract": "contracts/NFTFactoryKyc.sol:NFTFactoryKyc",
        "label": "_name",
        "offset": 0,
        "slot": "0",
        "type": "t_string_storage"
      },
      {
        "astId": 966,
        "contract": "contracts/NFTFactoryKyc.sol:NFTFactoryKyc",
        "label": "_symbol",
        "offset": 0,
        "slot": "1",
        "type": "t_string_storage"
      },
      {
        "astId": 970,
        "contract": "contracts/NFTFactoryKyc.sol:NFTFactoryKyc",
        "label": "_owners",
        "offset": 0,
        "slot": "2",
        "type": "t_mapping(t_uint256,t_address)"
      },
      {
        "astId": 974,
        "contract": "contracts/NFTFactoryKyc.sol:NFTFactoryKyc",
        "label": "_balances",
        "offset": 0,
        "slot": "3",
        "type": "t_mapping(t_address,t_uint256)"
      },
      {
        "astId": 978,
        "contract": "contracts/NFTFactoryKyc.sol:NFTFactoryKyc",
        "label": "_tokenApprovals",
        "offset": 0,
        "slot": "4",
        "type": "t_mapping(t_uint256,t_address)"
      },
      {
        "astId": 984,
        "contract": "contracts/NFTFactoryKyc.sol:NFTFactoryKyc",
        "label": "_operatorApprovals",
        "offset": 0,
        "slot": "5",
        "type": "t_mapping(t_address,t_mapping(t_address,t_bool))"
      },
      {
        "astId": 2015,
        "contract": "contracts/NFTFactoryKyc.sol:NFTFactoryKyc",
        "label": "_tokenURIs",
        "offset": 0,
        "slot": "6",
        "type": "t_mapping(t_uint256,t_string_storage)"
      },
      {
        "astId": 7,
        "contract": "contracts/NFTFactoryKyc.sol:NFTFactoryKyc",
        "label": "_owner",
        "offset": 0,
        "slot": "7",
        "type": "t_address"
      },
      {
        "astId": 158,
        "contract": "contracts/NFTFactoryKyc.sol:NFTFactoryKyc",
        "label": "_paused",
        "offset": 20,
        "slot": "7",
        "type": "t_bool"
      },
      {
        "astId": 4955,
        "contract": "contracts/NFTFactoryKyc.sol:NFTFactoryKyc",
        "label": "_tokenIdCounter",
        "offset": 0,
        "slot": "8",
        "type": "t_struct(Counter)2540_storage"
      },
      {
        "astId": 4958,
        "contract": "contracts/NFTFactoryKyc.sol:NFTFactoryKyc",
        "label": "linkedTokenFactoryAddress",
        "offset": 0,
        "slot": "9",
        "type": "t_address"
      },
      {
        "astId": 4961,
        "contract": "contracts/NFTFactoryKyc.sol:NFTFactoryKyc",
        "label": "onlyOwnerCanMint",
        "offset": 20,
        "slot": "9",
        "type": "t_bool"
      },
      {
        "astId": 4978,
        "contract": "contracts/NFTFactoryKyc.sol:NFTFactoryKyc",
        "label": "nftData",
        "offset": 0,
        "slot": "10",
        "type": "t_mapping(t_uint256,t_struct(NFTData)4973_storage)"
      },
      {
        "astId": 4983,
        "contract": "contracts/NFTFactoryKyc.sol:NFTFactoryKyc",
        "label": "tokensByAddress",
        "offset": 0,
        "slot": "11",
        "type": "t_mapping(t_address,t_array(t_uint256)dyn_storage)"
      },
      {
        "astId": 5563,
        "contract": "contracts/NFTFactoryKyc.sol:NFTFactoryKyc",
        "label": "_tokenIdCounter",
        "offset": 0,
        "slot": "12",
        "type": "t_struct(Counter)2540_storage"
      },
      {
        "astId": 5566,
        "contract": "contracts/NFTFactoryKyc.sol:NFTFactoryKyc",
        "label": "kycContract",
        "offset": 0,
        "slot": "13",
        "type": "t_address"
      },
      {
        "astId": 5580,
        "contract": "contracts/NFTFactoryKyc.sol:NFTFactoryKyc",
        "label": "nftKycData",
        "offset": 0,
        "slot": "14",
        "type": "t_mapping(t_uint256,t_struct(NFTKYCData)5575_storage)"
      }
    ],
    "types": {
      "t_address": {
        "encoding": "inplace",
        "label": "address",
        "numberOfBytes": "20"
      },
      "t_array(t_string_storage)dyn_storage": {
        "base": "t_string_storage",
        "encoding": "dynamic_array",
        "label": "string[]",
        "numberOfBytes": "32"
      },
      "t_array(t_uint256)dyn_storage": {
        "base": "t_uint256",
        "encoding": "dynamic_array",
        "label": "uint256[]",
        "numberOfBytes": "32"
      },
      "t_bool": {
        "encoding": "inplace",
        "label": "bool",
        "numberOfBytes": "1"
      },
      "t_mapping(t_address,t_array(t_uint256)dyn_storage)": {
        "encoding": "mapping",
        "key": "t_address",
        "label": "mapping(address => uint256[])",
        "numberOfBytes": "32",
        "value": "t_array(t_uint256)dyn_storage"
      },
      "t_mapping(t_address,t_bool)": {
        "encoding": "mapping",
        "key": "t_address",
        "label": "mapping(address => bool)",
        "numberOfBytes": "32",
        "value": "t_bool"
      },
      "t_mapping(t_address,t_mapping(t_address,t_bool))": {
        "encoding": "mapping",
        "key": "t_address",
        "label": "mapping(address => mapping(address => bool))",
        "numberOfBytes": "32",
        "value": "t_mapping(t_address,t_bool)"
      },
      "t_mapping(t_address,t_uint256)": {
        "encoding": "mapping",
        "key": "t_address",
        "label": "mapping(address => uint256)",
        "numberOfBytes": "32",
        "value": "t_uint256"
      },
      "t_mapping(t_uint256,t_address)": {
        "encoding": "mapping",
        "key": "t_uint256",
        "label": "mapping(uint256 => address)",
        "numberOfBytes": "32",
        "value": "t_address"
      },
      "t_mapping(t_uint256,t_string_storage)": {
        "encoding": "mapping",
        "key": "t_uint256",
        "label": "mapping(uint256 => string)",
        "numberOfBytes": "32",
        "value": "t_string_storage"
      },
      "t_mapping(t_uint256,t_struct(NFTData)4973_storage)": {
        "encoding": "mapping",
        "key": "t_uint256",
        "label": "mapping(uint256 => struct NFTFactory.NFTData)",
        "numberOfBytes": "32",
        "value": "t_struct(NFTData)4973_storage"
      },
      "t_mapping(t_uint256,t_struct(NFTKYCData)5575_storage)": {
        "encoding": "mapping",
        "key": "t_uint256",
        "label": "mapping(uint256 => struct NFTFactoryKyc.NFTKYCData)",
        "numberOfBytes": "32",
        "value": "t_struct(NFTKYCData)5575_storage"
      },
      "t_string_storage": {
        "encoding": "bytes",
        "label": "string",
        "numberOfBytes": "32"
      },
      "t_struct(Counter)2540_storage": {
        "encoding": "inplace",
        "label": "struct Counters.Counter",
        "members": [
          {
            "astId": 2539,
            "contract": "contracts/NFTFactoryKyc.sol:NFTFactoryKyc",
            "label": "_value",
            "offset": 0,
            "slot": "0",
            "type": "t_uint256"
          }
        ],
        "numberOfBytes": "32"
      },
      "t_struct(NFTData)4973_storage": {
        "encoding": "inplace",
        "label": "struct NFTFactory.NFTData",
        "members": [
          {
            "astId": 4963,
            "contract": "contracts/NFTFactoryKyc.sol:NFTFactoryKyc",
            "label": "status",
            "offset": 0,
            "slot": "0",
            "type": "t_string_storage"
          },
          {
            "astId": 4965,
            "contract": "contracts/NFTFactoryKyc.sol:NFTFactoryKyc",
            "label": "linkedToken",
            "offset": 0,
            "slot": "1",
            "type": "t_address"
          },
          {
            "astId": 4968,
            "contract": "contracts/NFTFactoryKyc.sol:NFTFactoryKyc",
            "label": "linkedTokenInterfaces",
            "offset": 0,
            "slot": "2",
            "type": "t_array(t_string_storage)dyn_storage"
          },
          {
            "astId": 4970,
            "contract": "contracts/NFTFactoryKyc.sol:NFTFactoryKyc",
            "label": "locked",
            "offset": 0,
            "slot": "3",
            "type": "t_bool"
          },
          {
            "astId": 4972,
            "contract": "contracts/NFTFactoryKyc.sol:NFTFactoryKyc",
            "label": "paused",
            "offset": 1,
            "slot": "3",
            "type": "t_bool"
          }
        ],
        "numberOfBytes": "128"
      },
      "t_struct(NFTKYCData)5575_storage": {
        "encoding": "inplace",
        "label": "struct NFTFactoryKyc.NFTKYCData",
        "members": [
          {
            "astId": 5568,
            "contract": "contracts/NFTFactoryKyc.sol:NFTFactoryKyc",
            "label": "kycCheckEnabled",
            "offset": 0,
            "slot": "0",
            "type": "t_bool"
          },
          {
            "astId": 5570,
            "contract": "contracts/NFTFactoryKyc.sol:NFTFactoryKyc",
            "label": "whitelistEnabled",
            "offset": 1,
            "slot": "0",
            "type": "t_bool"
          },
          {
            "astId": 5574,
            "contract": "contracts/NFTFactoryKyc.sol:NFTFactoryKyc",
            "label": "whitelist",
            "offset": 0,
            "slot": "1",
            "type": "t_mapping(t_address,t_bool)"
          }
        ],
        "numberOfBytes": "64"
      },
      "t_uint256": {
        "encoding": "inplace",
        "label": "uint256",
        "numberOfBytes": "32"
      }
    }
  }
}